{
    "contractName": "Pool",
    "abi": [
        {
            "inputs": [
                {
                    "internalType": "address",
                    "name": "addressCurrency",
                    "type": "address"
                },
                {
                    "internalType": "address",
                    "name": "addressNFT",
                    "type": "address"
                },
                {
                    "internalType": "address",
                    "name": "accountFunder",
                    "type": "address"
                },
                {
                    "internalType": "uint256",
                    "name": "MinInvesting",
                    "type": "uint256"
                },
                {
                    "internalType": "uint256",
                    "name": "Rate",
                    "type": "uint256"
                },
                {
                    "internalType": "uint256",
                    "name": "StakingDays",
                    "type": "uint256"
                },
                {
                    "internalType": "uint256",
                    "name": "MarginInvestment",
                    "type": "uint256"
                }
            ],
            "stateMutability": "nonpayable",
            "type": "constructor"
        },
        {
            "anonymous": false,
            "inputs": [
                {
                    "indexed": true,
                    "internalType": "address",
                    "name": "newMp",
                    "type": "address"
                },
                {
                    "indexed": false,
                    "internalType": "uint256",
                    "name": "time",
                    "type": "uint256"
                }
            ],
            "name": "ChangedMarketPlace",
            "type": "event"
        },
        {
            "anonymous": false,
            "inputs": [
                {
                    "indexed": true,
                    "internalType": "address",
                    "name": "investor",
                    "type": "address"
                },
                {
                    "indexed": true,
                    "internalType": "uint256",
                    "name": "amount",
                    "type": "uint256"
                }
            ],
            "name": "Deposit",
            "type": "event"
        },
        {
            "anonymous": false,
            "inputs": [
                {
                    "indexed": true,
                    "internalType": "uint256",
                    "name": "tokenId",
                    "type": "uint256"
                },
                {
                    "indexed": true,
                    "internalType": "address",
                    "name": "ownerOfNFT",
                    "type": "address"
                },
                {
                    "indexed": false,
                    "internalType": "uint256",
                    "name": "amountFounding",
                    "type": "uint256"
                }
            ],
            "name": "Funding",
            "type": "event"
        },
        {
            "anonymous": false,
            "inputs": [
                {
                    "indexed": true,
                    "internalType": "bytes32",
                    "name": "role",
                    "type": "bytes32"
                },
                {
                    "indexed": true,
                    "internalType": "bytes32",
                    "name": "previousAdminRole",
                    "type": "bytes32"
                },
                {
                    "indexed": true,
                    "internalType": "bytes32",
                    "name": "newAdminRole",
                    "type": "bytes32"
                }
            ],
            "name": "RoleAdminChanged",
            "type": "event"
        },
        {
            "anonymous": false,
            "inputs": [
                {
                    "indexed": true,
                    "internalType": "bytes32",
                    "name": "role",
                    "type": "bytes32"
                },
                {
                    "indexed": true,
                    "internalType": "address",
                    "name": "account",
                    "type": "address"
                },
                {
                    "indexed": true,
                    "internalType": "address",
                    "name": "sender",
                    "type": "address"
                }
            ],
            "name": "RoleGranted",
            "type": "event"
        },
        {
            "anonymous": false,
            "inputs": [
                {
                    "indexed": true,
                    "internalType": "bytes32",
                    "name": "role",
                    "type": "bytes32"
                },
                {
                    "indexed": true,
                    "internalType": "address",
                    "name": "account",
                    "type": "address"
                },
                {
                    "indexed": true,
                    "internalType": "address",
                    "name": "sender",
                    "type": "address"
                }
            ],
            "name": "RoleRevoked",
            "type": "event"
        },
        {
            "anonymous": false,
            "inputs": [
                {
                    "indexed": true,
                    "internalType": "address",
                    "name": "investor",
                    "type": "address"
                },
                {
                    "indexed": true,
                    "internalType": "uint256",
                    "name": "amount",
                    "type": "uint256"
                }
            ],
            "name": "Withdraw",
            "type": "event"
        },
        {
            "inputs": [],
            "name": "DEFAULT_ADMIN_ROLE",
            "outputs": [
                {
                    "internalType": "bytes32",
                    "name": "",
                    "type": "bytes32"
                }
            ],
            "stateMutability": "view",
            "type": "function"
        },
        {
            "inputs": [],
            "name": "FUNDER_ROLE",
            "outputs": [
                {
                    "internalType": "bytes32",
                    "name": "",
                    "type": "bytes32"
                }
            ],
            "stateMutability": "view",
            "type": "function"
        },
        {
            "inputs": [
                {
                    "internalType": "address",
                    "name": "mp",
                    "type": "address"
                }
            ],
            "name": "_changedMarketPlace",
            "outputs": [
                {
                    "internalType": "bool",
                    "name": "",
                    "type": "bool"
                }
            ],
            "stateMutability": "nonpayable",
            "type": "function"
        },
        {
            "inputs": [
                {
                    "internalType": "uint256",
                    "name": "newInterest",
                    "type": "uint256"
                }
            ],
            "name": "_interest",
            "outputs": [
                {
                    "internalType": "bool",
                    "name": "",
                    "type": "bool"
                }
            ],
            "stateMutability": "nonpayable",
            "type": "function"
        },
        {
            "inputs": [],
            "name": "_liquidity",
            "outputs": [
                {
                    "internalType": "uint256",
                    "name": "liquidity",
                    "type": "uint256"
                }
            ],
            "stateMutability": "view",
            "type": "function"
        },
        {
            "inputs": [
                {
                    "internalType": "uint256",
                    "name": "newMarginInvestmment",
                    "type": "uint256"
                }
            ],
            "name": "_marginInvestment",
            "outputs": [
                {
                    "internalType": "bool",
                    "name": "",
                    "type": "bool"
                }
            ],
            "stateMutability": "nonpayable",
            "type": "function"
        },
        {
            "inputs": [
                {
                    "internalType": "uint256",
                    "name": "newMinInvesting",
                    "type": "uint256"
                }
            ],
            "name": "_minInvesting",
            "outputs": [
                {
                    "internalType": "bool",
                    "name": "",
                    "type": "bool"
                }
            ],
            "stateMutability": "nonpayable",
            "type": "function"
        },
        {
            "inputs": [],
            "name": "_numberOfInvestment",
            "outputs": [
                {
                    "internalType": "uint256",
                    "name": "_value",
                    "type": "uint256"
                }
            ],
            "stateMutability": "view",
            "type": "function"
        },
        {
            "inputs": [],
            "name": "_numberOfInvestors",
            "outputs": [
                {
                    "internalType": "uint256",
                    "name": "_value",
                    "type": "uint256"
                }
            ],
            "stateMutability": "view",
            "type": "function"
        },
        {
            "inputs": [
                {
                    "internalType": "uint256",
                    "name": "newStakingDays",
                    "type": "uint256"
                }
            ],
            "name": "_stakingDays",
            "outputs": [
                {
                    "internalType": "bool",
                    "name": "",
                    "type": "bool"
                }
            ],
            "stateMutability": "nonpayable",
            "type": "function"
        },
        {
            "inputs": [
                {
                    "internalType": "uint256",
                    "name": "_amount",
                    "type": "uint256"
                }
            ],
            "name": "deposit",
            "outputs": [
                {
                    "internalType": "bool",
                    "name": "",
                    "type": "bool"
                }
            ],
            "stateMutability": "nonpayable",
            "type": "function"
        },
        {
            "inputs": [
                {
                    "internalType": "address",
                    "name": "",
                    "type": "address"
                }
            ],
            "name": "exist",
            "outputs": [
                {
                    "internalType": "bool",
                    "name": "",
                    "type": "bool"
                }
            ],
            "stateMutability": "view",
            "type": "function"
        },
        {
            "inputs": [
                {
                    "internalType": "uint256",
                    "name": "",
                    "type": "uint256"
                }
            ],
            "name": "financed",
            "outputs": [
                {
                    "internalType": "bool",
                    "name": "",
                    "type": "bool"
                }
            ],
            "stateMutability": "view",
            "type": "function"
        },
        {
            "inputs": [
                {
                    "internalType": "uint256",
                    "name": "_tokenId",
                    "type": "uint256"
                },
                {
                    "internalType": "uint256",
                    "name": "_amount",
                    "type": "uint256"
                }
            ],
            "name": "funding",
            "outputs": [
                {
                    "internalType": "uint256",
                    "name": "",
                    "type": "uint256"
                }
            ],
            "stateMutability": "nonpayable",
            "type": "function"
        },
        {
            "inputs": [
                {
                    "internalType": "bytes32",
                    "name": "role",
                    "type": "bytes32"
                }
            ],
            "name": "getRoleAdmin",
            "outputs": [
                {
                    "internalType": "bytes32",
                    "name": "",
                    "type": "bytes32"
                }
            ],
            "stateMutability": "view",
            "type": "function"
        },
        {
            "inputs": [
                {
                    "internalType": "bytes32",
                    "name": "role",
                    "type": "bytes32"
                },
                {
                    "internalType": "address",
                    "name": "account",
                    "type": "address"
                }
            ],
            "name": "grantRole",
            "outputs": [],
            "stateMutability": "nonpayable",
            "type": "function"
        },
        {
            "inputs": [
                {
                    "internalType": "bytes32",
                    "name": "role",
                    "type": "bytes32"
                },
                {
                    "internalType": "address",
                    "name": "account",
                    "type": "address"
                }
            ],
            "name": "hasRole",
            "outputs": [
                {
                    "internalType": "bool",
                    "name": "",
                    "type": "bool"
                }
            ],
            "stateMutability": "view",
            "type": "function"
        },
        {
            "inputs": [],
            "name": "interest",
            "outputs": [
                {
                    "internalType": "uint256",
                    "name": "",
                    "type": "uint256"
                }
            ],
            "stateMutability": "view",
            "type": "function"
        },
        {
            "inputs": [
                {
                    "internalType": "address",
                    "name": "_investor",
                    "type": "address"
                }
            ],
            "name": "investingOf",
            "outputs": [
                {
                    "internalType": "uint256",
                    "name": "balance",
                    "type": "uint256"
                }
            ],
            "stateMutability": "view",
            "type": "function"
        },
        {
            "inputs": [
                {
                    "internalType": "address",
                    "name": "",
                    "type": "address"
                }
            ],
            "name": "investors",
            "outputs": [
                {
                    "internalType": "uint256",
                    "name": "amountFounding",
                    "type": "uint256"
                },
                {
                    "internalType": "uint256",
                    "name": "benefits",
                    "type": "uint256"
                },
                {
                    "internalType": "uint256",
                    "name": "dayDeposit",
                    "type": "uint256"
                }
            ],
            "stateMutability": "view",
            "type": "function"
        },
        {
            "inputs": [],
            "name": "marginInvestment",
            "outputs": [
                {
                    "internalType": "uint256",
                    "name": "",
                    "type": "uint256"
                }
            ],
            "stateMutability": "view",
            "type": "function"
        },
        {
            "inputs": [],
            "name": "minInvesting",
            "outputs": [
                {
                    "internalType": "uint256",
                    "name": "",
                    "type": "uint256"
                }
            ],
            "stateMutability": "view",
            "type": "function"
        },
        {
            "inputs": [
                {
                    "internalType": "address",
                    "name": "",
                    "type": "address"
                },
                {
                    "internalType": "address",
                    "name": "",
                    "type": "address"
                },
                {
                    "internalType": "uint256",
                    "name": "",
                    "type": "uint256"
                },
                {
                    "internalType": "bytes",
                    "name": "",
                    "type": "bytes"
                }
            ],
            "name": "onERC721Received",
            "outputs": [
                {
                    "internalType": "bytes4",
                    "name": "",
                    "type": "bytes4"
                }
            ],
            "stateMutability": "nonpayable",
            "type": "function"
        },
        {
            "inputs": [
                {
                    "internalType": "address",
                    "name": "",
                    "type": "address"
                }
            ],
            "name": "pendingReturns",
            "outputs": [
                {
                    "internalType": "uint256",
                    "name": "",
                    "type": "uint256"
                }
            ],
            "stateMutability": "view",
            "type": "function"
        },
        {
            "inputs": [
                {
                    "internalType": "address",
                    "name": "_investor",
                    "type": "address"
                }
            ],
            "name": "profit",
            "outputs": [
                {
                    "internalType": "uint256",
                    "name": "",
                    "type": "uint256"
                }
            ],
            "stateMutability": "view",
            "type": "function"
        },
        {
            "inputs": [
                {
                    "internalType": "bytes32",
                    "name": "role",
                    "type": "bytes32"
                },
                {
                    "internalType": "address",
                    "name": "account",
                    "type": "address"
                }
            ],
            "name": "renounceRole",
            "outputs": [],
            "stateMutability": "nonpayable",
            "type": "function"
        },
        {
            "inputs": [
                {
                    "internalType": "bytes32",
                    "name": "role",
                    "type": "bytes32"
                },
                {
                    "internalType": "address",
                    "name": "account",
                    "type": "address"
                }
            ],
            "name": "revokeRole",
            "outputs": [],
            "stateMutability": "nonpayable",
            "type": "function"
        },
        {
            "inputs": [
                {
                    "internalType": "address",
                    "name": "investor",
                    "type": "address"
                }
            ],
            "name": "showRemainingTimeToWithdraw",
            "outputs": [
                {
                    "internalType": "uint256",
                    "name": "",
                    "type": "uint256"
                }
            ],
            "stateMutability": "view",
            "type": "function"
        },
        {
            "inputs": [],
            "name": "stakingDays",
            "outputs": [
                {
                    "internalType": "uint256",
                    "name": "",
                    "type": "uint256"
                }
            ],
            "stateMutability": "view",
            "type": "function"
        },
        {
            "inputs": [
                {
                    "internalType": "bytes4",
                    "name": "interfaceId",
                    "type": "bytes4"
                }
            ],
            "name": "supportsInterface",
            "outputs": [
                {
                    "internalType": "bool",
                    "name": "",
                    "type": "bool"
                }
            ],
            "stateMutability": "view",
            "type": "function"
        },
        {
            "inputs": [
                {
                    "internalType": "uint256",
                    "name": "_valueWithdrawal",
                    "type": "uint256"
                }
            ],
            "name": "withdraw",
            "outputs": [
                {
                    "internalType": "bool",
                    "name": "",
                    "type": "bool"
                }
            ],
            "stateMutability": "nonpayable",
            "type": "function"
        }
    ],
    "bytecode": "60806040523480156200001157600080fd5b5060405162001f1f38038062001f1f833981016040819052620000349162000436565b60018490556002839055600780546001600160a01b03808a166001600160a01b0319928316179092556008805492891692909116919091179055426200007c83603c62000570565b62000088919062000555565b60035560048190556200009d600033620000d6565b620000c97f0914bb97ca83e85ef385857d9d418f187ff630589e0c9f44db92976d8e4519cb86620000e6565b5050505050505062000621565b620000e2828262000115565b5050565b600082815260208190526040902060010154620001048133620001b5565b62000110838362000115565b505050565b6000828152602081815260408083206001600160a01b038516845290915290205460ff16620000e2576000828152602081815260408083206001600160a01b03851684529091529020805460ff19166001179055620001713390565b6001600160a01b0316816001600160a01b0316837f2f8788117e7eff1d82e926ec794901d17c78024a50270940304540a733656f0d60405160405180910390a45050565b6000828152602081815260408083206001600160a01b038516845290915290205460ff16620000e257620001ff816001600160a01b031660146200025960201b620011a31760201c565b62000215836020620011a362000259821b17811c565b60405160200162000228929190620004a7565b60408051601f198184030181529082905262461bcd60e51b8252620002509160040162000520565b60405180910390fd5b606060006200026a83600262000570565b6200027790600262000555565b6001600160401b038111156200029157620002916200060b565b6040519080825280601f01601f191660200182016040528015620002bc576020820181803683370190505b509050600360fc1b81600081518110620002da57620002da620005f5565b60200101906001600160f81b031916908160001a905350600f60fb1b816001815181106200030c576200030c620005f5565b60200101906001600160f81b031916908160001a90535060006200033284600262000570565b6200033f90600162000555565b90505b6001811115620003c1576f181899199a1a9b1b9c1cb0b131b232b360811b85600f1660108110620003775762000377620005f5565b1a60f81b828281518110620003905762000390620005f5565b60200101906001600160f81b031916908160001a90535060049490941c93620003b981620005c5565b905062000342565b508315620004125760405162461bcd60e51b815260206004820181905260248201527f537472696e67733a20686578206c656e67746820696e73756666696369656e74604482015260640162000250565b9392505050565b80516001600160a01b03811681146200043157600080fd5b919050565b600080600080600080600060e0888a0312156200045257600080fd5b6200045d8862000419565b96506200046d6020890162000419565b95506200047d6040890162000419565b9450606088015193506080880151925060a0880151915060c0880151905092959891949750929550565b7f416363657373436f6e74726f6c3a206163636f756e7420000000000000000000815260008351620004e181601785016020880162000592565b7001034b99036b4b9b9b4b733903937b6329607d1b60179184019182015283516200051481602884016020880162000592565b01602801949350505050565b60208152600082518060208401526200054181604085016020870162000592565b601f01601f19169190910160400192915050565b600082198211156200056b576200056b620005df565b500190565b60008160001904831182151516156200058d576200058d620005df565b500290565b60005b83811015620005af57818101518382015260200162000595565b83811115620005bf576000848401525b50505050565b600081620005d757620005d7620005df565b506000190190565b634e487b7160e01b600052601160045260246000fd5b634e487b7160e01b600052603260045260246000fd5b634e487b7160e01b600052604160045260246000fd5b6118ee80620006316000396000f3fe608060405234801561001057600080fd5b50600436106101e55760003560e01c80636f7bc9be1161010f578063c392f766116100a2578063d547741f11610071578063d547741f1461048b578063d8cae6971461049e578063e120d6b2146104b1578063fb4db895146104bb57600080fd5b8063c392f76614610466578063c72ade2a1461046f578063cfbd01e314610478578063d23595f01461048157600080fd5b80639f5e994d116100de5780639f5e994d14610425578063a217fddf14610438578063af9b6fa614610440578063b6b55f251461045357600080fd5b80636f7bc9be146103ac578063711241bc146103f65780637434715d146103ff57806391d148541461041257600080fd5b806326b387bb1161018757806336568abe1161015657806336568abe1461034b578063491d0a561461035e5780634dfefc4b14610366578063531137231461038957600080fd5b806326b387bb146102dc5780632e1a7d4d146102fc5780632f2ff15d1461030f57806334aedecd1461032457600080fd5b8063150b7a02116101c3578063150b7a02146102465780632071bee61461027d57806321f8f72914610290578063248a9ca3146102b957600080fd5b806301ffc9a7146101ea57806302550e4d146102125780630e91a5a514610233575b600080fd5b6101fd6101f8366004611676565b6104ce565b60405190151581526020015b60405180910390f35b6102256102203660046114f1565b61052f565b604051908152602001610209565b6101fd61024136600461162d565b610556565b61026461025436600461152b565b630a85bd0160e11b949350505050565b6040516001600160e01b03199091168152602001610209565b6101fd61028b36600461162d565b61056d565b61022561029e3660046114f1565b6001600160a01b031660009081526009602052604090205490565b6102256102c736600461162d565b60009081526020819052604090206001015490565b6102256102ea3660046114f1565b600a6020526000908152604090205481565b6101fd61030a36600461162d565b610584565b61032261031d366004611646565b610807565b005b6102257f0914bb97ca83e85ef385857d9d418f187ff630589e0c9f44db92976d8e4519cb81565b610322610359366004611646565b610832565b6102256108b0565b6101fd6103743660046114f1565b600b6020526000908152604090205460ff1681565b6101fd61039736600461162d565b600c6020526000908152604090205460ff1681565b6103db6103ba3660046114f1565b60096020526000908152604090208054600182015460029092015490919083565b60408051938452602084019290925290820152606001610209565b61022560045481565b6101fd61040d3660046114f1565b610931565b6101fd610420366004611646565b610b3a565b6102256104333660046116b9565b610b63565b610225600081565b61022561044e3660046114f1565b610ee8565b6101fd61046136600461162d565b610f0f565b61022560025481565b61022560035481565b61022560015481565b6006546102259081565b610322610499366004611646565b61114f565b6101fd6104ac36600461162d565b611175565b6005546102259081565b6101fd6104c936600461162d565b61118c565b60006001600160e01b03198216635e383d2160e01b14806104ff57506001600160e01b031982166336372b0760e01b145b8061051a57506001600160e01b03198216630a85bd0160e11b145b80610529575061052982611346565b92915050565b6002546001600160a01b03821660009081526009602052604081205490916105299161137b565b60008061056381336113a4565b5050600255600190565b60008061057a81336113a4565b5050600355600190565b336000908152600b602052604081205460ff166105fb5760405162461bcd60e51b815260206004820152602a60248201527f504f4f4c3a20596f757220617265206e6f7420616e20696e766573746f72207260448201526932b3b4b9ba32b932b21760b11b60648201526084015b60405180910390fd5b336000908152600960205260409020600101548211156106765760405162461bcd60e51b815260206004820152603060248201527f504f4f4c3a2056616c7565206f6620746865207769746864726177616c20657860448201526f636565647320796f75722066756e647360801b60648201526084016105f2565b33600090815260096020526040812060020154603c906106969042611800565b6106a091906117bf565b9050600354603c6106b191906117a7565b8110156107175760405162461bcd60e51b815260206004820152602e60248201527f504f4f4c3a20596f75206861766520746f20776169742061667465722074686560448201526d103bb4ba34323930bb903230bc9760911b60648201526084016105f2565b6007546001600160a01b031663a9059cbb336040516001600160e01b031960e084901b1681526001600160a01b03909116600482015260248101869052604401602060405180830381600087803b15801561077157600080fd5b505af1158015610785573d6000803e3d6000fd5b505050506040513d601f19601f820116820180604052508101906107a9919061160b565b5033600090815260096020526040812060010180548592906107cc908490611800565b9091555050604051839033907f884edad9ce6fa2440d8a54cc123490eb96d2768479d49ff9c7366125a942436490600090a350600192915050565b60008281526020819052604090206001015461082381336113a4565b61082d8383611408565b505050565b6001600160a01b03811633146108a25760405162461bcd60e51b815260206004820152602f60248201527f416363657373436f6e74726f6c3a2063616e206f6e6c792072656e6f756e636560448201526e103937b632b9903337b91039b2b63360891b60648201526084016105f2565b6108ac828261148c565b5050565b6007546040516370a0823160e01b81523060048201526000916001600160a01b0316906370a082319060240160206040518083038186803b1580156108f457600080fd5b505afa158015610908573d6000803e3d6000fd5b505050506040513d601f19601f8201168201806040525081019061092c91906116a0565b905090565b60008061093e81336113a4565b6001600160a01b0383163b6109b25760405162461bcd60e51b815260206004820152603460248201527f506f6f6c3a20546865206164647265737320696e736572746564206973206e6f60448201527374206120636f6e7472616374206164647265737360601b60648201526084016105f2565b6040516301ffc9a760e01b8152637434715d60e01b60048201526001600160a01b038416906301ffc9a79060240160206040518083038186803b1580156109f857600080fd5b505afa158015610a0c573d6000803e3d6000fd5b505050506040513d601f19601f82011682018060405250810190610a30919061160b565b610a885760405162461bcd60e51b8152602060048201526024808201527f506f6f6c3a2054686520636f6e7472616374206973206e6f7420636f6d70617460448201526369626c6560e01b60648201526084016105f2565b60085460405163a22cb46560e01b81526001600160a01b038581166004830152600160248301529091169063a22cb46590604401600060405180830381600087803b158015610ad657600080fd5b505af1158015610aea573d6000803e3d6000fd5b50505050826001600160a01b03167fcd85e280fd9797b2e80044170140aa90012fd5130f5a72e2a15846b7cb9223b542604051610b2991815260200190565b60405180910390a250600192915050565b6000918252602082815260408084206001600160a01b0393909316845291905290205460ff1690565b60007f0914bb97ca83e85ef385857d9d418f187ff630589e0c9f44db92976d8e4519cb610b9081336113a4565b60045483610b9c6108b0565b610ba69190611800565b11610c105760405162461bcd60e51b815260206004820152603460248201527f504f4f4c3a2054686520616d6f756e74206c656573207468616e20746865206d60448201527330b933b4b7339037b31034b73b32b9ba34b7339760611b60648201526084016105f2565b600854604051635e383d2160e01b8152600481018690526000916001600160a01b031690635e383d21906024016040805180830381600087803b158015610c5657600080fd5b505af1158015610c6a573d6000803e3d6000fd5b505050506040513d601f19601f82011682018060405250810190610c8e91906116db565b509050808414610cfe5760405162461bcd60e51b815260206004820152603560248201527f504f4f4c3a2054686520616d6f756e74206e6f74206d617463682077697468206044820152741d1bdad95b89dcc81c1c9a58d9481bd9881cd95b1b605a1b60648201526084016105f2565b6008546040516331a9108f60e11b8152600481018790526000916001600160a01b031690636352211e9060240160206040518083038186803b158015610d4357600080fd5b505afa158015610d57573d6000803e3d6000fd5b505050506040513d601f19601f82011682018060405250810190610d7b919061150e565b60075460405163a9059cbb60e01b81526001600160a01b0380841660048301526024820189905292935091169063a9059cbb90604401602060405180830381600087803b158015610dcb57600080fd5b505af1158015610ddf573d6000803e3d6000fd5b505050506040513d601f19601f82011682018060405250810190610e03919061160b565b50600854604051632142170760e11b81526001600160a01b03838116600483015230602483015260448201899052909116906342842e0e90606401600060405180830381600087803b158015610e5857600080fd5b505af1158015610e6c573d6000803e3d6000fd5b5050506000878152600c60205260409020805460ff1916600117905550610e97600580546001019055565b806001600160a01b0316867fef1243131cc4d5c6fd57f61177739b68f2fe5a7ffedb8fc74a856cd8aeb592a387604051610ed391815260200190565b60405180910390a36005549695505050505050565b6001600160a01b038116600090815260096020526040812060020154610529904290611800565b336000908152600b602052604081205460ff16610f3457610f34600680546001019055565b336000908152600a6020526040812080548491908390610f559084906117a7565b9250508190559050600154811015610fbf5760405162461bcd60e51b815260206004820152602760248201527f504f4f4c3a204d696e20696e76657374696e672065786365656473207468652060448201526630b6b7bab73a1760c91b60648201526084016105f2565b6007546001600160a01b03166323b872dd336040516001600160e01b031960e084901b1681526001600160a01b03909116600482015230602482015260448101869052606401602060405180830381600087803b15801561101f57600080fd5b505af1158015611033573d6000803e3d6000fd5b505050506040513d601f19601f82011682018060405250810190611057919061160b565b5060006110666002548361137b565b61107090836117a7565b9050604051806060016040528083815260200182815260200142815250600960006110983390565b6001600160a01b03166001600160a01b031681526020019081526020016000206000820151816000015560208201518160010155604082015181600201559050506001600b60006110e63390565b6001600160a01b031681526020810191909152604001600020805460ff191691151591909117905583336001600160a01b03167fe1fffcc4923d04b559f4d29a8bfc6cda04eb5b0d3c460751c2402c5c5cc9109c60405160405180910390a35060019392505050565b60008281526020819052604090206001015461116b81336113a4565b61082d838361148c565b60008061118281336113a4565b5050600455600190565b60008061119981336113a4565b5050600190815590565b606060006111b28360026117e1565b6111bd9060026117a7565b67ffffffffffffffff8111156111d5576111d561188a565b6040519080825280601f01601f1916602001820160405280156111ff576020820181803683370190505b509050600360fc1b8160008151811061121a5761121a611874565b60200101906001600160f81b031916908160001a905350600f60fb1b8160018151811061124957611249611874565b60200101906001600160f81b031916908160001a905350600061126d8460026117e1565b6112789060016117a7565b90505b60018111156112f0576f181899199a1a9b1b9c1cb0b131b232b360811b85600f16601081106112ac576112ac611874565b1a60f81b8282815181106112c2576112c2611874565b60200101906001600160f81b031916908160001a90535060049490941c936112e981611847565b905061127b565b50831561133f5760405162461bcd60e51b815260206004820181905260248201527f537472696e67733a20686578206c656e67746820696e73756666696369656e7460448201526064016105f2565b9392505050565b60006001600160e01b03198216637965db0b60e01b148061052957506301ffc9a760e01b6001600160e01b0319831614610529565b60008068056bc75e2d6310000061139284866117e1565b61139c91906117bf565b949350505050565b6113ae8282610b3a565b6108ac576113c6816001600160a01b031660146111a3565b6113d18360206111a3565b6040516020016113e29291906116ff565b60408051601f198184030181529082905262461bcd60e51b82526105f291600401611774565b6114128282610b3a565b6108ac576000828152602081815260408083206001600160a01b03851684529091529020805460ff191660011790556114483390565b6001600160a01b0316816001600160a01b0316837f2f8788117e7eff1d82e926ec794901d17c78024a50270940304540a733656f0d60405160405180910390a45050565b6114968282610b3a565b156108ac576000828152602081815260408083206001600160a01b0385168085529252808320805460ff1916905551339285917ff6391f5c32d9c69d2a47ea670b442974b53935d1edc7fd64eb21e047a839171b9190a45050565b60006020828403121561150357600080fd5b813561133f816118a0565b60006020828403121561152057600080fd5b815161133f816118a0565b6000806000806080858703121561154157600080fd5b843561154c816118a0565b9350602085013561155c816118a0565b925060408501359150606085013567ffffffffffffffff8082111561158057600080fd5b818701915087601f83011261159457600080fd5b8135818111156115a6576115a661188a565b604051601f8201601f19908116603f011681019083821181831017156115ce576115ce61188a565b816040528281528a60208487010111156115e757600080fd5b82602086016020830137600060208483010152809550505050505092959194509250565b60006020828403121561161d57600080fd5b8151801515811461133f57600080fd5b60006020828403121561163f57600080fd5b5035919050565b6000806040838503121561165957600080fd5b82359150602083013561166b816118a0565b809150509250929050565b60006020828403121561168857600080fd5b81356001600160e01b03198116811461133f57600080fd5b6000602082840312156116b257600080fd5b5051919050565b600080604083850312156116cc57600080fd5b50508035926020909101359150565b600080604083850312156116ee57600080fd5b505080516020909101519092909150565b7f416363657373436f6e74726f6c3a206163636f756e7420000000000000000000815260008351611737816017850160208801611817565b7001034b99036b4b9b9b4b733903937b6329607d1b6017918401918201528351611768816028840160208801611817565b01602801949350505050565b6020815260008251806020840152611793816040850160208701611817565b601f01601f19169190910160400192915050565b600082198211156117ba576117ba61185e565b500190565b6000826117dc57634e487b7160e01b600052601260045260246000fd5b500490565b60008160001904831182151516156117fb576117fb61185e565b500290565b6000828210156118125761181261185e565b500390565b60005b8381101561183257818101518382015260200161181a565b83811115611841576000848401525b50505050565b6000816118565761185661185e565b506000190190565b634e487b7160e01b600052601160045260246000fd5b634e487b7160e01b600052603260045260246000fd5b634e487b7160e01b600052604160045260246000fd5b6001600160a01b03811681146118b557600080fd5b5056fea26469706673582212204f16fff7aa6ff5abc083b7dd32838f62251f66b2883284fcdd566de84174463564736f6c63430008060033",
    "sourcePath": "d:/Trabajo/0-Reservafs/Proyectos/DIF PROJECT/Code/DIF Alpha/contracts/Pool.sol",
    "compiler": {
        "name": "solc",
        "version": "0.8.6+commit.11564f7e"
    },
    "functionHashes": {
        "DEFAULT_ADMIN_ROLE()": "a217fddf",
        "FUNDER_ROLE()": "34aedecd",
        "_changedMarketPlace(address)": "7434715d",
        "_interest(uint256)": "0e91a5a5",
        "_liquidity()": "491d0a56",
        "_marginInvestment(uint256)": "d8cae697",
        "_minInvesting(uint256)": "fb4db895",
        "_numberOfInvestment()": "e120d6b2",
        "_numberOfInvestors()": "d23595f0",
        "_stakingDays(uint256)": "2071bee6",
        "deposit(uint256)": "b6b55f25",
        "exist(address)": "4dfefc4b",
        "financed(uint256)": "53113723",
        "funding(uint256,uint256)": "9f5e994d",
        "getRoleAdmin(bytes32)": "248a9ca3",
        "grantRole(bytes32,address)": "2f2ff15d",
        "hasRole(bytes32,address)": "91d14854",
        "interest()": "c392f766",
        "investingOf(address)": "21f8f729",
        "investors(address)": "6f7bc9be",
        "marginInvestment()": "711241bc",
        "minInvesting()": "cfbd01e3",
        "onERC721Received(address,address,uint256,bytes)": "150b7a02",
        "pendingReturns(address)": "26b387bb",
        "profit(address)": "02550e4d",
        "renounceRole(bytes32,address)": "36568abe",
        "revokeRole(bytes32,address)": "d547741f",
        "showRemainingTimeToWithdraw(address)": "af9b6fa6",
        "stakingDays()": "c72ade2a",
        "supportsInterface(bytes4)": "01ffc9a7",
        "withdraw(uint256)": "2e1a7d4d"
    },
    "gasEstimates": {
        "creation": {
            "codeDepositCost": "1276400",
            "executionCost": "infinite",
            "totalCost": "infinite"
        },
        "external": {
            "DEFAULT_ADMIN_ROLE()": "262",
            "FUNDER_ROLE()": "307",
            "_changedMarketPlace(address)": "infinite",
            "_interest(uint256)": "infinite",
            "_liquidity()": "infinite",
            "_marginInvestment(uint256)": "infinite",
            "_minInvesting(uint256)": "infinite",
            "_numberOfInvestment()": "2386",
            "_numberOfInvestors()": "2409",
            "_stakingDays(uint256)": "infinite",
            "deposit(uint256)": "infinite",
            "exist(address)": "2603",
            "financed(uint256)": "2550",
            "funding(uint256,uint256)": "infinite",
            "getRoleAdmin(bytes32)": "2559",
            "grantRole(bytes32,address)": "infinite",
            "hasRole(bytes32,address)": "2762",
            "interest()": "2340",
            "investingOf(address)": "2621",
            "investors(address)": "6834",
            "marginInvestment()": "2363",
            "minInvesting()": "2384",
            "onERC721Received(address,address,uint256,bytes)": "infinite",
            "pendingReturns(address)": "2559",
            "profit(address)": "4933",
            "renounceRole(bytes32,address)": "29039",
            "revokeRole(bytes32,address)": "infinite",
            "showRemainingTimeToWithdraw(address)": "2717",
            "stakingDays()": "2362",
            "supportsInterface(bytes4)": "infinite",
            "withdraw(uint256)": "infinite"
        },
        "internal": {
            "_profit(uint256,uint256)": "184"
        }
    }
}