{
  "contractName": "DebtLidquidator",
  "abi": [
    {
      "inputs": [
        {
          "internalType": "address",
          "name": "_currency",
          "type": "address"
        },
        {
          "internalType": "address",
          "name": "_nft",
          "type": "address"
        },
        {
          "internalType": "address",
          "name": "_pool",
          "type": "address"
        }
      ],
      "stateMutability": "nonpayable",
      "type": "constructor"
    },
    {
      "anonymous": false,
      "inputs": [
        {
          "indexed": true,
          "internalType": "address",
          "name": "buyer",
          "type": "address"
        },
        {
          "indexed": false,
          "internalType": "uint256",
          "name": "tokenId",
          "type": "uint256"
        }
      ],
      "name": "LiquidatedDebt",
      "type": "event"
    },
    {
      "inputs": [],
      "name": "burnAddress",
      "outputs": [
        {
          "internalType": "address",
          "name": "",
          "type": "address"
        }
      ],
      "stateMutability": "view",
      "type": "function"
    },
    {
      "inputs": [
        {
          "internalType": "address",
          "name": "",
          "type": "address"
        },
        {
          "internalType": "uint256",
          "name": "",
          "type": "uint256"
        }
      ],
      "name": "liquidatedDebts",
      "outputs": [
        {
          "internalType": "uint256",
          "name": "",
          "type": "uint256"
        }
      ],
      "stateMutability": "view",
      "type": "function"
    },
    {
      "inputs": [
        {
          "internalType": "bytes4",
          "name": "interfaceId",
          "type": "bytes4"
        }
      ],
      "name": "supportsInterface",
      "outputs": [
        {
          "internalType": "bool",
          "name": "",
          "type": "bool"
        }
      ],
      "stateMutability": "view",
      "type": "function"
    },
    {
      "inputs": [
        {
          "internalType": "uint256",
          "name": "_tokenId",
          "type": "uint256"
        },
        {
          "internalType": "uint256",
          "name": "_value",
          "type": "uint256"
        }
      ],
      "name": "pay",
      "outputs": [
        {
          "internalType": "bool",
          "name": "",
          "type": "bool"
        }
      ],
      "stateMutability": "nonpayable",
      "type": "function"
    }
  ],
  "bytecode": "0x608060405234801561001057600080fd5b50604051610bbf380380610bbf83398181016040528101906100329190610111565b826000806101000a81548173ffffffffffffffffffffffffffffffffffffffff021916908373ffffffffffffffffffffffffffffffffffffffff16021790555081600160006101000a81548173ffffffffffffffffffffffffffffffffffffffff021916908373ffffffffffffffffffffffffffffffffffffffff16021790555080600260006101000a81548173ffffffffffffffffffffffffffffffffffffffff021916908373ffffffffffffffffffffffffffffffffffffffff1602179055505050506101a9565b60008151905061010b81610192565b92915050565b60008060006060848603121561012657600080fd5b6000610134868287016100fc565b9350506020610145868287016100fc565b9250506040610156868287016100fc565b9150509250925092565b600061016b82610172565b9050919050565b600073ffffffffffffffffffffffffffffffffffffffff82169050919050565b61019b81610160565b81146101a657600080fd5b50565b610a07806101b86000396000f3fe608060405234801561001057600080fd5b506004361061004c5760003560e01c806301ffc9a71461005157806370d5ae05146100815780639a50d8491461009f578063ef48eee6146100cf575b600080fd5b61006b600480360381019061006691906106ee565b6100ff565b604051610078919061089a565b60405180910390f35b610089610249565b6040516100969190610848565b60405180910390f35b6100b960048036038101906100b49190610689565b61024e565b6040516100c691906108d5565b60405180910390f35b6100e960048036038101906100e49190610717565b61027f565b6040516100f6919061089a565b60405180910390f35b60007f36372b07000000000000000000000000000000000000000000000000000000007bffffffffffffffffffffffffffffffffffffffffffffffffffffffff1916827bffffffffffffffffffffffffffffffffffffffffffffffffffffffff191614806101ca57507f5f40c31e000000000000000000000000000000000000000000000000000000007bffffffffffffffffffffffffffffffffffffffffffffffffffffffff1916827bffffffffffffffffffffffffffffffffffffffffffffffffffffffff1916145b8061023257507ffe00845b000000000000000000000000000000000000000000000000000000007bffffffffffffffffffffffffffffffffffffffffffffffffffffffff1916827bffffffffffffffffffffffffffffffffffffffffffffffffffffffff1916145b806102425750610241826105b6565b5b9050919050565b600181565b6003602052816000526040600020818154811061026a57600080fd5b90600052602060002001600091509150505481565b600080600160009054906101000a900473ffffffffffffffffffffffffffffffffffffffff1673ffffffffffffffffffffffffffffffffffffffff16635e383d21856040518263ffffffff1660e01b81526004016102dd91906108d5565b604080518083038186803b1580156102f457600080fd5b505afa158015610308573d6000803e3d6000fd5b505050506040513d601f19601f8201168201806040525081019061032c9190610753565b915050828114610371576040517f08c379a0000000000000000000000000000000000000000000000000000000008152600401610368906108b5565b60405180910390fd5b60008054906101000a900473ffffffffffffffffffffffffffffffffffffffff1673ffffffffffffffffffffffffffffffffffffffff166323b872dd33600260009054906101000a900473ffffffffffffffffffffffffffffffffffffffff16866040518463ffffffff1660e01b81526004016103f093929190610863565b602060405180830381600087803b15801561040a57600080fd5b505af115801561041e573d6000803e3d6000fd5b505050506040513d601f19601f8201168201806040525081019061044291906106c5565b50600160009054906101000a900473ffffffffffffffffffffffffffffffffffffffff1673ffffffffffffffffffffffffffffffffffffffff166323b872dd600260009054906101000a900473ffffffffffffffffffffffffffffffffffffffff166001876040518463ffffffff1660e01b81526004016104c593929190610863565b600060405180830381600087803b1580156104df57600080fd5b505af11580156104f3573d6000803e3d6000fd5b50505050600360003373ffffffffffffffffffffffffffffffffffffffff1673ffffffffffffffffffffffffffffffffffffffff1681526020019081526020016000208490806001815401808255809150506001900390600052602060002001600090919091909150553373ffffffffffffffffffffffffffffffffffffffff167f39a0c6451f2e8066977800eb1b6872ce07fd7fb769c2e4dc61df2de34b662b7f856040516105a391906108d5565b60405180910390a2600191505092915050565b60007f01ffc9a7000000000000000000000000000000000000000000000000000000007bffffffffffffffffffffffffffffffffffffffffffffffffffffffff1916827bffffffffffffffffffffffffffffffffffffffffffffffffffffffff1916149050919050565b60008135905061062f81610975565b92915050565b6000815190506106448161098c565b92915050565b600081359050610659816109a3565b92915050565b60008135905061066e816109ba565b92915050565b600081519050610683816109ba565b92915050565b6000806040838503121561069c57600080fd5b60006106aa85828601610620565b92505060206106bb8582860161065f565b9150509250929050565b6000602082840312156106d757600080fd5b60006106e584828501610635565b91505092915050565b60006020828403121561070057600080fd5b600061070e8482850161064a565b91505092915050565b6000806040838503121561072a57600080fd5b60006107388582860161065f565b92505060206107498582860161065f565b9150509250929050565b6000806040838503121561076657600080fd5b600061077485828601610674565b925050602061078585828601610674565b9150509250929050565b61079881610901565b82525050565b6107a781610913565b82525050565b60006107ba604a836108f0565b91507f4d61726b6574706c6163653a205468652076616c7565207468617420796f752060008301527f74727920746f20706179206e6f74206d6174636820776974682074686520766160208301527f6c7565206f66204e4654000000000000000000000000000000000000000000006040830152606082019050919050565b6108428161096b565b82525050565b600060208201905061085d600083018461078f565b92915050565b6000606082019050610878600083018661078f565b610885602083018561078f565b6108926040830184610839565b949350505050565b60006020820190506108af600083018461079e565b92915050565b600060208201905081810360008301526108ce816107ad565b9050919050565b60006020820190506108ea6000830184610839565b92915050565b600082825260208201905092915050565b600061090c8261094b565b9050919050565b60008115159050919050565b60007fffffffff0000000000000000000000000000000000000000000000000000000082169050919050565b600073ffffffffffffffffffffffffffffffffffffffff82169050919050565b6000819050919050565b61097e81610901565b811461098957600080fd5b50565b61099581610913565b81146109a057600080fd5b50565b6109ac8161091f565b81146109b757600080fd5b50565b6109c38161096b565b81146109ce57600080fd5b5056fea26469706673582212206703f79c489253e7a36675f003c36af82b5d1147c16931676228f235472451ef64736f6c63430008000033",
  "immutableReferences": {},
  "source": "// SPDX-License-Identifier: MIT\npragma solidity >=0.8.0 <0.9.0;\n\nimport \"@openzeppelin/contracts/token/ERC20/IERC20.sol\";\nimport \"@openzeppelin/contracts/utils/introspection/ERC165.sol\";\nimport \"./INFT_Factory.sol\";\n\n\ninterface IPool {\n   function _changedDebtLiquidator(address dl) external returns (bool);\n}\n\ncontract DebtLidquidator is ERC165{\n  IERC20 currency;\n  INFT_Factory nft;\n  address pool;\n  address public constant burnAddress = 0x0000000000000000000000000000000000000001;\n\n  mapping (address => uint256[]) public liquidatedDebts;\n  event LiquidatedDebt(address indexed buyer, uint256 tokenId);\n\n  constructor(address _currency, address _nft, address _pool) {\n    currency = IERC20(_currency);\n    nft = INFT_Factory(_nft);\n    pool = _pool;\n  }\n\n  function supportsInterface(bytes4 interfaceId) public view virtual override returns (bool) {\n        return interfaceId == type(IERC20).interfaceId\n            || interfaceId == type(INFT_Factory).interfaceId \n            || interfaceId == type(IPool).interfaceId || super.supportsInterface(interfaceId);\n  }\n\n  function pay(uint256 _tokenId, uint256 _value) public virtual returns (bool){\n    (, uint256 valueOfNFT) = nft.values(_tokenId);\n    require(valueOfNFT == _value, \"Marketplace: The value that you try to pay not match with the value of NFT\");\n    //use approve function from web3 to allow the transaction\n    currency.transferFrom(msg.sender, pool, _value);\n    nft.transferFrom(pool, burnAddress, _tokenId);\n    liquidatedDebts[msg.sender].push(_tokenId);\n    emit LiquidatedDebt(msg.sender, _tokenId);\n    return true;\n  }\n  \n}\n\n",
  "sourcePath": "/home/peter/Documents/Reserva/0-Reservafs/Proyectos/DIF_PROJECT/Code/DIF Alpha/contracts/DebtLiquidator.sol",
  "compiler": {
    "name": "solc",
    "version": "0.8.0+commit.c7dfd78e.Emscripten.clang"
  },
  "schemaVersion": "3.4.3",
  "updatedAt": "2021-10-01T04:41:18.305Z",
  "devdoc": {
    "kind": "dev",
    "methods": {
      "supportsInterface(bytes4)": {
        "details": "See {IERC165-supportsInterface}."
      }
    },
    "version": 1
  },
  "userdoc": {
    "kind": "user",
    "methods": {},
    "version": 1
  }
}