{
  "contractName": "MarketPlace",
  "abi": [
    {
      "inputs": [
        {
          "internalType": "address",
          "name": "_currency",
          "type": "address"
        },
        {
          "internalType": "address",
          "name": "_nft",
          "type": "address"
        },
        {
          "internalType": "address",
          "name": "_pool",
          "type": "address"
        }
      ],
      "stateMutability": "nonpayable",
      "type": "constructor"
    },
    {
      "anonymous": false,
      "inputs": [
        {
          "indexed": true,
          "internalType": "address",
          "name": "buyer",
          "type": "address"
        },
        {
          "indexed": false,
          "internalType": "uint256",
          "name": "tokenId",
          "type": "uint256"
        }
      ],
      "name": "LiquidatedDebt",
      "type": "event"
    },
    {
      "inputs": [
        {
          "internalType": "address",
          "name": "",
          "type": "address"
        },
        {
          "internalType": "uint256",
          "name": "",
          "type": "uint256"
        }
      ],
      "name": "liquidatedDebts",
      "outputs": [
        {
          "internalType": "uint256",
          "name": "",
          "type": "uint256"
        }
      ],
      "stateMutability": "view",
      "type": "function"
    },
    {
      "inputs": [
        {
          "internalType": "bytes4",
          "name": "interfaceId",
          "type": "bytes4"
        }
      ],
      "name": "supportsInterface",
      "outputs": [
        {
          "internalType": "bool",
          "name": "",
          "type": "bool"
        }
      ],
      "stateMutability": "view",
      "type": "function"
    },
    {
      "inputs": [
        {
          "internalType": "uint256",
          "name": "_tokenId",
          "type": "uint256"
        },
        {
          "internalType": "uint256",
          "name": "_value",
          "type": "uint256"
        }
      ],
      "name": "pay",
      "outputs": [
        {
          "internalType": "bool",
          "name": "",
          "type": "bool"
        }
      ],
      "stateMutability": "nonpayable",
      "type": "function"
    }
  ],
  "bytecode": "0x608060405234801561001057600080fd5b50604051610bd5380380610bd583398181016040528101906100329190610111565b826000806101000a81548173ffffffffffffffffffffffffffffffffffffffff021916908373ffffffffffffffffffffffffffffffffffffffff16021790555081600160006101000a81548173ffffffffffffffffffffffffffffffffffffffff021916908373ffffffffffffffffffffffffffffffffffffffff16021790555080600260006101000a81548173ffffffffffffffffffffffffffffffffffffffff021916908373ffffffffffffffffffffffffffffffffffffffff1602179055505050506101a9565b60008151905061010b81610192565b92915050565b60008060006060848603121561012657600080fd5b6000610134868287016100fc565b9350506020610145868287016100fc565b9250506040610156868287016100fc565b9150509250925092565b600061016b82610172565b9050919050565b600073ffffffffffffffffffffffffffffffffffffffff82169050919050565b61019b81610160565b81146101a657600080fd5b50565b610a1d806101b86000396000f3fe608060405234801561001057600080fd5b50600436106100415760003560e01c806301ffc9a7146100465780639a50d84914610076578063ef48eee6146100a6575b600080fd5b610060600480360381019061005b919061071f565b6100d6565b60405161006d91906108b0565b60405180910390f35b610090600480360381019061008b91906106ba565b6101b8565b60405161009d91906108eb565b60405180910390f35b6100c060048036038101906100bb9190610748565b6101e9565b6040516100cd91906108b0565b60405180910390f35b60007f36372b07000000000000000000000000000000000000000000000000000000007bffffffffffffffffffffffffffffffffffffffffffffffffffffffff1916827bffffffffffffffffffffffffffffffffffffffffffffffffffffffff191614806101a157507f5e383d21000000000000000000000000000000000000000000000000000000007bffffffffffffffffffffffffffffffffffffffffffffffffffffffff1916827bffffffffffffffffffffffffffffffffffffffffffffffffffffffff1916145b806101b157506101b0826105a9565b5b9050919050565b600360205281600052604060002081815481106101d457600080fd5b90600052602060002001600091509150505481565b600080600160009054906101000a900473ffffffffffffffffffffffffffffffffffffffff1673ffffffffffffffffffffffffffffffffffffffff16635e383d21856040518263ffffffff1660e01b815260040161024791906108eb565b6040805180830381600087803b15801561026057600080fd5b505af1158015610274573d6000803e3d6000fd5b505050506040513d601f19601f820116820180604052508101906102989190610784565b9150508281146102dd576040517f08c379a00000000000000000000000000000000000000000000000000000000081526004016102d4906108cb565b60405180910390fd5b60008054906101000a900473ffffffffffffffffffffffffffffffffffffffff1673ffffffffffffffffffffffffffffffffffffffff166323b872dd33600260009054906101000a900473ffffffffffffffffffffffffffffffffffffffff16866040518463ffffffff1660e01b815260040161035c93929190610879565b602060405180830381600087803b15801561037657600080fd5b505af115801561038a573d6000803e3d6000fd5b505050506040513d601f19601f820116820180604052508101906103ae91906106f6565b50600160009054906101000a900473ffffffffffffffffffffffffffffffffffffffff1673ffffffffffffffffffffffffffffffffffffffff166323b872dd600160009054906101000a900473ffffffffffffffffffffffffffffffffffffffff1673ffffffffffffffffffffffffffffffffffffffff16636352211e876040518263ffffffff1660e01b815260040161044891906108eb565b60206040518083038186803b15801561046057600080fd5b505afa158015610474573d6000803e3d6000fd5b505050506040513d601f19601f820116820180604052508101906104989190610691565b33876040518463ffffffff1660e01b81526004016104b893929190610879565b600060405180830381600087803b1580156104d257600080fd5b505af11580156104e6573d6000803e3d6000fd5b50505050600360003373ffffffffffffffffffffffffffffffffffffffff1673ffffffffffffffffffffffffffffffffffffffff1681526020019081526020016000208490806001815401808255809150506001900390600052602060002001600090919091909150553373ffffffffffffffffffffffffffffffffffffffff167f39a0c6451f2e8066977800eb1b6872ce07fd7fb769c2e4dc61df2de34b662b7f8560405161059691906108eb565b60405180910390a2600191505092915050565b60007f01ffc9a7000000000000000000000000000000000000000000000000000000007bffffffffffffffffffffffffffffffffffffffffffffffffffffffff1916827bffffffffffffffffffffffffffffffffffffffffffffffffffffffff1916149050919050565b6000813590506106228161098b565b92915050565b6000815190506106378161098b565b92915050565b60008151905061064c816109a2565b92915050565b600081359050610661816109b9565b92915050565b600081359050610676816109d0565b92915050565b60008151905061068b816109d0565b92915050565b6000602082840312156106a357600080fd5b60006106b184828501610628565b91505092915050565b600080604083850312156106cd57600080fd5b60006106db85828601610613565b92505060206106ec85828601610667565b9150509250929050565b60006020828403121561070857600080fd5b60006107168482850161063d565b91505092915050565b60006020828403121561073157600080fd5b600061073f84828501610652565b91505092915050565b6000806040838503121561075b57600080fd5b600061076985828601610667565b925050602061077a85828601610667565b9150509250929050565b6000806040838503121561079757600080fd5b60006107a58582860161067c565b92505060206107b68582860161067c565b9150509250929050565b6107c981610917565b82525050565b6107d881610929565b82525050565b60006107eb604a83610906565b91507f4d61726b6574706c6163653a205468652076616c7565207468617420796f752060008301527f74727920746f20706179206e6f74206d6174636820776974682074686520766160208301527f6c7565206f66204e4654000000000000000000000000000000000000000000006040830152606082019050919050565b61087381610981565b82525050565b600060608201905061088e60008301866107c0565b61089b60208301856107c0565b6108a8604083018461086a565b949350505050565b60006020820190506108c560008301846107cf565b92915050565b600060208201905081810360008301526108e4816107de565b9050919050565b6000602082019050610900600083018461086a565b92915050565b600082825260208201905092915050565b600061092282610961565b9050919050565b60008115159050919050565b60007fffffffff0000000000000000000000000000000000000000000000000000000082169050919050565b600073ffffffffffffffffffffffffffffffffffffffff82169050919050565b6000819050919050565b61099481610917565b811461099f57600080fd5b50565b6109ab81610929565b81146109b657600080fd5b50565b6109c281610935565b81146109cd57600080fd5b50565b6109d981610981565b81146109e457600080fd5b5056fea2646970667358221220adc97fbe8a645156336e3153ddd433e27b28c55a8c476dc70bf6732b7b0fa43b64736f6c63430008000033",
  "immutableReferences": {},
  "source": "// SPDX-License-Identifier: MIT\npragma solidity >=0.8.0 <0.9.0;\n\nimport \"@openzeppelin/contracts/token/ERC20/IERC20.sol\";\nimport \"@openzeppelin/contracts/utils/introspection/ERC165.sol\";\nimport \"./INFT_Factory.sol\";\n\ncontract MarketPlace is ERC165{\n  IERC20 currency;\n  INFT_Factory nft;\n  address pool;\n\n\n  mapping (address => uint256[]) public liquidatedDebts;\n  event LiquidatedDebt(address indexed buyer, uint256 tokenId);\n\n  constructor(address _currency, address _nft, address _pool) {\n    currency = IERC20(_currency);\n    nft = INFT_Factory(_nft);\n    pool = _pool;\n  }\n\n  function supportsInterface(bytes4 interfaceId) public view virtual override returns (bool) {\n        return interfaceId == type(IERC20).interfaceId\n            || interfaceId == type(INFT_Factory).interfaceId || super.supportsInterface(interfaceId);\n  }\n\n  function pay(uint256 _tokenId, uint256 _value) public virtual returns (bool){\n    (, uint256 valueOfNFT) = nft.values(_tokenId);\n    require(valueOfNFT == _value, \"Marketplace: The value that you try to pay not match with the value of NFT\");\n    currency.transferFrom(msg.sender, pool, _value);\n    nft.transferFrom(nft.ownerOf(_tokenId), msg.sender, _tokenId);\n    liquidatedDebts[msg.sender].push(_tokenId);\n    emit LiquidatedDebt(msg.sender, _tokenId);\n    return true;\n  }\n  \n}\n\n",
  "sourcePath": "D:/Trabajo/0-Reservafs/Proyectos/DIF PROJECT/Code/DIF Alpha/contracts/Marketplace.sol",
  "compiler": {
    "name": "solc",
    "version": "0.8.0+commit.c7dfd78e.Emscripten.clang"
  },
  "schemaVersion": "3.3.4",
  "updatedAt": "2021-08-07T02:26:31.523Z",
  "devdoc": {
    "kind": "dev",
    "methods": {
      "supportsInterface(bytes4)": {
        "details": "See {IERC165-supportsInterface}."
      }
    },
    "version": 1
  },
  "userdoc": {
    "kind": "user",
    "methods": {},
    "version": 1
  }
}