{
  "contractName": "MarketPlace",
  "abi": [
    {
      "inputs": [
        {
          "internalType": "address",
          "name": "_currency",
          "type": "address"
        },
        {
          "internalType": "address",
          "name": "_nft",
          "type": "address"
        },
        {
          "internalType": "address",
          "name": "_pool",
          "type": "address"
        }
      ],
      "stateMutability": "nonpayable",
      "type": "constructor"
    },
    {
      "anonymous": false,
      "inputs": [
        {
          "indexed": true,
          "internalType": "address",
          "name": "buyer",
          "type": "address"
        },
        {
          "indexed": false,
          "internalType": "uint256",
          "name": "tokenId",
          "type": "uint256"
        }
      ],
      "name": "LiquidatedDebt",
      "type": "event"
    },
    {
      "inputs": [
        {
          "internalType": "address",
          "name": "",
          "type": "address"
        },
        {
          "internalType": "uint256",
          "name": "",
          "type": "uint256"
        }
      ],
      "name": "liquidatedDebts",
      "outputs": [
        {
          "internalType": "uint256",
          "name": "",
          "type": "uint256"
        }
      ],
      "stateMutability": "view",
      "type": "function",
      "constant": true
    },
    {
      "inputs": [
        {
          "internalType": "bytes4",
          "name": "interfaceId",
          "type": "bytes4"
        }
      ],
      "name": "supportsInterface",
      "outputs": [
        {
          "internalType": "bool",
          "name": "",
          "type": "bool"
        }
      ],
      "stateMutability": "view",
      "type": "function",
      "constant": true
    },
    {
      "inputs": [
        {
          "internalType": "uint256",
          "name": "_tokenId",
          "type": "uint256"
        },
        {
          "internalType": "uint256",
          "name": "_value",
          "type": "uint256"
        }
      ],
      "name": "pay",
      "outputs": [
        {
          "internalType": "bool",
          "name": "",
          "type": "bool"
        }
      ],
      "stateMutability": "nonpayable",
      "type": "function"
    }
  ],
  "bytecode": "0x608060405234801561001057600080fd5b50604051610b77380380610b7783398181016040528101906100329190610111565b826000806101000a81548173ffffffffffffffffffffffffffffffffffffffff021916908373ffffffffffffffffffffffffffffffffffffffff16021790555081600160006101000a81548173ffffffffffffffffffffffffffffffffffffffff021916908373ffffffffffffffffffffffffffffffffffffffff16021790555080600260006101000a81548173ffffffffffffffffffffffffffffffffffffffff021916908373ffffffffffffffffffffffffffffffffffffffff1602179055505050506101a9565b60008151905061010b81610192565b92915050565b60008060006060848603121561012657600080fd5b6000610134868287016100fc565b9350506020610145868287016100fc565b9250506040610156868287016100fc565b9150509250925092565b600061016b82610172565b9050919050565b600073ffffffffffffffffffffffffffffffffffffffff82169050919050565b61019b81610160565b81146101a657600080fd5b50565b6109bf806101b86000396000f3fe608060405234801561001057600080fd5b50600436106100415760003560e01c806301ffc9a7146100465780639a50d84914610076578063ef48eee6146100a6575b600080fd5b610060600480360381019061005b91906106c1565b6100d6565b60405161006d9190610852565b60405180910390f35b610090600480360381019061008b919061065c565b610220565b60405161009d919061088d565b60405180910390f35b6100c060048036038101906100bb91906106ea565b610251565b6040516100cd9190610852565b60405180910390f35b60007f36372b07000000000000000000000000000000000000000000000000000000007bffffffffffffffffffffffffffffffffffffffffffffffffffffffff1916827bffffffffffffffffffffffffffffffffffffffffffffffffffffffff191614806101a157507f5e383d21000000000000000000000000000000000000000000000000000000007bffffffffffffffffffffffffffffffffffffffffffffffffffffffff1916827bffffffffffffffffffffffffffffffffffffffffffffffffffffffff1916145b8061020957507f7434715d000000000000000000000000000000000000000000000000000000007bffffffffffffffffffffffffffffffffffffffffffffffffffffffff1916827bffffffffffffffffffffffffffffffffffffffffffffffffffffffff1916145b80610219575061021882610589565b5b9050919050565b6003602052816000526040600020818154811061023c57600080fd5b90600052602060002001600091509150505481565b600080600160009054906101000a900473ffffffffffffffffffffffffffffffffffffffff1673ffffffffffffffffffffffffffffffffffffffff16635e383d21856040518263ffffffff1660e01b81526004016102af919061088d565b6040805180830381600087803b1580156102c857600080fd5b505af11580156102dc573d6000803e3d6000fd5b505050506040513d601f19601f820116820180604052508101906103009190610726565b915050828114610345576040517f08c379a000000000000000000000000000000000000000000000000000000000815260040161033c9061086d565b60405180910390fd5b60008054906101000a900473ffffffffffffffffffffffffffffffffffffffff1673ffffffffffffffffffffffffffffffffffffffff166323b872dd33600260009054906101000a900473ffffffffffffffffffffffffffffffffffffffff16866040518463ffffffff1660e01b81526004016103c49392919061081b565b602060405180830381600087803b1580156103de57600080fd5b505af11580156103f2573d6000803e3d6000fd5b505050506040513d601f19601f820116820180604052508101906104169190610698565b50600160009054906101000a900473ffffffffffffffffffffffffffffffffffffffff1673ffffffffffffffffffffffffffffffffffffffff166323b872dd600260009054906101000a900473ffffffffffffffffffffffffffffffffffffffff1633876040518463ffffffff1660e01b81526004016104989392919061081b565b600060405180830381600087803b1580156104b257600080fd5b505af11580156104c6573d6000803e3d6000fd5b50505050600360003373ffffffffffffffffffffffffffffffffffffffff1673ffffffffffffffffffffffffffffffffffffffff1681526020019081526020016000208490806001815401808255809150506001900390600052602060002001600090919091909150553373ffffffffffffffffffffffffffffffffffffffff167f39a0c6451f2e8066977800eb1b6872ce07fd7fb769c2e4dc61df2de34b662b7f85604051610576919061088d565b60405180910390a2600191505092915050565b60007f01ffc9a7000000000000000000000000000000000000000000000000000000007bffffffffffffffffffffffffffffffffffffffffffffffffffffffff1916827bffffffffffffffffffffffffffffffffffffffffffffffffffffffff1916149050919050565b6000813590506106028161092d565b92915050565b60008151905061061781610944565b92915050565b60008135905061062c8161095b565b92915050565b60008135905061064181610972565b92915050565b60008151905061065681610972565b92915050565b6000806040838503121561066f57600080fd5b600061067d858286016105f3565b925050602061068e85828601610632565b9150509250929050565b6000602082840312156106aa57600080fd5b60006106b884828501610608565b91505092915050565b6000602082840312156106d357600080fd5b60006106e18482850161061d565b91505092915050565b600080604083850312156106fd57600080fd5b600061070b85828601610632565b925050602061071c85828601610632565b9150509250929050565b6000806040838503121561073957600080fd5b600061074785828601610647565b925050602061075885828601610647565b9150509250929050565b61076b816108b9565b82525050565b61077a816108cb565b82525050565b600061078d604a836108a8565b91507f4d61726b6574706c6163653a205468652076616c7565207468617420796f752060008301527f74727920746f20706179206e6f74206d6174636820776974682074686520766160208301527f6c7565206f66204e4654000000000000000000000000000000000000000000006040830152606082019050919050565b61081581610923565b82525050565b60006060820190506108306000830186610762565b61083d6020830185610762565b61084a604083018461080c565b949350505050565b60006020820190506108676000830184610771565b92915050565b6000602082019050818103600083015261088681610780565b9050919050565b60006020820190506108a2600083018461080c565b92915050565b600082825260208201905092915050565b60006108c482610903565b9050919050565b60008115159050919050565b60007fffffffff0000000000000000000000000000000000000000000000000000000082169050919050565b600073ffffffffffffffffffffffffffffffffffffffff82169050919050565b6000819050919050565b610936816108b9565b811461094157600080fd5b50565b61094d816108cb565b811461095857600080fd5b50565b610964816108d7565b811461096f57600080fd5b50565b61097b81610923565b811461098657600080fd5b5056fea2646970667358221220114ac76a9f09b4a3f709bde51d8f553e9152b257f71773d4f430e5efd5e4f60864736f6c63430008000033",
  "immutableReferences": {},
  "source": "// SPDX-License-Identifier: MIT\npragma solidity >=0.8.0 <0.9.0;\n\nimport \"@openzeppelin/contracts/token/ERC20/IERC20.sol\";\nimport \"@openzeppelin/contracts/utils/introspection/ERC165.sol\";\nimport \"./INFT_Factory.sol\";\n\n\ninterface IPool {\n   function _changedMarketPlace(address mp) external returns (bool);\n}\n\ncontract MarketPlace is ERC165{\n  IERC20 currency;\n  INFT_Factory nft;\n  address pool;\n\n\n  mapping (address => uint256[]) public liquidatedDebts;\n  event LiquidatedDebt(address indexed buyer, uint256 tokenId);\n\n  constructor(address _currency, address _nft, address _pool) {\n    currency = IERC20(_currency);\n    nft = INFT_Factory(_nft);\n    pool = _pool;\n  }\n\n  function supportsInterface(bytes4 interfaceId) public view virtual override returns (bool) {\n        return interfaceId == type(IERC20).interfaceId\n            || interfaceId == type(INFT_Factory).interfaceId \n            || interfaceId == type(IPool).interfaceId || super.supportsInterface(interfaceId);\n  }\n\n  function pay(uint256 _tokenId, uint256 _value) public virtual returns (bool){\n    (, uint256 valueOfNFT) = nft.values(_tokenId);\n    require(valueOfNFT == _value, \"Marketplace: The value that you try to pay not match with the value of NFT\");\n    currency.transferFrom(msg.sender, pool, _value);\n    nft.transferFrom(pool, msg.sender, _tokenId);\n    liquidatedDebts[msg.sender].push(_tokenId);\n    emit LiquidatedDebt(msg.sender, _tokenId);\n    return true;\n  }\n  \n}\n\n",
  "sourcePath": "D:/Trabajo/0-Reservafs/Proyectos/DIF PROJECT/Code/DIF Alpha/contracts/Marketplace.sol",
  "compiler": {
    "name": "solc",
    "version": "0.8.0+commit.c7dfd78e.Emscripten.clang"
  },
  "schemaVersion": "3.3.4",
  "updatedAt": "2021-08-11T02:57:59.794Z",
  "networkType": "ethereum",
  "devdoc": {
    "kind": "dev",
    "methods": {
      "supportsInterface(bytes4)": {
        "details": "See {IERC165-supportsInterface}."
      }
    },
    "version": 1
  },
  "userdoc": {
    "kind": "user",
    "methods": {},
    "version": 1
  }
}