{
  "contractName": "NFT_Factory",
  "abi": [
    {
      "inputs": [],
      "stateMutability": "nonpayable",
      "type": "constructor"
    },
    {
      "anonymous": false,
      "inputs": [
        {
          "indexed": true,
          "internalType": "address",
          "name": "owner",
          "type": "address"
        },
        {
          "indexed": true,
          "internalType": "address",
          "name": "approved",
          "type": "address"
        },
        {
          "indexed": true,
          "internalType": "uint256",
          "name": "tokenId",
          "type": "uint256"
        }
      ],
      "name": "Approval",
      "type": "event"
    },
    {
      "anonymous": false,
      "inputs": [
        {
          "indexed": true,
          "internalType": "address",
          "name": "owner",
          "type": "address"
        },
        {
          "indexed": true,
          "internalType": "address",
          "name": "operator",
          "type": "address"
        },
        {
          "indexed": false,
          "internalType": "bool",
          "name": "approved",
          "type": "bool"
        }
      ],
      "name": "ApprovalForAll",
      "type": "event"
    },
    {
      "anonymous": false,
      "inputs": [
        {
          "indexed": true,
          "internalType": "bytes32",
          "name": "role",
          "type": "bytes32"
        },
        {
          "indexed": true,
          "internalType": "bytes32",
          "name": "previousAdminRole",
          "type": "bytes32"
        },
        {
          "indexed": true,
          "internalType": "bytes32",
          "name": "newAdminRole",
          "type": "bytes32"
        }
      ],
      "name": "RoleAdminChanged",
      "type": "event"
    },
    {
      "anonymous": false,
      "inputs": [
        {
          "indexed": true,
          "internalType": "bytes32",
          "name": "role",
          "type": "bytes32"
        },
        {
          "indexed": true,
          "internalType": "address",
          "name": "account",
          "type": "address"
        },
        {
          "indexed": true,
          "internalType": "address",
          "name": "sender",
          "type": "address"
        }
      ],
      "name": "RoleGranted",
      "type": "event"
    },
    {
      "anonymous": false,
      "inputs": [
        {
          "indexed": true,
          "internalType": "bytes32",
          "name": "role",
          "type": "bytes32"
        },
        {
          "indexed": true,
          "internalType": "address",
          "name": "account",
          "type": "address"
        },
        {
          "indexed": true,
          "internalType": "address",
          "name": "sender",
          "type": "address"
        }
      ],
      "name": "RoleRevoked",
      "type": "event"
    },
    {
      "anonymous": false,
      "inputs": [
        {
          "indexed": true,
          "internalType": "address",
          "name": "from",
          "type": "address"
        },
        {
          "indexed": true,
          "internalType": "address",
          "name": "to",
          "type": "address"
        },
        {
          "indexed": true,
          "internalType": "uint256",
          "name": "tokenId",
          "type": "uint256"
        }
      ],
      "name": "Transfer",
      "type": "event"
    },
    {
      "inputs": [],
      "name": "DEFAULT_ADMIN_ROLE",
      "outputs": [
        {
          "internalType": "bytes32",
          "name": "",
          "type": "bytes32"
        }
      ],
      "stateMutability": "view",
      "type": "function",
      "constant": true
    },
    {
      "inputs": [],
      "name": "_tokenIds",
      "outputs": [
        {
          "internalType": "uint256",
          "name": "_value",
          "type": "uint256"
        }
      ],
      "stateMutability": "view",
      "type": "function",
      "constant": true
    },
    {
      "inputs": [
        {
          "internalType": "address",
          "name": "to",
          "type": "address"
        },
        {
          "internalType": "uint256",
          "name": "tokenId",
          "type": "uint256"
        }
      ],
      "name": "approve",
      "outputs": [],
      "stateMutability": "nonpayable",
      "type": "function"
    },
    {
      "inputs": [
        {
          "internalType": "address",
          "name": "owner",
          "type": "address"
        }
      ],
      "name": "balanceOf",
      "outputs": [
        {
          "internalType": "uint256",
          "name": "",
          "type": "uint256"
        }
      ],
      "stateMutability": "view",
      "type": "function",
      "constant": true
    },
    {
      "inputs": [
        {
          "internalType": "uint256",
          "name": "tokenId",
          "type": "uint256"
        }
      ],
      "name": "getApproved",
      "outputs": [
        {
          "internalType": "address",
          "name": "",
          "type": "address"
        }
      ],
      "stateMutability": "view",
      "type": "function",
      "constant": true
    },
    {
      "inputs": [
        {
          "internalType": "bytes32",
          "name": "role",
          "type": "bytes32"
        }
      ],
      "name": "getRoleAdmin",
      "outputs": [
        {
          "internalType": "bytes32",
          "name": "",
          "type": "bytes32"
        }
      ],
      "stateMutability": "view",
      "type": "function",
      "constant": true
    },
    {
      "inputs": [
        {
          "internalType": "bytes32",
          "name": "role",
          "type": "bytes32"
        },
        {
          "internalType": "address",
          "name": "account",
          "type": "address"
        }
      ],
      "name": "grantRole",
      "outputs": [],
      "stateMutability": "nonpayable",
      "type": "function"
    },
    {
      "inputs": [
        {
          "internalType": "bytes32",
          "name": "role",
          "type": "bytes32"
        },
        {
          "internalType": "address",
          "name": "account",
          "type": "address"
        }
      ],
      "name": "hasRole",
      "outputs": [
        {
          "internalType": "bool",
          "name": "",
          "type": "bool"
        }
      ],
      "stateMutability": "view",
      "type": "function",
      "constant": true
    },
    {
      "inputs": [
        {
          "internalType": "address",
          "name": "owner",
          "type": "address"
        },
        {
          "internalType": "address",
          "name": "operator",
          "type": "address"
        }
      ],
      "name": "isApprovedForAll",
      "outputs": [
        {
          "internalType": "bool",
          "name": "",
          "type": "bool"
        }
      ],
      "stateMutability": "view",
      "type": "function",
      "constant": true
    },
    {
      "inputs": [],
      "name": "name",
      "outputs": [
        {
          "internalType": "string",
          "name": "",
          "type": "string"
        }
      ],
      "stateMutability": "view",
      "type": "function",
      "constant": true
    },
    {
      "inputs": [
        {
          "internalType": "uint256",
          "name": "tokenId",
          "type": "uint256"
        }
      ],
      "name": "ownerOf",
      "outputs": [
        {
          "internalType": "address",
          "name": "",
          "type": "address"
        }
      ],
      "stateMutability": "view",
      "type": "function",
      "constant": true
    },
    {
      "inputs": [
        {
          "internalType": "bytes32",
          "name": "role",
          "type": "bytes32"
        },
        {
          "internalType": "address",
          "name": "account",
          "type": "address"
        }
      ],
      "name": "renounceRole",
      "outputs": [],
      "stateMutability": "nonpayable",
      "type": "function"
    },
    {
      "inputs": [
        {
          "internalType": "bytes32",
          "name": "role",
          "type": "bytes32"
        },
        {
          "internalType": "address",
          "name": "account",
          "type": "address"
        }
      ],
      "name": "revokeRole",
      "outputs": [],
      "stateMutability": "nonpayable",
      "type": "function"
    },
    {
      "inputs": [
        {
          "internalType": "address",
          "name": "from",
          "type": "address"
        },
        {
          "internalType": "address",
          "name": "to",
          "type": "address"
        },
        {
          "internalType": "uint256",
          "name": "tokenId",
          "type": "uint256"
        }
      ],
      "name": "safeTransferFrom",
      "outputs": [],
      "stateMutability": "nonpayable",
      "type": "function"
    },
    {
      "inputs": [
        {
          "internalType": "address",
          "name": "from",
          "type": "address"
        },
        {
          "internalType": "address",
          "name": "to",
          "type": "address"
        },
        {
          "internalType": "uint256",
          "name": "tokenId",
          "type": "uint256"
        },
        {
          "internalType": "bytes",
          "name": "_data",
          "type": "bytes"
        }
      ],
      "name": "safeTransferFrom",
      "outputs": [],
      "stateMutability": "nonpayable",
      "type": "function"
    },
    {
      "inputs": [
        {
          "internalType": "address",
          "name": "operator",
          "type": "address"
        },
        {
          "internalType": "bool",
          "name": "approved",
          "type": "bool"
        }
      ],
      "name": "setApprovalForAll",
      "outputs": [],
      "stateMutability": "nonpayable",
      "type": "function"
    },
    {
      "inputs": [],
      "name": "symbol",
      "outputs": [
        {
          "internalType": "string",
          "name": "",
          "type": "string"
        }
      ],
      "stateMutability": "view",
      "type": "function",
      "constant": true
    },
    {
      "inputs": [
        {
          "internalType": "uint256",
          "name": "tokenId",
          "type": "uint256"
        }
      ],
      "name": "tokenURI",
      "outputs": [
        {
          "internalType": "string",
          "name": "",
          "type": "string"
        }
      ],
      "stateMutability": "view",
      "type": "function",
      "constant": true
    },
    {
      "inputs": [
        {
          "internalType": "address",
          "name": "from",
          "type": "address"
        },
        {
          "internalType": "address",
          "name": "to",
          "type": "address"
        },
        {
          "internalType": "uint256",
          "name": "tokenId",
          "type": "uint256"
        }
      ],
      "name": "transferFrom",
      "outputs": [],
      "stateMutability": "nonpayable",
      "type": "function"
    },
    {
      "inputs": [
        {
          "internalType": "uint256",
          "name": "",
          "type": "uint256"
        }
      ],
      "name": "values",
      "outputs": [
        {
          "internalType": "uint256",
          "name": "priceOfSell",
          "type": "uint256"
        },
        {
          "internalType": "uint256",
          "name": "valueOfNFT",
          "type": "uint256"
        }
      ],
      "stateMutability": "view",
      "type": "function",
      "constant": true
    },
    {
      "inputs": [
        {
          "internalType": "bytes4",
          "name": "interfaceId",
          "type": "bytes4"
        }
      ],
      "name": "supportsInterface",
      "outputs": [
        {
          "internalType": "bool",
          "name": "",
          "type": "bool"
        }
      ],
      "stateMutability": "view",
      "type": "function",
      "constant": true
    },
    {
      "inputs": [
        {
          "internalType": "string",
          "name": "tokenURI",
          "type": "string"
        },
        {
          "internalType": "address",
          "name": "recipient",
          "type": "address"
        },
        {
          "internalType": "uint256",
          "name": "_priceOfSell",
          "type": "uint256"
        },
        {
          "internalType": "uint256",
          "name": "_valueOfNFT",
          "type": "uint256"
        }
      ],
      "name": "createInvoice",
      "outputs": [
        {
          "internalType": "uint256",
          "name": "",
          "type": "uint256"
        }
      ],
      "stateMutability": "nonpayable",
      "type": "function"
    }
  ],
  "bytecode": "0x60806040523480156200001157600080fd5b506040518060400160405280601f81526020017f446563656e7472616c697a656420496e766f69636520466163746f72696e67008152506040518060400160405280600381526020017f444946000000000000000000000000000000000000000000000000000000000081525081600090805190602001906200009692919062000248565b508060019080519060200190620000af92919062000248565b505050620000c76000801b33620000cd60201b60201c565b6200035d565b620000df8282620000e360201b60201c565b5050565b620000f58282620001d560201b60201c565b620001d15760016007600084815260200190815260200160002060000160008373ffffffffffffffffffffffffffffffffffffffff1673ffffffffffffffffffffffffffffffffffffffff16815260200190815260200160002060006101000a81548160ff021916908315150217905550620001766200024060201b60201c565b73ffffffffffffffffffffffffffffffffffffffff168173ffffffffffffffffffffffffffffffffffffffff16837f2f8788117e7eff1d82e926ec794901d17c78024a50270940304540a733656f0d60405160405180910390a45b5050565b60006007600084815260200190815260200160002060000160008373ffffffffffffffffffffffffffffffffffffffff1673ffffffffffffffffffffffffffffffffffffffff16815260200190815260200160002060009054906101000a900460ff16905092915050565b600033905090565b8280546200025690620002f8565b90600052602060002090601f0160209004810192826200027a5760008555620002c6565b82601f106200029557805160ff1916838001178555620002c6565b82800160010185558215620002c6579182015b82811115620002c5578251825591602001919060010190620002a8565b5b509050620002d59190620002d9565b5090565b5b80821115620002f4576000816000905550600101620002da565b5090565b600060028204905060018216806200031157607f821691505b602082108114156200032857620003276200032e565b5b50919050565b7f4e487b7100000000000000000000000000000000000000000000000000000000600052602260045260246000fd5b61362d806200036d6000396000f3fe608060405234801561001057600080fd5b50600436106101425760003560e01c80636352211e116100b8578063a22cb4651161007c578063a22cb465146103ae578063aa46a400146103ca578063b88d4fde146103e8578063c87b56dd14610404578063d547741f14610434578063e985e9c51461045057610142565b80636352211e146102e257806370a082311461031257806391d148541461034257806395d89b4114610372578063a217fddf1461039057610142565b8063248a9ca31161010a578063248a9ca3146101fd5780632f2ff15d1461022d57806336568abe1461024957806342842e0e146102655780634ccce8d7146102815780635e383d21146102b157610142565b806301ffc9a71461014757806306fdde0314610177578063081812fc14610195578063095ea7b3146101c557806323b872dd146101e1575b600080fd5b610161600480360381019061015c9190612484565b610480565b60405161016e9190612e41565b60405180910390f35b61017f610512565b60405161018c9190612e92565b60405180910390f35b6101af60048036038101906101aa9190612551565b6105a4565b6040516101bc9190612dda565b60405180910390f35b6101df60048036038101906101da91906123ba565b610629565b005b6101fb60048036038101906101f691906122b4565b610741565b005b6102176004803603810190610212919061241f565b6107a1565b6040516102249190612e5c565b60405180910390f35b61024760048036038101906102429190612448565b6107c1565b005b610263600480360381019061025e9190612448565b6107ea565b005b61027f600480360381019061027a91906122b4565b61086d565b005b61029b600480360381019061029691906124d6565b61088d565b6040516102a891906130f4565b60405180910390f35b6102cb60048036038101906102c69190612551565b61091c565b6040516102d992919061310f565b60405180910390f35b6102fc60048036038101906102f79190612551565b610940565b6040516103099190612dda565b60405180910390f35b61032c6004803603810190610327919061224f565b6109f2565b60405161033991906130f4565b60405180910390f35b61035c60048036038101906103579190612448565b610aaa565b6040516103699190612e41565b60405180910390f35b61037a610b15565b6040516103879190612e92565b60405180910390f35b610398610ba7565b6040516103a59190612e5c565b60405180910390f35b6103c860048036038101906103c3919061237e565b610bae565b005b6103d2610d2f565b6040516103df91906130f4565b60405180910390f35b61040260048036038101906103fd9190612303565b610d3b565b005b61041e60048036038101906104199190612551565b610d9d565b60405161042b9190612e92565b60405180910390f35b61044e60048036038101906104499190612448565b610eef565b005b61046a60048036038101906104659190612278565b610f18565b6040516104779190612e41565b60405180910390f35b60003073ffffffffffffffffffffffffffffffffffffffff166301ffc9a7836040518263ffffffff1660e01b81526004016104bb9190612e77565b60206040518083038186803b1580156104d357600080fd5b505afa1580156104e7573d6000803e3d6000fd5b505050506040513d601f19601f8201168201806040525081019061050b91906123f6565b9050919050565b6060600080546105219061340b565b80601f016020809104026020016040519081016040528092919081815260200182805461054d9061340b565b801561059a5780601f1061056f5761010080835404028352916020019161059a565b820191906000526020600020905b81548152906001019060200180831161057d57829003601f168201915b5050505050905090565b60006105af82610fac565b6105ee576040517f08c379a00000000000000000000000000000000000000000000000000000000081526004016105e590613034565b60405180910390fd5b6004600083815260200190815260200160002060009054906101000a900473ffffffffffffffffffffffffffffffffffffffff169050919050565b600061063482610940565b90508073ffffffffffffffffffffffffffffffffffffffff168373ffffffffffffffffffffffffffffffffffffffff1614156106a5576040517f08c379a000000000000000000000000000000000000000000000000000000000815260040161069c90613094565b60405180910390fd5b8073ffffffffffffffffffffffffffffffffffffffff166106c4611018565b73ffffffffffffffffffffffffffffffffffffffff1614806106f357506106f2816106ed611018565b610f18565b5b610732576040517f08c379a000000000000000000000000000000000000000000000000000000000815260040161072990612f74565b60405180910390fd5b61073c8383611020565b505050565b61075261074c611018565b826110d9565b610791576040517f08c379a0000000000000000000000000000000000000000000000000000000008152600401610788906130b4565b60405180910390fd5b61079c8383836111b7565b505050565b600060076000838152602001908152602001600020600101549050919050565b6107ca826107a1565b6107db816107d6611018565b611413565b6107e583836114b0565b505050565b6107f2611018565b73ffffffffffffffffffffffffffffffffffffffff168173ffffffffffffffffffffffffffffffffffffffff161461085f576040517f08c379a0000000000000000000000000000000000000000000000000000000008152600401610856906130d4565b60405180910390fd5b6108698282611591565b5050565b61088883838360405180602001604052806000815250610d3b565b505050565b60008060001b6108a48161089f611018565b611413565b6108ae6008611673565b60006108ba6008611689565b90506108c68682611697565b6108d08188611865565b6040518060400160405280868152602001858152506009600083815260200190815260200160002060008201518160000155602082015181600101559050508092505050949350505050565b60096020528060005260406000206000915090508060000154908060010154905082565b6000806002600084815260200190815260200160002060009054906101000a900473ffffffffffffffffffffffffffffffffffffffff169050600073ffffffffffffffffffffffffffffffffffffffff168173ffffffffffffffffffffffffffffffffffffffff1614156109e9576040517f08c379a00000000000000000000000000000000000000000000000000000000081526004016109e090612fb4565b60405180910390fd5b80915050919050565b60008073ffffffffffffffffffffffffffffffffffffffff168273ffffffffffffffffffffffffffffffffffffffff161415610a63576040517f08c379a0000000000000000000000000000000000000000000000000000000008152600401610a5a90612f94565b60405180910390fd5b600360008373ffffffffffffffffffffffffffffffffffffffff1673ffffffffffffffffffffffffffffffffffffffff168152602001908152602001600020549050919050565b60006007600084815260200190815260200160002060000160008373ffffffffffffffffffffffffffffffffffffffff1673ffffffffffffffffffffffffffffffffffffffff16815260200190815260200160002060009054906101000a900460ff16905092915050565b606060018054610b249061340b565b80601f0160208091040260200160405190810160405280929190818152602001828054610b509061340b565b8015610b9d5780601f10610b7257610100808354040283529160200191610b9d565b820191906000526020600020905b815481529060010190602001808311610b8057829003601f168201915b5050505050905090565b6000801b81565b610bb6611018565b73ffffffffffffffffffffffffffffffffffffffff168273ffffffffffffffffffffffffffffffffffffffff161415610c24576040517f08c379a0000000000000000000000000000000000000000000000000000000008152600401610c1b90612f34565b60405180910390fd5b8060056000610c31611018565b73ffffffffffffffffffffffffffffffffffffffff1673ffffffffffffffffffffffffffffffffffffffff16815260200190815260200160002060008473ffffffffffffffffffffffffffffffffffffffff1673ffffffffffffffffffffffffffffffffffffffff16815260200190815260200160002060006101000a81548160ff0219169083151502179055508173ffffffffffffffffffffffffffffffffffffffff16610cde611018565b73ffffffffffffffffffffffffffffffffffffffff167f17307eab39ab6107e8899845ad3d59bd9653f200f220920489ca2b5937696c3183604051610d239190612e41565b60405180910390a35050565b60088060000154905081565b610d4c610d46611018565b836110d9565b610d8b576040517f08c379a0000000000000000000000000000000000000000000000000000000008152600401610d82906130b4565b60405180910390fd5b610d97848484846118d9565b50505050565b6060610da882610fac565b610de7576040517f08c379a0000000000000000000000000000000000000000000000000000000008152600401610dde90613014565b60405180910390fd5b6000600660008481526020019081526020016000208054610e079061340b565b80601f0160208091040260200160405190810160405280929190818152602001828054610e339061340b565b8015610e805780601f10610e5557610100808354040283529160200191610e80565b820191906000526020600020905b815481529060010190602001808311610e6357829003601f168201915b505050505090506000610e91611935565b9050600081511415610ea7578192505050610eea565b600082511115610edc578082604051602001610ec4929190612d7c565b60405160208183030381529060405292505050610eea565b610ee58461194c565b925050505b919050565b610ef8826107a1565b610f0981610f04611018565b611413565b610f138383611591565b505050565b6000600560008473ffffffffffffffffffffffffffffffffffffffff1673ffffffffffffffffffffffffffffffffffffffff16815260200190815260200160002060008373ffffffffffffffffffffffffffffffffffffffff1673ffffffffffffffffffffffffffffffffffffffff16815260200190815260200160002060009054906101000a900460ff16905092915050565b60008073ffffffffffffffffffffffffffffffffffffffff166002600084815260200190815260200160002060009054906101000a900473ffffffffffffffffffffffffffffffffffffffff1673ffffffffffffffffffffffffffffffffffffffff1614159050919050565b600033905090565b816004600083815260200190815260200160002060006101000a81548173ffffffffffffffffffffffffffffffffffffffff021916908373ffffffffffffffffffffffffffffffffffffffff160217905550808273ffffffffffffffffffffffffffffffffffffffff1661109383610940565b73ffffffffffffffffffffffffffffffffffffffff167f8c5be1e5ebec7d5bd14f71427d1e84f3dd0314c0f7b2291e5b200ac8c7c3b92560405160405180910390a45050565b60006110e482610fac565b611123576040517f08c379a000000000000000000000000000000000000000000000000000000000815260040161111a90612f54565b60405180910390fd5b600061112e83610940565b90508073ffffffffffffffffffffffffffffffffffffffff168473ffffffffffffffffffffffffffffffffffffffff16148061119d57508373ffffffffffffffffffffffffffffffffffffffff16611185846105a4565b73ffffffffffffffffffffffffffffffffffffffff16145b806111ae57506111ad8185610f18565b5b91505092915050565b8273ffffffffffffffffffffffffffffffffffffffff166111d782610940565b73ffffffffffffffffffffffffffffffffffffffff161461122d576040517f08c379a000000000000000000000000000000000000000000000000000000000815260040161122490613054565b60405180910390fd5b600073ffffffffffffffffffffffffffffffffffffffff168273ffffffffffffffffffffffffffffffffffffffff16141561129d576040517f08c379a000000000000000000000000000000000000000000000000000000000815260040161129490612f14565b60405180910390fd5b6112a88383836119f3565b6112b3600082611020565b6001600360008573ffffffffffffffffffffffffffffffffffffffff1673ffffffffffffffffffffffffffffffffffffffff168152602001908152602001600020600082825461130391906132ed565b925050819055506001600360008473ffffffffffffffffffffffffffffffffffffffff1673ffffffffffffffffffffffffffffffffffffffff168152602001908152602001600020600082825461135a919061320c565b92505081905550816002600083815260200190815260200160002060006101000a81548173ffffffffffffffffffffffffffffffffffffffff021916908373ffffffffffffffffffffffffffffffffffffffff160217905550808273ffffffffffffffffffffffffffffffffffffffff168473ffffffffffffffffffffffffffffffffffffffff167fddf252ad1be2c89b69c2b068fc378daa952ba7f163c4a11628f55a4df523b3ef60405160405180910390a4505050565b61141d8282610aaa565b6114ac576114428173ffffffffffffffffffffffffffffffffffffffff1660146119f8565b6114508360001c60206119f8565b604051602001611461929190612da0565b6040516020818303038152906040526040517f08c379a00000000000000000000000000000000000000000000000000000000081526004016114a39190612e92565b60405180910390fd5b5050565b6114ba8282610aaa565b61158d5760016007600084815260200190815260200160002060000160008373ffffffffffffffffffffffffffffffffffffffff1673ffffffffffffffffffffffffffffffffffffffff16815260200190815260200160002060006101000a81548160ff021916908315150217905550611532611018565b73ffffffffffffffffffffffffffffffffffffffff168173ffffffffffffffffffffffffffffffffffffffff16837f2f8788117e7eff1d82e926ec794901d17c78024a50270940304540a733656f0d60405160405180910390a45b5050565b61159b8282610aaa565b1561166f5760006007600084815260200190815260200160002060000160008373ffffffffffffffffffffffffffffffffffffffff1673ffffffffffffffffffffffffffffffffffffffff16815260200190815260200160002060006101000a81548160ff021916908315150217905550611614611018565b73ffffffffffffffffffffffffffffffffffffffff168173ffffffffffffffffffffffffffffffffffffffff16837ff6391f5c32d9c69d2a47ea670b442974b53935d1edc7fd64eb21e047a839171b60405160405180910390a45b5050565b6001816000016000828254019250508190555050565b600081600001549050919050565b600073ffffffffffffffffffffffffffffffffffffffff168273ffffffffffffffffffffffffffffffffffffffff161415611707576040517f08c379a00000000000000000000000000000000000000000000000000000000081526004016116fe90612ff4565b60405180910390fd5b61171081610fac565b15611750576040517f08c379a000000000000000000000000000000000000000000000000000000000815260040161174790612ef4565b60405180910390fd5b61175c600083836119f3565b6001600360008473ffffffffffffffffffffffffffffffffffffffff1673ffffffffffffffffffffffffffffffffffffffff16815260200190815260200160002060008282546117ac919061320c565b92505081905550816002600083815260200190815260200160002060006101000a81548173ffffffffffffffffffffffffffffffffffffffff021916908373ffffffffffffffffffffffffffffffffffffffff160217905550808273ffffffffffffffffffffffffffffffffffffffff16600073ffffffffffffffffffffffffffffffffffffffff167fddf252ad1be2c89b69c2b068fc378daa952ba7f163c4a11628f55a4df523b3ef60405160405180910390a45050565b61186e82610fac565b6118ad576040517f08c379a00000000000000000000000000000000000000000000000000000000081526004016118a490612fd4565b60405180910390fd5b806006600084815260200190815260200160002090805190602001906118d4929190612049565b505050565b6118e48484846111b7565b6118f084848484611cf2565b61192f576040517f08c379a000000000000000000000000000000000000000000000000000000000815260040161192690612ed4565b60405180910390fd5b50505050565b606060405180602001604052806000815250905090565b606061195782610fac565b611996576040517f08c379a000000000000000000000000000000000000000000000000000000000815260040161198d90613074565b60405180910390fd5b60006119a0611935565b905060008151116119c057604051806020016040528060008152506119eb565b806119ca84611e89565b6040516020016119db929190612d7c565b6040516020818303038152906040525b915050919050565b505050565b606060006002836002611a0b9190613293565b611a15919061320c565b67ffffffffffffffff811115611a54577f4e487b7100000000000000000000000000000000000000000000000000000000600052604160045260246000fd5b6040519080825280601f01601f191660200182016040528015611a865781602001600182028036833780820191505090505b5090507f300000000000000000000000000000000000000000000000000000000000000081600081518110611ae4577f4e487b7100000000000000000000000000000000000000000000000000000000600052603260045260246000fd5b60200101907effffffffffffffffffffffffffffffffffffffffffffffffffffffffffffff1916908160001a9053507f780000000000000000000000000000000000000000000000000000000000000081600181518110611b6e577f4e487b7100000000000000000000000000000000000000000000000000000000600052603260045260246000fd5b60200101907effffffffffffffffffffffffffffffffffffffffffffffffffffffffffffff1916908160001a90535060006001846002611bae9190613293565b611bb8919061320c565b90505b6001811115611ca4577f3031323334353637383961626364656600000000000000000000000000000000600f861660108110611c20577f4e487b7100000000000000000000000000000000000000000000000000000000600052603260045260246000fd5b1a60f81b828281518110611c5d577f4e487b7100000000000000000000000000000000000000000000000000000000600052603260045260246000fd5b60200101907effffffffffffffffffffffffffffffffffffffffffffffffffffffffffffff1916908160001a905350600485901c945080611c9d906133e1565b9050611bbb565b5060008414611ce8576040517f08c379a0000000000000000000000000000000000000000000000000000000008152600401611cdf90612eb4565b60405180910390fd5b8091505092915050565b6000611d138473ffffffffffffffffffffffffffffffffffffffff16612036565b15611e7c578373ffffffffffffffffffffffffffffffffffffffff1663150b7a02611d3c611018565b8786866040518563ffffffff1660e01b8152600401611d5e9493929190612df5565b602060405180830381600087803b158015611d7857600080fd5b505af1925050508015611da957506040513d601f19601f82011682018060405250810190611da691906124ad565b60015b611e2c573d8060008114611dd9576040519150601f19603f3d011682016040523d82523d6000602084013e611dde565b606091505b50600081511415611e24576040517f08c379a0000000000000000000000000000000000000000000000000000000008152600401611e1b90612ed4565b60405180910390fd5b805181602001fd5b63150b7a0260e01b7bffffffffffffffffffffffffffffffffffffffffffffffffffffffff1916817bffffffffffffffffffffffffffffffffffffffffffffffffffffffff191614915050611e81565b600190505b949350505050565b60606000821415611ed1576040518060400160405280600181526020017f30000000000000000000000000000000000000000000000000000000000000008152509050612031565b600082905060005b60008214611f03578080611eec9061343d565b915050600a82611efc9190613262565b9150611ed9565b60008167ffffffffffffffff811115611f45577f4e487b7100000000000000000000000000000000000000000000000000000000600052604160045260246000fd5b6040519080825280601f01601f191660200182016040528015611f775781602001600182028036833780820191505090505b5090505b6000851461202a57600182611f9091906132ed565b9150600a85611f9f9190613486565b6030611fab919061320c565b60f81b818381518110611fe7577f4e487b7100000000000000000000000000000000000000000000000000000000600052603260045260246000fd5b60200101907effffffffffffffffffffffffffffffffffffffffffffffffffffffffffffff1916908160001a905350600a856120239190613262565b9450611f7b565b8093505050505b919050565b600080823b905060008111915050919050565b8280546120559061340b565b90600052602060002090601f01602090048101928261207757600085556120be565b82601f1061209057805160ff19168380011785556120be565b828001600101855582156120be579182015b828111156120bd5782518255916020019190600101906120a2565b5b5090506120cb91906120cf565b5090565b5b808211156120e85760008160009055506001016120d0565b5090565b60006120ff6120fa84613169565b613138565b90508281526020810184848401111561211757600080fd5b61212284828561339f565b509392505050565b600061213d61213884613199565b613138565b90508281526020810184848401111561215557600080fd5b61216084828561339f565b509392505050565b60008135905061217781613584565b92915050565b60008135905061218c8161359b565b92915050565b6000815190506121a18161359b565b92915050565b6000813590506121b6816135b2565b92915050565b6000813590506121cb816135c9565b92915050565b6000815190506121e0816135c9565b92915050565b600082601f8301126121f757600080fd5b81356122078482602086016120ec565b91505092915050565b600082601f83011261222157600080fd5b813561223184826020860161212a565b91505092915050565b600081359050612249816135e0565b92915050565b60006020828403121561226157600080fd5b600061226f84828501612168565b91505092915050565b6000806040838503121561228b57600080fd5b600061229985828601612168565b92505060206122aa85828601612168565b9150509250929050565b6000806000606084860312156122c957600080fd5b60006122d786828701612168565b93505060206122e886828701612168565b92505060406122f98682870161223a565b9150509250925092565b6000806000806080858703121561231957600080fd5b600061232787828801612168565b945050602061233887828801612168565b93505060406123498782880161223a565b925050606085013567ffffffffffffffff81111561236657600080fd5b612372878288016121e6565b91505092959194509250565b6000806040838503121561239157600080fd5b600061239f85828601612168565b92505060206123b08582860161217d565b9150509250929050565b600080604083850312156123cd57600080fd5b60006123db85828601612168565b92505060206123ec8582860161223a565b9150509250929050565b60006020828403121561240857600080fd5b600061241684828501612192565b91505092915050565b60006020828403121561243157600080fd5b600061243f848285016121a7565b91505092915050565b6000806040838503121561245b57600080fd5b6000612469858286016121a7565b925050602061247a85828601612168565b9150509250929050565b60006020828403121561249657600080fd5b60006124a4848285016121bc565b91505092915050565b6000602082840312156124bf57600080fd5b60006124cd848285016121d1565b91505092915050565b600080600080608085870312156124ec57600080fd5b600085013567ffffffffffffffff81111561250657600080fd5b61251287828801612210565b945050602061252387828801612168565b93505060406125348782880161223a565b92505060606125458782880161223a565b91505092959194509250565b60006020828403121561256357600080fd5b60006125718482850161223a565b91505092915050565b61258381613321565b82525050565b61259281613333565b82525050565b6125a18161333f565b82525050565b6125b081613349565b82525050565b60006125c1826131c9565b6125cb81856131df565b93506125db8185602086016133ae565b6125e481613573565b840191505092915050565b60006125fa826131d4565b61260481856131f0565b93506126148185602086016133ae565b61261d81613573565b840191505092915050565b6000612633826131d4565b61263d8185613201565b935061264d8185602086016133ae565b80840191505092915050565b60006126666020836131f0565b91507f537472696e67733a20686578206c656e67746820696e73756666696369656e746000830152602082019050919050565b60006126a66032836131f0565b91507f4552433732313a207472616e7366657220746f206e6f6e20455243373231526560008301527f63656976657220696d706c656d656e74657200000000000000000000000000006020830152604082019050919050565b600061270c601c836131f0565b91507f4552433732313a20746f6b656e20616c7265616479206d696e746564000000006000830152602082019050919050565b600061274c6024836131f0565b91507f4552433732313a207472616e7366657220746f20746865207a65726f2061646460008301527f72657373000000000000000000000000000000000000000000000000000000006020830152604082019050919050565b60006127b26019836131f0565b91507f4552433732313a20617070726f766520746f2063616c6c6572000000000000006000830152602082019050919050565b60006127f2602c836131f0565b91507f4552433732313a206f70657261746f7220717565727920666f72206e6f6e657860008301527f697374656e7420746f6b656e00000000000000000000000000000000000000006020830152604082019050919050565b60006128586038836131f0565b91507f4552433732313a20617070726f76652063616c6c6572206973206e6f74206f7760008301527f6e6572206e6f7220617070726f76656420666f7220616c6c00000000000000006020830152604082019050919050565b60006128be602a836131f0565b91507f4552433732313a2062616c616e636520717565727920666f7220746865207a6560008301527f726f2061646472657373000000000000000000000000000000000000000000006020830152604082019050919050565b60006129246029836131f0565b91507f4552433732313a206f776e657220717565727920666f72206e6f6e657869737460008301527f656e7420746f6b656e00000000000000000000000000000000000000000000006020830152604082019050919050565b600061298a602e836131f0565b91507f45524337323155524953746f726167653a2055524920736574206f66206e6f6e60008301527f6578697374656e7420746f6b656e0000000000000000000000000000000000006020830152604082019050919050565b60006129f06020836131f0565b91507f4552433732313a206d696e7420746f20746865207a65726f20616464726573736000830152602082019050919050565b6000612a306031836131f0565b91507f45524337323155524953746f726167653a2055524920717565727920666f722060008301527f6e6f6e6578697374656e7420746f6b656e0000000000000000000000000000006020830152604082019050919050565b6000612a96602c836131f0565b91507f4552433732313a20617070726f76656420717565727920666f72206e6f6e657860008301527f697374656e7420746f6b656e00000000000000000000000000000000000000006020830152604082019050919050565b6000612afc6029836131f0565b91507f4552433732313a207472616e73666572206f6620746f6b656e2074686174206960008301527f73206e6f74206f776e00000000000000000000000000000000000000000000006020830152604082019050919050565b6000612b62602f836131f0565b91507f4552433732314d657461646174613a2055524920717565727920666f72206e6f60008301527f6e6578697374656e7420746f6b656e00000000000000000000000000000000006020830152604082019050919050565b6000612bc86021836131f0565b91507f4552433732313a20617070726f76616c20746f2063757272656e74206f776e6560008301527f72000000000000000000000000000000000000000000000000000000000000006020830152604082019050919050565b6000612c2e6031836131f0565b91507f4552433732313a207472616e736665722063616c6c6572206973206e6f74206f60008301527f776e6572206e6f7220617070726f7665640000000000000000000000000000006020830152604082019050919050565b6000612c94601783613201565b91507f416363657373436f6e74726f6c3a206163636f756e74200000000000000000006000830152601782019050919050565b6000612cd4601183613201565b91507f206973206d697373696e6720726f6c65200000000000000000000000000000006000830152601182019050919050565b6000612d14602f836131f0565b91507f416363657373436f6e74726f6c3a2063616e206f6e6c792072656e6f756e636560008301527f20726f6c657320666f722073656c6600000000000000000000000000000000006020830152604082019050919050565b612d7681613395565b82525050565b6000612d888285612628565b9150612d948284612628565b91508190509392505050565b6000612dab82612c87565b9150612db78285612628565b9150612dc282612cc7565b9150612dce8284612628565b91508190509392505050565b6000602082019050612def600083018461257a565b92915050565b6000608082019050612e0a600083018761257a565b612e17602083018661257a565b612e246040830185612d6d565b8181036060830152612e3681846125b6565b905095945050505050565b6000602082019050612e566000830184612589565b92915050565b6000602082019050612e716000830184612598565b92915050565b6000602082019050612e8c60008301846125a7565b92915050565b60006020820190508181036000830152612eac81846125ef565b905092915050565b60006020820190508181036000830152612ecd81612659565b9050919050565b60006020820190508181036000830152612eed81612699565b9050919050565b60006020820190508181036000830152612f0d816126ff565b9050919050565b60006020820190508181036000830152612f2d8161273f565b9050919050565b60006020820190508181036000830152612f4d816127a5565b9050919050565b60006020820190508181036000830152612f6d816127e5565b9050919050565b60006020820190508181036000830152612f8d8161284b565b9050919050565b60006020820190508181036000830152612fad816128b1565b9050919050565b60006020820190508181036000830152612fcd81612917565b9050919050565b60006020820190508181036000830152612fed8161297d565b9050919050565b6000602082019050818103600083015261300d816129e3565b9050919050565b6000602082019050818103600083015261302d81612a23565b9050919050565b6000602082019050818103600083015261304d81612a89565b9050919050565b6000602082019050818103600083015261306d81612aef565b9050919050565b6000602082019050818103600083015261308d81612b55565b9050919050565b600060208201905081810360008301526130ad81612bbb565b9050919050565b600060208201905081810360008301526130cd81612c21565b9050919050565b600060208201905081810360008301526130ed81612d07565b9050919050565b60006020820190506131096000830184612d6d565b92915050565b60006040820190506131246000830185612d6d565b6131316020830184612d6d565b9392505050565b6000604051905081810181811067ffffffffffffffff8211171561315f5761315e613544565b5b8060405250919050565b600067ffffffffffffffff82111561318457613183613544565b5b601f19601f8301169050602081019050919050565b600067ffffffffffffffff8211156131b4576131b3613544565b5b601f19601f8301169050602081019050919050565b600081519050919050565b600081519050919050565b600082825260208201905092915050565b600082825260208201905092915050565b600081905092915050565b600061321782613395565b915061322283613395565b9250827fffffffffffffffffffffffffffffffffffffffffffffffffffffffffffffffff03821115613257576132566134b7565b5b828201905092915050565b600061326d82613395565b915061327883613395565b925082613288576132876134e6565b5b828204905092915050565b600061329e82613395565b91506132a983613395565b9250817fffffffffffffffffffffffffffffffffffffffffffffffffffffffffffffffff04831182151516156132e2576132e16134b7565b5b828202905092915050565b60006132f882613395565b915061330383613395565b925082821015613316576133156134b7565b5b828203905092915050565b600061332c82613375565b9050919050565b60008115159050919050565b6000819050919050565b60007fffffffff0000000000000000000000000000000000000000000000000000000082169050919050565b600073ffffffffffffffffffffffffffffffffffffffff82169050919050565b6000819050919050565b82818337600083830152505050565b60005b838110156133cc5780820151818401526020810190506133b1565b838111156133db576000848401525b50505050565b60006133ec82613395565b91506000821415613400576133ff6134b7565b5b600182039050919050565b6000600282049050600182168061342357607f821691505b6020821081141561343757613436613515565b5b50919050565b600061344882613395565b91507fffffffffffffffffffffffffffffffffffffffffffffffffffffffffffffffff82141561347b5761347a6134b7565b5b600182019050919050565b600061349182613395565b915061349c83613395565b9250826134ac576134ab6134e6565b5b828206905092915050565b7f4e487b7100000000000000000000000000000000000000000000000000000000600052601160045260246000fd5b7f4e487b7100000000000000000000000000000000000000000000000000000000600052601260045260246000fd5b7f4e487b7100000000000000000000000000000000000000000000000000000000600052602260045260246000fd5b7f4e487b7100000000000000000000000000000000000000000000000000000000600052604160045260246000fd5b6000601f19601f8301169050919050565b61358d81613321565b811461359857600080fd5b50565b6135a481613333565b81146135af57600080fd5b50565b6135bb8161333f565b81146135c657600080fd5b50565b6135d281613349565b81146135dd57600080fd5b50565b6135e981613395565b81146135f457600080fd5b5056fea26469706673582212201388d992bc143f06be831a1f453b74b39593616874e52a422bd5801bb877a43064736f6c63430008000033",
  "immutableReferences": {},
  "source": "// SPDX-License-Identifier: MIT\npragma solidity >=0.8.0 <0.9.0;\nimport \"@openzeppelin/contracts/token/ERC721/ERC721.sol\";\nimport \"@openzeppelin/contracts/token/ERC721/extensions/ERC721URIStorage.sol\";\nimport \"@openzeppelin/contracts/utils/Counters.sol\";\nimport \"@openzeppelin/contracts/access/AccessControl.sol\";\n\ncontract NFT_Factory is ERC721URIStorage, AccessControl {\n    using Counters for Counters.Counter;\n    Counters.Counter public _tokenIds;\n\n    struct VALUES {\n      uint256 priceOfSell;\n      uint256 valueOfNFT;\n    }\n\n    mapping(uint256 => VALUES) public values;\n\n    constructor() ERC721(\"Decentralized Invoice Factoring\", \"DIF\") {\n      _setupRole(DEFAULT_ADMIN_ROLE, msg.sender);\n  }\n\n    function supportsInterface(bytes4 interfaceId) public view virtual override(AccessControl, ERC721) returns (bool) {\n      return this.supportsInterface(interfaceId);\n  }\n\n    function createInvoice(string memory tokenURI, address recipient, uint256 _priceOfSell, uint256 _valueOfNFT) public onlyRole(DEFAULT_ADMIN_ROLE) returns (uint256) {\n      _tokenIds.increment();\n      uint256 newItemId = _tokenIds.current();\n      _mint(recipient, newItemId);\n      _setTokenURI(newItemId, tokenURI);\n      values[newItemId] = VALUES(_priceOfSell, _valueOfNFT);\n      return newItemId;\n  }\n\n}\n\n",
  "sourcePath": "D:/Trabajo/0-Reservafs/Proyectos/DIF PROJECT/Code/DIF Alpha/contracts/NFT_Factory.sol",
  "compiler": {
    "name": "solc",
    "version": "0.8.0+commit.c7dfd78e.Emscripten.clang"
  },
  "schemaVersion": "3.3.4",
  "updatedAt": "2021-08-11T02:57:59.678Z",
  "networkType": "ethereum",
  "devdoc": {
    "kind": "dev",
    "methods": {
      "approve(address,uint256)": {
        "details": "See {IERC721-approve}."
      },
      "balanceOf(address)": {
        "details": "See {IERC721-balanceOf}."
      },
      "getApproved(uint256)": {
        "details": "See {IERC721-getApproved}."
      },
      "getRoleAdmin(bytes32)": {
        "details": "Returns the admin role that controls `role`. See {grantRole} and {revokeRole}. To change a role's admin, use {_setRoleAdmin}."
      },
      "grantRole(bytes32,address)": {
        "details": "Grants `role` to `account`. If `account` had not been already granted `role`, emits a {RoleGranted} event. Requirements: - the caller must have ``role``'s admin role."
      },
      "hasRole(bytes32,address)": {
        "details": "Returns `true` if `account` has been granted `role`."
      },
      "isApprovedForAll(address,address)": {
        "details": "See {IERC721-isApprovedForAll}."
      },
      "name()": {
        "details": "See {IERC721Metadata-name}."
      },
      "ownerOf(uint256)": {
        "details": "See {IERC721-ownerOf}."
      },
      "renounceRole(bytes32,address)": {
        "details": "Revokes `role` from the calling account. Roles are often managed via {grantRole} and {revokeRole}: this function's purpose is to provide a mechanism for accounts to lose their privileges if they are compromised (such as when a trusted device is misplaced). If the calling account had been granted `role`, emits a {RoleRevoked} event. Requirements: - the caller must be `account`."
      },
      "revokeRole(bytes32,address)": {
        "details": "Revokes `role` from `account`. If `account` had been granted `role`, emits a {RoleRevoked} event. Requirements: - the caller must have ``role``'s admin role."
      },
      "safeTransferFrom(address,address,uint256)": {
        "details": "See {IERC721-safeTransferFrom}."
      },
      "safeTransferFrom(address,address,uint256,bytes)": {
        "details": "See {IERC721-safeTransferFrom}."
      },
      "setApprovalForAll(address,bool)": {
        "details": "See {IERC721-setApprovalForAll}."
      },
      "symbol()": {
        "details": "See {IERC721Metadata-symbol}."
      },
      "tokenURI(uint256)": {
        "details": "See {IERC721Metadata-tokenURI}."
      },
      "transferFrom(address,address,uint256)": {
        "details": "See {IERC721-transferFrom}."
      }
    },
    "version": 1
  },
  "userdoc": {
    "kind": "user",
    "methods": {},
    "version": 1
  }
}