{
  "contractName": "NFT_Factory",
  "abi": [
    {
      "inputs": [],
      "stateMutability": "nonpayable",
      "type": "constructor"
    },
    {
      "anonymous": false,
      "inputs": [
        {
          "indexed": true,
          "internalType": "address",
          "name": "owner",
          "type": "address"
        },
        {
          "indexed": true,
          "internalType": "address",
          "name": "approved",
          "type": "address"
        },
        {
          "indexed": true,
          "internalType": "uint256",
          "name": "tokenId",
          "type": "uint256"
        }
      ],
      "name": "Approval",
      "type": "event"
    },
    {
      "anonymous": false,
      "inputs": [
        {
          "indexed": true,
          "internalType": "address",
          "name": "owner",
          "type": "address"
        },
        {
          "indexed": true,
          "internalType": "address",
          "name": "operator",
          "type": "address"
        },
        {
          "indexed": false,
          "internalType": "bool",
          "name": "approved",
          "type": "bool"
        }
      ],
      "name": "ApprovalForAll",
      "type": "event"
    },
    {
      "anonymous": false,
      "inputs": [
        {
          "indexed": true,
          "internalType": "bytes32",
          "name": "role",
          "type": "bytes32"
        },
        {
          "indexed": true,
          "internalType": "bytes32",
          "name": "previousAdminRole",
          "type": "bytes32"
        },
        {
          "indexed": true,
          "internalType": "bytes32",
          "name": "newAdminRole",
          "type": "bytes32"
        }
      ],
      "name": "RoleAdminChanged",
      "type": "event"
    },
    {
      "anonymous": false,
      "inputs": [
        {
          "indexed": true,
          "internalType": "bytes32",
          "name": "role",
          "type": "bytes32"
        },
        {
          "indexed": true,
          "internalType": "address",
          "name": "account",
          "type": "address"
        },
        {
          "indexed": true,
          "internalType": "address",
          "name": "sender",
          "type": "address"
        }
      ],
      "name": "RoleGranted",
      "type": "event"
    },
    {
      "anonymous": false,
      "inputs": [
        {
          "indexed": true,
          "internalType": "bytes32",
          "name": "role",
          "type": "bytes32"
        },
        {
          "indexed": true,
          "internalType": "address",
          "name": "account",
          "type": "address"
        },
        {
          "indexed": true,
          "internalType": "address",
          "name": "sender",
          "type": "address"
        }
      ],
      "name": "RoleRevoked",
      "type": "event"
    },
    {
      "anonymous": false,
      "inputs": [
        {
          "indexed": true,
          "internalType": "address",
          "name": "from",
          "type": "address"
        },
        {
          "indexed": true,
          "internalType": "address",
          "name": "to",
          "type": "address"
        },
        {
          "indexed": true,
          "internalType": "uint256",
          "name": "tokenId",
          "type": "uint256"
        }
      ],
      "name": "Transfer",
      "type": "event"
    },
    {
      "inputs": [],
      "name": "DEFAULT_ADMIN_ROLE",
      "outputs": [
        {
          "internalType": "bytes32",
          "name": "",
          "type": "bytes32"
        }
      ],
      "stateMutability": "view",
      "type": "function",
      "constant": true
    },
    {
      "inputs": [
        {
          "internalType": "address",
          "name": "to",
          "type": "address"
        },
        {
          "internalType": "uint256",
          "name": "tokenId",
          "type": "uint256"
        }
      ],
      "name": "approve",
      "outputs": [],
      "stateMutability": "nonpayable",
      "type": "function"
    },
    {
      "inputs": [
        {
          "internalType": "address",
          "name": "owner",
          "type": "address"
        }
      ],
      "name": "balanceOf",
      "outputs": [
        {
          "internalType": "uint256",
          "name": "",
          "type": "uint256"
        }
      ],
      "stateMutability": "view",
      "type": "function",
      "constant": true
    },
    {
      "inputs": [
        {
          "internalType": "uint256",
          "name": "tokenId",
          "type": "uint256"
        }
      ],
      "name": "getApproved",
      "outputs": [
        {
          "internalType": "address",
          "name": "",
          "type": "address"
        }
      ],
      "stateMutability": "view",
      "type": "function",
      "constant": true
    },
    {
      "inputs": [
        {
          "internalType": "bytes32",
          "name": "role",
          "type": "bytes32"
        }
      ],
      "name": "getRoleAdmin",
      "outputs": [
        {
          "internalType": "bytes32",
          "name": "",
          "type": "bytes32"
        }
      ],
      "stateMutability": "view",
      "type": "function",
      "constant": true
    },
    {
      "inputs": [
        {
          "internalType": "bytes32",
          "name": "role",
          "type": "bytes32"
        },
        {
          "internalType": "address",
          "name": "account",
          "type": "address"
        }
      ],
      "name": "grantRole",
      "outputs": [],
      "stateMutability": "nonpayable",
      "type": "function"
    },
    {
      "inputs": [
        {
          "internalType": "bytes32",
          "name": "role",
          "type": "bytes32"
        },
        {
          "internalType": "address",
          "name": "account",
          "type": "address"
        }
      ],
      "name": "hasRole",
      "outputs": [
        {
          "internalType": "bool",
          "name": "",
          "type": "bool"
        }
      ],
      "stateMutability": "view",
      "type": "function",
      "constant": true
    },
    {
      "inputs": [
        {
          "internalType": "address",
          "name": "owner",
          "type": "address"
        },
        {
          "internalType": "address",
          "name": "operator",
          "type": "address"
        }
      ],
      "name": "isApprovedForAll",
      "outputs": [
        {
          "internalType": "bool",
          "name": "",
          "type": "bool"
        }
      ],
      "stateMutability": "view",
      "type": "function",
      "constant": true
    },
    {
      "inputs": [],
      "name": "name",
      "outputs": [
        {
          "internalType": "string",
          "name": "",
          "type": "string"
        }
      ],
      "stateMutability": "view",
      "type": "function",
      "constant": true
    },
    {
      "inputs": [
        {
          "internalType": "uint256",
          "name": "tokenId",
          "type": "uint256"
        }
      ],
      "name": "ownerOf",
      "outputs": [
        {
          "internalType": "address",
          "name": "",
          "type": "address"
        }
      ],
      "stateMutability": "view",
      "type": "function",
      "constant": true
    },
    {
      "inputs": [
        {
          "internalType": "bytes32",
          "name": "role",
          "type": "bytes32"
        },
        {
          "internalType": "address",
          "name": "account",
          "type": "address"
        }
      ],
      "name": "renounceRole",
      "outputs": [],
      "stateMutability": "nonpayable",
      "type": "function"
    },
    {
      "inputs": [
        {
          "internalType": "bytes32",
          "name": "role",
          "type": "bytes32"
        },
        {
          "internalType": "address",
          "name": "account",
          "type": "address"
        }
      ],
      "name": "revokeRole",
      "outputs": [],
      "stateMutability": "nonpayable",
      "type": "function"
    },
    {
      "inputs": [
        {
          "internalType": "address",
          "name": "from",
          "type": "address"
        },
        {
          "internalType": "address",
          "name": "to",
          "type": "address"
        },
        {
          "internalType": "uint256",
          "name": "tokenId",
          "type": "uint256"
        }
      ],
      "name": "safeTransferFrom",
      "outputs": [],
      "stateMutability": "nonpayable",
      "type": "function"
    },
    {
      "inputs": [
        {
          "internalType": "address",
          "name": "from",
          "type": "address"
        },
        {
          "internalType": "address",
          "name": "to",
          "type": "address"
        },
        {
          "internalType": "uint256",
          "name": "tokenId",
          "type": "uint256"
        },
        {
          "internalType": "bytes",
          "name": "_data",
          "type": "bytes"
        }
      ],
      "name": "safeTransferFrom",
      "outputs": [],
      "stateMutability": "nonpayable",
      "type": "function"
    },
    {
      "inputs": [
        {
          "internalType": "address",
          "name": "operator",
          "type": "address"
        },
        {
          "internalType": "bool",
          "name": "approved",
          "type": "bool"
        }
      ],
      "name": "setApprovalForAll",
      "outputs": [],
      "stateMutability": "nonpayable",
      "type": "function"
    },
    {
      "inputs": [],
      "name": "symbol",
      "outputs": [
        {
          "internalType": "string",
          "name": "",
          "type": "string"
        }
      ],
      "stateMutability": "view",
      "type": "function",
      "constant": true
    },
    {
      "inputs": [
        {
          "internalType": "uint256",
          "name": "tokenId",
          "type": "uint256"
        }
      ],
      "name": "tokenURI",
      "outputs": [
        {
          "internalType": "string",
          "name": "",
          "type": "string"
        }
      ],
      "stateMutability": "view",
      "type": "function",
      "constant": true
    },
    {
      "inputs": [],
      "name": "totalOfNFTMinted",
      "outputs": [
        {
          "internalType": "uint256",
          "name": "",
          "type": "uint256"
        }
      ],
      "stateMutability": "view",
      "type": "function",
      "constant": true
    },
    {
      "inputs": [
        {
          "internalType": "address",
          "name": "from",
          "type": "address"
        },
        {
          "internalType": "address",
          "name": "to",
          "type": "address"
        },
        {
          "internalType": "uint256",
          "name": "tokenId",
          "type": "uint256"
        }
      ],
      "name": "transferFrom",
      "outputs": [],
      "stateMutability": "nonpayable",
      "type": "function"
    },
    {
      "inputs": [
        {
          "internalType": "bytes4",
          "name": "interfaceId",
          "type": "bytes4"
        }
      ],
      "name": "supportsInterface",
      "outputs": [
        {
          "internalType": "bool",
          "name": "",
          "type": "bool"
        }
      ],
      "stateMutability": "view",
      "type": "function",
      "constant": true
    },
    {
      "inputs": [
        {
          "internalType": "address",
          "name": "_recipient",
          "type": "address"
        },
        {
          "internalType": "string",
          "name": "_name",
          "type": "string"
        },
        {
          "internalType": "string",
          "name": "_addressGeoOne",
          "type": "string"
        },
        {
          "internalType": "string",
          "name": "_addressGeoTwo",
          "type": "string"
        },
        {
          "internalType": "string",
          "name": "_city",
          "type": "string"
        },
        {
          "internalType": "string",
          "name": "_state",
          "type": "string"
        },
        {
          "internalType": "string",
          "name": "_country",
          "type": "string"
        },
        {
          "internalType": "uint32",
          "name": "_zip",
          "type": "uint32"
        },
        {
          "internalType": "uint32",
          "name": "_phone",
          "type": "uint32"
        },
        {
          "internalType": "uint256",
          "name": "_priceOfSell",
          "type": "uint256"
        },
        {
          "internalType": "uint256",
          "name": "_valueOfNFT",
          "type": "uint256"
        }
      ],
      "name": "createInvoice",
      "outputs": [],
      "stateMutability": "nonpayable",
      "type": "function"
    },
    {
      "inputs": [
        {
          "internalType": "uint256",
          "name": "tokenId",
          "type": "uint256"
        }
      ],
      "name": "getData",
      "outputs": [
        {
          "internalType": "string",
          "name": "name",
          "type": "string"
        },
        {
          "internalType": "string",
          "name": "addressGeoOne",
          "type": "string"
        },
        {
          "internalType": "string",
          "name": "addressGeoTwo",
          "type": "string"
        },
        {
          "internalType": "string",
          "name": "city",
          "type": "string"
        },
        {
          "internalType": "string",
          "name": "state",
          "type": "string"
        },
        {
          "internalType": "string",
          "name": "country",
          "type": "string"
        },
        {
          "internalType": "uint32",
          "name": "zip",
          "type": "uint32"
        },
        {
          "internalType": "uint32",
          "name": "phone",
          "type": "uint32"
        },
        {
          "internalType": "uint256",
          "name": "priceOfSell",
          "type": "uint256"
        },
        {
          "internalType": "uint256",
          "name": "valueOfNFT",
          "type": "uint256"
        },
        {
          "internalType": "bytes32",
          "name": "invoiceHash",
          "type": "bytes32"
        }
      ],
      "stateMutability": "view",
      "type": "function",
      "constant": true
    },
    {
      "inputs": [
        {
          "internalType": "uint256",
          "name": "tokenId",
          "type": "uint256"
        }
      ],
      "name": "values",
      "outputs": [
        {
          "internalType": "uint256",
          "name": "priceOfSell",
          "type": "uint256"
        },
        {
          "internalType": "uint256",
          "name": "valueOfNFT",
          "type": "uint256"
        }
      ],
      "stateMutability": "view",
      "type": "function",
      "constant": true
    }
  ],
  "bytecode": "0x60806040523480156200001157600080fd5b506040518060400160405280601f81526020017f446563656e7472616c697a656420496e766f69636520466163746f72696e67008152506040518060400160405280600381526020017f444946000000000000000000000000000000000000000000000000000000000081525081600090805190602001906200009692919062000250565b508060019080519060200190620000af92919062000250565b505050620000c76000801b33620000d560201b60201c565b600060088190555062000365565b620000e78282620000eb60201b60201c565b5050565b620000fd8282620001dd60201b60201c565b620001d95760016007600084815260200190815260200160002060000160008373ffffffffffffffffffffffffffffffffffffffff1673ffffffffffffffffffffffffffffffffffffffff16815260200190815260200160002060006101000a81548160ff0219169083151502179055506200017e6200024860201b60201c565b73ffffffffffffffffffffffffffffffffffffffff168173ffffffffffffffffffffffffffffffffffffffff16837f2f8788117e7eff1d82e926ec794901d17c78024a50270940304540a733656f0d60405160405180910390a45b5050565b60006007600084815260200190815260200160002060000160008373ffffffffffffffffffffffffffffffffffffffff1673ffffffffffffffffffffffffffffffffffffffff16815260200190815260200160002060009054906101000a900460ff16905092915050565b600033905090565b8280546200025e9062000300565b90600052602060002090601f016020900481019282620002825760008555620002ce565b82601f106200029d57805160ff1916838001178555620002ce565b82800160010185558215620002ce579182015b82811115620002cd578251825591602001919060010190620002b0565b5b509050620002dd9190620002e1565b5090565b5b80821115620002fc576000816000905550600101620002e2565b5090565b600060028204905060018216806200031957607f821691505b6020821081141562000330576200032f62000336565b5b50919050565b7f4e487b7100000000000000000000000000000000000000000000000000000000600052602260045260246000fd5b61428a80620003756000396000f3fe608060405234801561001057600080fd5b506004361061014d5760003560e01c806342842e0e116100c3578063a217fddf1161007c578063a217fddf146103df578063a22cb465146103fd578063b88d4fde14610419578063c87b56dd14610435578063d547741f14610465578063e985e9c5146104815761014d565b806342842e0e146102e45780635e383d21146103005780636352211e1461033157806370a082311461036157806391d148541461039157806395d89b41146103c15761014d565b8063146975a011610115578063146975a01461022657806323b872dd14610242578063248a9ca31461025e5780632f2ff15d1461028e57806336568abe146102aa5780633d14da80146102c65761014d565b80630178fe3f1461015257806301ffc9a71461018c57806306fdde03146101bc578063081812fc146101da578063095ea7b31461020a575b600080fd5b61016c60048036038101906101679190612fb0565b6104b1565b6040516101839b9a999897969594939291906139ec565b60405180910390f35b6101a660048036038101906101a19190612f5e565b610b7b565b6040516101b39190613979565b60405180910390f35b6101c4610c0d565b6040516101d191906139ca565b60405180910390f35b6101f460048036038101906101ef9190612fb0565b610c9f565b6040516102019190613912565b60405180910390f35b610224600480360381019061021f9190612e94565b610d24565b005b610240600480360381019061023b9190612d14565b610e3c565b005b61025c60048036038101906102579190612c0e565b610f66565b005b61027860048036038101906102739190612ef9565b610fc6565b6040516102859190613994565b60405180910390f35b6102a860048036038101906102a39190612f22565b610fe6565b005b6102c460048036038101906102bf9190612f22565b61100f565b005b6102ce611092565b6040516102db9190613d01565b60405180910390f35b6102fe60048036038101906102f99190612c0e565b611098565b005b61031a60048036038101906103159190612fb0565b6110b8565b604051610328929190613d1c565b60405180910390f35b61034b60048036038101906103469190612fb0565b61115c565b6040516103589190613912565b60405180910390f35b61037b60048036038101906103769190612ba9565b61120e565b6040516103889190613d01565b60405180910390f35b6103ab60048036038101906103a69190612f22565b6112c6565b6040516103b89190613979565b60405180910390f35b6103c9611331565b6040516103d691906139ca565b60405180910390f35b6103e76113c3565b6040516103f49190613994565b60405180910390f35b61041760048036038101906104129190612cd8565b6113ca565b005b610433600480360381019061042e9190612c5d565b61154b565b005b61044f600480360381019061044a9190612fb0565b6115ad565b60405161045c91906139ca565b60405180910390f35b61047f600480360381019061047a9190612f22565b6116ff565b005b61049b60048036038101906104969190612bd2565b611728565b6040516104a89190613979565b60405180910390f35b606080606080606080600080600080600060098c815481106104fc577f4e487b7100000000000000000000000000000000000000000000000000000000600052603260045260246000fd5b90600052602060002090600a0201600001805461051890614028565b80601f016020809104026020016040519081016040528092919081815260200182805461054490614028565b80156105915780601f1061056657610100808354040283529160200191610591565b820191906000526020600020905b81548152906001019060200180831161057457829003601f168201915b50505050509a5060098c815481106105d2577f4e487b7100000000000000000000000000000000000000000000000000000000600052603260045260246000fd5b90600052602060002090600a020160010180546105ee90614028565b80601f016020809104026020016040519081016040528092919081815260200182805461061a90614028565b80156106675780601f1061063c57610100808354040283529160200191610667565b820191906000526020600020905b81548152906001019060200180831161064a57829003601f168201915b5050505050995060098c815481106106a8577f4e487b7100000000000000000000000000000000000000000000000000000000600052603260045260246000fd5b90600052602060002090600a020160020180546106c490614028565b80601f01602080910402602001604051908101604052809291908181526020018280546106f090614028565b801561073d5780601f106107125761010080835404028352916020019161073d565b820191906000526020600020905b81548152906001019060200180831161072057829003601f168201915b5050505050985060098c8154811061077e577f4e487b7100000000000000000000000000000000000000000000000000000000600052603260045260246000fd5b90600052602060002090600a0201600301805461079a90614028565b80601f01602080910402602001604051908101604052809291908181526020018280546107c690614028565b80156108135780601f106107e857610100808354040283529160200191610813565b820191906000526020600020905b8154815290600101906020018083116107f657829003601f168201915b5050505050975060098c81548110610854577f4e487b7100000000000000000000000000000000000000000000000000000000600052603260045260246000fd5b90600052602060002090600a0201600401805461087090614028565b80601f016020809104026020016040519081016040528092919081815260200182805461089c90614028565b80156108e95780601f106108be576101008083540402835291602001916108e9565b820191906000526020600020905b8154815290600101906020018083116108cc57829003601f168201915b5050505050965060098c8154811061092a577f4e487b7100000000000000000000000000000000000000000000000000000000600052603260045260246000fd5b90600052602060002090600a0201600501805461094690614028565b80601f016020809104026020016040519081016040528092919081815260200182805461097290614028565b80156109bf5780601f10610994576101008083540402835291602001916109bf565b820191906000526020600020905b8154815290600101906020018083116109a257829003601f168201915b5050505050955060098c81548110610a00577f4e487b7100000000000000000000000000000000000000000000000000000000600052603260045260246000fd5b90600052602060002090600a020160060160009054906101000a900463ffffffff16945060098c81548110610a5e577f4e487b7100000000000000000000000000000000000000000000000000000000600052603260045260246000fd5b90600052602060002090600a020160060160049054906101000a900463ffffffff16935060098c81548110610abc577f4e487b7100000000000000000000000000000000000000000000000000000000600052603260045260246000fd5b90600052602060002090600a020160070154925060098c81548110610b0a577f4e487b7100000000000000000000000000000000000000000000000000000000600052603260045260246000fd5b90600052602060002090600a020160080154915060098c81548110610b58577f4e487b7100000000000000000000000000000000000000000000000000000000600052603260045260246000fd5b90600052602060002090600a020160090154905091939597999b90929496989a50565b60003073ffffffffffffffffffffffffffffffffffffffff166301ffc9a7836040518263ffffffff1660e01b8152600401610bb691906139af565b60206040518083038186803b158015610bce57600080fd5b505afa158015610be2573d6000803e3d6000fd5b505050506040513d601f19601f82011682018060405250810190610c069190612ed0565b9050919050565b606060008054610c1c90614028565b80601f0160208091040260200160405190810160405280929190818152602001828054610c4890614028565b8015610c955780601f10610c6a57610100808354040283529160200191610c95565b820191906000526020600020905b815481529060010190602001808311610c7857829003601f168201915b5050505050905090565b6000610caa826117bc565b610ce9576040517f08c379a0000000000000000000000000000000000000000000000000000000008152600401610ce090613c21565b60405180910390fd5b6004600083815260200190815260200160002060009054906101000a900473ffffffffffffffffffffffffffffffffffffffff169050919050565b6000610d2f8261115c565b90508073ffffffffffffffffffffffffffffffffffffffff168373ffffffffffffffffffffffffffffffffffffffff161415610da0576040517f08c379a0000000000000000000000000000000000000000000000000000000008152600401610d9790613c81565b60405180910390fd5b8073ffffffffffffffffffffffffffffffffffffffff16610dbf611828565b73ffffffffffffffffffffffffffffffffffffffff161480610dee5750610ded81610de8611828565b611728565b5b610e2d576040517f08c379a0000000000000000000000000000000000000000000000000000000008152600401610e2490613b81565b60405180910390fd5b610e378383611830565b505050565b6000801b610e5181610e4c611828565b6118e9565b60008b8b8b8b8b8b8b8b8b8b604051602001610e769a9998979695949392919061383c565b604051602081830303815290604052805190602001209050600a600082815260200190815260200160002060009054906101000a900460ff1615610eef576040517f08c379a0000000000000000000000000000000000000000000000000000000008152600401610ee690613cc1565b60405180910390fd5b6001600a600083815260200190815260200160002060006101000a81548160ff0219169083151502179055506000610f308d8d8d8d8d8d8d8d8d8d8c611986565b9050610f3c8e82611b53565b600160086000828254610f4f9190613e19565b925050819055505050505050505050505050505050565b610f77610f71611828565b82611d21565b610fb6576040517f08c379a0000000000000000000000000000000000000000000000000000000008152600401610fad90613ca1565b60405180910390fd5b610fc1838383611dff565b505050565b600060076000838152602001908152602001600020600101549050919050565b610fef82610fc6565b61100081610ffb611828565b6118e9565b61100a838361205b565b505050565b611017611828565b73ffffffffffffffffffffffffffffffffffffffff168173ffffffffffffffffffffffffffffffffffffffff1614611084576040517f08c379a000000000000000000000000000000000000000000000000000000000815260040161107b90613ce1565b60405180910390fd5b61108e828261213c565b5050565b60085481565b6110b38383836040518060200160405280600081525061154b565b505050565b600080600983815481106110f5577f4e487b7100000000000000000000000000000000000000000000000000000000600052603260045260246000fd5b90600052602060002090600a020160070154915060098381548110611143577f4e487b7100000000000000000000000000000000000000000000000000000000600052603260045260246000fd5b90600052602060002090600a0201600801549050915091565b6000806002600084815260200190815260200160002060009054906101000a900473ffffffffffffffffffffffffffffffffffffffff169050600073ffffffffffffffffffffffffffffffffffffffff168173ffffffffffffffffffffffffffffffffffffffff161415611205576040517f08c379a00000000000000000000000000000000000000000000000000000000081526004016111fc90613bc1565b60405180910390fd5b80915050919050565b60008073ffffffffffffffffffffffffffffffffffffffff168273ffffffffffffffffffffffffffffffffffffffff16141561127f576040517f08c379a000000000000000000000000000000000000000000000000000000000815260040161127690613ba1565b60405180910390fd5b600360008373ffffffffffffffffffffffffffffffffffffffff1673ffffffffffffffffffffffffffffffffffffffff168152602001908152602001600020549050919050565b60006007600084815260200190815260200160002060000160008373ffffffffffffffffffffffffffffffffffffffff1673ffffffffffffffffffffffffffffffffffffffff16815260200190815260200160002060009054906101000a900460ff16905092915050565b60606001805461134090614028565b80601f016020809104026020016040519081016040528092919081815260200182805461136c90614028565b80156113b95780601f1061138e576101008083540402835291602001916113b9565b820191906000526020600020905b81548152906001019060200180831161139c57829003601f168201915b5050505050905090565b6000801b81565b6113d2611828565b73ffffffffffffffffffffffffffffffffffffffff168273ffffffffffffffffffffffffffffffffffffffff161415611440576040517f08c379a000000000000000000000000000000000000000000000000000000000815260040161143790613b41565b60405180910390fd5b806005600061144d611828565b73ffffffffffffffffffffffffffffffffffffffff1673ffffffffffffffffffffffffffffffffffffffff16815260200190815260200160002060008473ffffffffffffffffffffffffffffffffffffffff1673ffffffffffffffffffffffffffffffffffffffff16815260200190815260200160002060006101000a81548160ff0219169083151502179055508173ffffffffffffffffffffffffffffffffffffffff166114fa611828565b73ffffffffffffffffffffffffffffffffffffffff167f17307eab39ab6107e8899845ad3d59bd9653f200f220920489ca2b5937696c318360405161153f9190613979565b60405180910390a35050565b61155c611556611828565b83611d21565b61159b576040517f08c379a000000000000000000000000000000000000000000000000000000000815260040161159290613ca1565b60405180910390fd5b6115a78484848461221e565b50505050565b60606115b8826117bc565b6115f7576040517f08c379a00000000000000000000000000000000000000000000000000000000081526004016115ee90613c01565b60405180910390fd5b600060066000848152602001908152602001600020805461161790614028565b80601f016020809104026020016040519081016040528092919081815260200182805461164390614028565b80156116905780601f1061166557610100808354040283529160200191611690565b820191906000526020600020905b81548152906001019060200180831161167357829003601f168201915b5050505050905060006116a161227a565b90506000815114156116b75781925050506116fa565b6000825111156116ec5780826040516020016116d4929190613818565b604051602081830303815290604052925050506116fa565b6116f584612291565b925050505b919050565b61170882610fc6565b61171981611714611828565b6118e9565b611723838361213c565b505050565b6000600560008473ffffffffffffffffffffffffffffffffffffffff1673ffffffffffffffffffffffffffffffffffffffff16815260200190815260200160002060008373ffffffffffffffffffffffffffffffffffffffff1673ffffffffffffffffffffffffffffffffffffffff16815260200190815260200160002060009054906101000a900460ff16905092915050565b60008073ffffffffffffffffffffffffffffffffffffffff166002600084815260200190815260200160002060009054906101000a900473ffffffffffffffffffffffffffffffffffffffff1673ffffffffffffffffffffffffffffffffffffffff1614159050919050565b600033905090565b816004600083815260200190815260200160002060006101000a81548173ffffffffffffffffffffffffffffffffffffffff021916908373ffffffffffffffffffffffffffffffffffffffff160217905550808273ffffffffffffffffffffffffffffffffffffffff166118a38361115c565b73ffffffffffffffffffffffffffffffffffffffff167f8c5be1e5ebec7d5bd14f71427d1e84f3dd0314c0f7b2291e5b200ac8c7c3b92560405160405180910390a45050565b6118f382826112c6565b611982576119188173ffffffffffffffffffffffffffffffffffffffff166014612338565b6119268360001c6020612338565b6040516020016119379291906138d8565b6040516020818303038152906040526040517f08c379a000000000000000000000000000000000000000000000000000000000815260040161197991906139ca565b60405180910390fd5b5050565b600060096040518061016001604052808e81526020018d81526020018c81526020018b81526020018a81526020018981526020018863ffffffff1681526020018763ffffffff1681526020018681526020018581526020018481525090806001815401808255809150506001900390600052602060002090600a02016000909190919091506000820151816000019080519060200190611a2792919061298e565b506020820151816001019080519060200190611a4492919061298e565b506040820151816002019080519060200190611a6192919061298e565b506060820151816003019080519060200190611a7e92919061298e565b506080820151816004019080519060200190611a9b92919061298e565b5060a0820151816005019080519060200190611ab892919061298e565b5060c08201518160060160006101000a81548163ffffffff021916908363ffffffff16021790555060e08201518160060160046101000a81548163ffffffff021916908363ffffffff160217905550610100820151816007015561012082015181600801556101408201518160090155505060006001600980549050611b3e9190613efa565b9050809150509b9a5050505050505050505050565b600073ffffffffffffffffffffffffffffffffffffffff168273ffffffffffffffffffffffffffffffffffffffff161415611bc3576040517f08c379a0000000000000000000000000000000000000000000000000000000008152600401611bba90613be1565b60405180910390fd5b611bcc816117bc565b15611c0c576040517f08c379a0000000000000000000000000000000000000000000000000000000008152600401611c0390613b01565b60405180910390fd5b611c1860008383612632565b6001600360008473ffffffffffffffffffffffffffffffffffffffff1673ffffffffffffffffffffffffffffffffffffffff1681526020019081526020016000206000828254611c689190613e19565b92505081905550816002600083815260200190815260200160002060006101000a81548173ffffffffffffffffffffffffffffffffffffffff021916908373ffffffffffffffffffffffffffffffffffffffff160217905550808273ffffffffffffffffffffffffffffffffffffffff16600073ffffffffffffffffffffffffffffffffffffffff167fddf252ad1be2c89b69c2b068fc378daa952ba7f163c4a11628f55a4df523b3ef60405160405180910390a45050565b6000611d2c826117bc565b611d6b576040517f08c379a0000000000000000000000000000000000000000000000000000000008152600401611d6290613b61565b60405180910390fd5b6000611d768361115c565b90508073ffffffffffffffffffffffffffffffffffffffff168473ffffffffffffffffffffffffffffffffffffffff161480611de557508373ffffffffffffffffffffffffffffffffffffffff16611dcd84610c9f565b73ffffffffffffffffffffffffffffffffffffffff16145b80611df65750611df58185611728565b5b91505092915050565b8273ffffffffffffffffffffffffffffffffffffffff16611e1f8261115c565b73ffffffffffffffffffffffffffffffffffffffff1614611e75576040517f08c379a0000000000000000000000000000000000000000000000000000000008152600401611e6c90613c41565b60405180910390fd5b600073ffffffffffffffffffffffffffffffffffffffff168273ffffffffffffffffffffffffffffffffffffffff161415611ee5576040517f08c379a0000000000000000000000000000000000000000000000000000000008152600401611edc90613b21565b60405180910390fd5b611ef0838383612632565b611efb600082611830565b6001600360008573ffffffffffffffffffffffffffffffffffffffff1673ffffffffffffffffffffffffffffffffffffffff1681526020019081526020016000206000828254611f4b9190613efa565b925050819055506001600360008473ffffffffffffffffffffffffffffffffffffffff1673ffffffffffffffffffffffffffffffffffffffff1681526020019081526020016000206000828254611fa29190613e19565b92505081905550816002600083815260200190815260200160002060006101000a81548173ffffffffffffffffffffffffffffffffffffffff021916908373ffffffffffffffffffffffffffffffffffffffff160217905550808273ffffffffffffffffffffffffffffffffffffffff168473ffffffffffffffffffffffffffffffffffffffff167fddf252ad1be2c89b69c2b068fc378daa952ba7f163c4a11628f55a4df523b3ef60405160405180910390a4505050565b61206582826112c6565b6121385760016007600084815260200190815260200160002060000160008373ffffffffffffffffffffffffffffffffffffffff1673ffffffffffffffffffffffffffffffffffffffff16815260200190815260200160002060006101000a81548160ff0219169083151502179055506120dd611828565b73ffffffffffffffffffffffffffffffffffffffff168173ffffffffffffffffffffffffffffffffffffffff16837f2f8788117e7eff1d82e926ec794901d17c78024a50270940304540a733656f0d60405160405180910390a45b5050565b61214682826112c6565b1561221a5760006007600084815260200190815260200160002060000160008373ffffffffffffffffffffffffffffffffffffffff1673ffffffffffffffffffffffffffffffffffffffff16815260200190815260200160002060006101000a81548160ff0219169083151502179055506121bf611828565b73ffffffffffffffffffffffffffffffffffffffff168173ffffffffffffffffffffffffffffffffffffffff16837ff6391f5c32d9c69d2a47ea670b442974b53935d1edc7fd64eb21e047a839171b60405160405180910390a45b5050565b612229848484611dff565b61223584848484612637565b612274576040517f08c379a000000000000000000000000000000000000000000000000000000000815260040161226b90613ae1565b60405180910390fd5b50505050565b606060405180602001604052806000815250905090565b606061229c826117bc565b6122db576040517f08c379a00000000000000000000000000000000000000000000000000000000081526004016122d290613c61565b60405180910390fd5b60006122e561227a565b905060008151116123055760405180602001604052806000815250612330565b8061230f846127ce565b604051602001612320929190613818565b6040516020818303038152906040525b915050919050565b60606000600283600261234b9190613ea0565b6123559190613e19565b67ffffffffffffffff811115612394577f4e487b7100000000000000000000000000000000000000000000000000000000600052604160045260246000fd5b6040519080825280601f01601f1916602001820160405280156123c65781602001600182028036833780820191505090505b5090507f300000000000000000000000000000000000000000000000000000000000000081600081518110612424577f4e487b7100000000000000000000000000000000000000000000000000000000600052603260045260246000fd5b60200101907effffffffffffffffffffffffffffffffffffffffffffffffffffffffffffff1916908160001a9053507f7800000000000000000000000000000000000000000000000000000000000000816001815181106124ae577f4e487b7100000000000000000000000000000000000000000000000000000000600052603260045260246000fd5b60200101907effffffffffffffffffffffffffffffffffffffffffffffffffffffffffffff1916908160001a905350600060018460026124ee9190613ea0565b6124f89190613e19565b90505b60018111156125e4577f3031323334353637383961626364656600000000000000000000000000000000600f861660108110612560577f4e487b7100000000000000000000000000000000000000000000000000000000600052603260045260246000fd5b1a60f81b82828151811061259d577f4e487b7100000000000000000000000000000000000000000000000000000000600052603260045260246000fd5b60200101907effffffffffffffffffffffffffffffffffffffffffffffffffffffffffffff1916908160001a905350600485901c9450806125dd90613ffe565b90506124fb565b5060008414612628576040517f08c379a000000000000000000000000000000000000000000000000000000000815260040161261f90613ac1565b60405180910390fd5b8091505092915050565b505050565b60006126588473ffffffffffffffffffffffffffffffffffffffff1661297b565b156127c1578373ffffffffffffffffffffffffffffffffffffffff1663150b7a02612681611828565b8786866040518563ffffffff1660e01b81526004016126a3949392919061392d565b602060405180830381600087803b1580156126bd57600080fd5b505af19250505080156126ee57506040513d601f19601f820116820180604052508101906126eb9190612f87565b60015b612771573d806000811461271e576040519150601f19603f3d011682016040523d82523d6000602084013e612723565b606091505b50600081511415612769576040517f08c379a000000000000000000000000000000000000000000000000000000000815260040161276090613ae1565b60405180910390fd5b805181602001fd5b63150b7a0260e01b7bffffffffffffffffffffffffffffffffffffffffffffffffffffffff1916817bffffffffffffffffffffffffffffffffffffffffffffffffffffffff1916149150506127c6565b600190505b949350505050565b60606000821415612816576040518060400160405280600181526020017f30000000000000000000000000000000000000000000000000000000000000008152509050612976565b600082905060005b600082146128485780806128319061405a565b915050600a826128419190613e6f565b915061281e565b60008167ffffffffffffffff81111561288a577f4e487b7100000000000000000000000000000000000000000000000000000000600052604160045260246000fd5b6040519080825280601f01601f1916602001820160405280156128bc5781602001600182028036833780820191505090505b5090505b6000851461296f576001826128d59190613efa565b9150600a856128e491906140bf565b60306128f09190613e19565b60f81b81838151811061292c577f4e487b7100000000000000000000000000000000000000000000000000000000600052603260045260246000fd5b60200101907effffffffffffffffffffffffffffffffffffffffffffffffffffffffffffff1916908160001a905350600a856129689190613e6f565b94506128c0565b8093505050505b919050565b600080823b905060008111915050919050565b82805461299a90614028565b90600052602060002090601f0160209004810192826129bc5760008555612a03565b82601f106129d557805160ff1916838001178555612a03565b82800160010185558215612a03579182015b82811115612a025782518255916020019190600101906129e7565b5b509050612a109190612a14565b5090565b5b80821115612a2d576000816000905550600101612a15565b5090565b6000612a44612a3f84613d76565b613d45565b905082815260208101848484011115612a5c57600080fd5b612a67848285613fbc565b509392505050565b6000612a82612a7d84613da6565b613d45565b905082815260208101848484011115612a9a57600080fd5b612aa5848285613fbc565b509392505050565b600081359050612abc816141ca565b92915050565b600081359050612ad1816141e1565b92915050565b600081519050612ae6816141e1565b92915050565b600081359050612afb816141f8565b92915050565b600081359050612b108161420f565b92915050565b600081519050612b258161420f565b92915050565b600082601f830112612b3c57600080fd5b8135612b4c848260208601612a31565b91505092915050565b600082601f830112612b6657600080fd5b8135612b76848260208601612a6f565b91505092915050565b600081359050612b8e81614226565b92915050565b600081359050612ba38161423d565b92915050565b600060208284031215612bbb57600080fd5b6000612bc984828501612aad565b91505092915050565b60008060408385031215612be557600080fd5b6000612bf385828601612aad565b9250506020612c0485828601612aad565b9150509250929050565b600080600060608486031215612c2357600080fd5b6000612c3186828701612aad565b9350506020612c4286828701612aad565b9250506040612c5386828701612b7f565b9150509250925092565b60008060008060808587031215612c7357600080fd5b6000612c8187828801612aad565b9450506020612c9287828801612aad565b9350506040612ca387828801612b7f565b925050606085013567ffffffffffffffff811115612cc057600080fd5b612ccc87828801612b2b565b91505092959194509250565b60008060408385031215612ceb57600080fd5b6000612cf985828601612aad565b9250506020612d0a85828601612ac2565b9150509250929050565b60008060008060008060008060008060006101608c8e031215612d3657600080fd5b6000612d448e828f01612aad565b9b505060208c013567ffffffffffffffff811115612d6157600080fd5b612d6d8e828f01612b55565b9a505060408c013567ffffffffffffffff811115612d8a57600080fd5b612d968e828f01612b55565b99505060608c013567ffffffffffffffff811115612db357600080fd5b612dbf8e828f01612b55565b98505060808c013567ffffffffffffffff811115612ddc57600080fd5b612de88e828f01612b55565b97505060a08c013567ffffffffffffffff811115612e0557600080fd5b612e118e828f01612b55565b96505060c08c013567ffffffffffffffff811115612e2e57600080fd5b612e3a8e828f01612b55565b95505060e0612e4b8e828f01612b94565b945050610100612e5d8e828f01612b94565b935050610120612e6f8e828f01612b7f565b925050610140612e818e828f01612b7f565b9150509295989b509295989b9093969950565b60008060408385031215612ea757600080fd5b6000612eb585828601612aad565b9250506020612ec685828601612b7f565b9150509250929050565b600060208284031215612ee257600080fd5b6000612ef084828501612ad7565b91505092915050565b600060208284031215612f0b57600080fd5b6000612f1984828501612aec565b91505092915050565b60008060408385031215612f3557600080fd5b6000612f4385828601612aec565b9250506020612f5485828601612aad565b9150509250929050565b600060208284031215612f7057600080fd5b6000612f7e84828501612b01565b91505092915050565b600060208284031215612f9957600080fd5b6000612fa784828501612b16565b91505092915050565b600060208284031215612fc257600080fd5b6000612fd084828501612b7f565b91505092915050565b612fe281613f2e565b82525050565b612ff181613f40565b82525050565b61300081613f4c565b82525050565b61300f81613f56565b82525050565b600061302082613dd6565b61302a8185613dec565b935061303a818560208601613fcb565b613043816141ac565b840191505092915050565b600061305982613de1565b6130638185613dfd565b9350613073818560208601613fcb565b61307c816141ac565b840191505092915050565b600061309282613de1565b61309c8185613e0e565b93506130ac818560208601613fcb565b80840191505092915050565b60006130c5602083613dfd565b91507f537472696e67733a20686578206c656e67746820696e73756666696369656e746000830152602082019050919050565b6000613105603283613dfd565b91507f4552433732313a207472616e7366657220746f206e6f6e20455243373231526560008301527f63656976657220696d706c656d656e74657200000000000000000000000000006020830152604082019050919050565b600061316b601c83613dfd565b91507f4552433732313a20746f6b656e20616c7265616479206d696e746564000000006000830152602082019050919050565b60006131ab602483613dfd565b91507f4552433732313a207472616e7366657220746f20746865207a65726f2061646460008301527f72657373000000000000000000000000000000000000000000000000000000006020830152604082019050919050565b6000613211601983613dfd565b91507f4552433732313a20617070726f766520746f2063616c6c6572000000000000006000830152602082019050919050565b6000613251602c83613dfd565b91507f4552433732313a206f70657261746f7220717565727920666f72206e6f6e657860008301527f697374656e7420746f6b656e00000000000000000000000000000000000000006020830152604082019050919050565b60006132b7603883613dfd565b91507f4552433732313a20617070726f76652063616c6c6572206973206e6f74206f7760008301527f6e6572206e6f7220617070726f76656420666f7220616c6c00000000000000006020830152604082019050919050565b600061331d602a83613dfd565b91507f4552433732313a2062616c616e636520717565727920666f7220746865207a6560008301527f726f2061646472657373000000000000000000000000000000000000000000006020830152604082019050919050565b6000613383602983613dfd565b91507f4552433732313a206f776e657220717565727920666f72206e6f6e657869737460008301527f656e7420746f6b656e00000000000000000000000000000000000000000000006020830152604082019050919050565b60006133e9602083613dfd565b91507f4552433732313a206d696e7420746f20746865207a65726f20616464726573736000830152602082019050919050565b6000613429603183613dfd565b91507f45524337323155524953746f726167653a2055524920717565727920666f722060008301527f6e6f6e6578697374656e7420746f6b656e0000000000000000000000000000006020830152604082019050919050565b600061348f602c83613dfd565b91507f4552433732313a20617070726f76656420717565727920666f72206e6f6e657860008301527f697374656e7420746f6b656e00000000000000000000000000000000000000006020830152604082019050919050565b60006134f5602983613dfd565b91507f4552433732313a207472616e73666572206f6620746f6b656e2074686174206960008301527f73206e6f74206f776e00000000000000000000000000000000000000000000006020830152604082019050919050565b600061355b602f83613dfd565b91507f4552433732314d657461646174613a2055524920717565727920666f72206e6f60008301527f6e6578697374656e7420746f6b656e00000000000000000000000000000000006020830152604082019050919050565b60006135c1602183613dfd565b91507f4552433732313a20617070726f76616c20746f2063757272656e74206f776e6560008301527f72000000000000000000000000000000000000000000000000000000000000006020830152604082019050919050565b6000613627603183613dfd565b91507f4552433732313a207472616e736665722063616c6c6572206973206e6f74206f60008301527f776e6572206e6f7220617070726f7665640000000000000000000000000000006020830152604082019050919050565b600061368d602483613dfd565b91507f4e46545f466163746f72793a2054686973206861736820657869737420616c7260008301527f65616479000000000000000000000000000000000000000000000000000000006020830152604082019050919050565b60006136f3601783613e0e565b91507f416363657373436f6e74726f6c3a206163636f756e74200000000000000000006000830152601782019050919050565b6000613733601183613e0e565b91507f206973206d697373696e6720726f6c65200000000000000000000000000000006000830152601182019050919050565b6000613773602f83613dfd565b91507f416363657373436f6e74726f6c3a2063616e206f6e6c792072656e6f756e636560008301527f20726f6c657320666f722073656c6600000000000000000000000000000000006020830152604082019050919050565b6137d581613fa2565b82525050565b6137ec6137e782613fa2565b6140a3565b82525050565b6137fb81613fac565b82525050565b61381261380d82613fac565b6140ad565b82525050565b60006138248285613087565b91506138308284613087565b91508190509392505050565b6000613848828d613087565b9150613854828c613087565b9150613860828b613087565b915061386c828a613087565b91506138788289613087565b91506138848288613087565b91506138908287613801565b6004820191506138a08286613801565b6004820191506138b082856137db565b6020820191506138c082846137db565b6020820191508190509b9a5050505050505050505050565b60006138e3826136e6565b91506138ef8285613087565b91506138fa82613726565b91506139068284613087565b91508190509392505050565b60006020820190506139276000830184612fd9565b92915050565b60006080820190506139426000830187612fd9565b61394f6020830186612fd9565b61395c60408301856137cc565b818103606083015261396e8184613015565b905095945050505050565b600060208201905061398e6000830184612fe8565b92915050565b60006020820190506139a96000830184612ff7565b92915050565b60006020820190506139c46000830184613006565b92915050565b600060208201905081810360008301526139e4818461304e565b905092915050565b6000610160820190508181036000830152613a07818e61304e565b90508181036020830152613a1b818d61304e565b90508181036040830152613a2f818c61304e565b90508181036060830152613a43818b61304e565b90508181036080830152613a57818a61304e565b905081810360a0830152613a6b818961304e565b9050613a7a60c08301886137f2565b613a8760e08301876137f2565b613a956101008301866137cc565b613aa36101208301856137cc565b613ab1610140830184612ff7565b9c9b505050505050505050505050565b60006020820190508181036000830152613ada816130b8565b9050919050565b60006020820190508181036000830152613afa816130f8565b9050919050565b60006020820190508181036000830152613b1a8161315e565b9050919050565b60006020820190508181036000830152613b3a8161319e565b9050919050565b60006020820190508181036000830152613b5a81613204565b9050919050565b60006020820190508181036000830152613b7a81613244565b9050919050565b60006020820190508181036000830152613b9a816132aa565b9050919050565b60006020820190508181036000830152613bba81613310565b9050919050565b60006020820190508181036000830152613bda81613376565b9050919050565b60006020820190508181036000830152613bfa816133dc565b9050919050565b60006020820190508181036000830152613c1a8161341c565b9050919050565b60006020820190508181036000830152613c3a81613482565b9050919050565b60006020820190508181036000830152613c5a816134e8565b9050919050565b60006020820190508181036000830152613c7a8161354e565b9050919050565b60006020820190508181036000830152613c9a816135b4565b9050919050565b60006020820190508181036000830152613cba8161361a565b9050919050565b60006020820190508181036000830152613cda81613680565b9050919050565b60006020820190508181036000830152613cfa81613766565b9050919050565b6000602082019050613d1660008301846137cc565b92915050565b6000604082019050613d3160008301856137cc565b613d3e60208301846137cc565b9392505050565b6000604051905081810181811067ffffffffffffffff82111715613d6c57613d6b61417d565b5b8060405250919050565b600067ffffffffffffffff821115613d9157613d9061417d565b5b601f19601f8301169050602081019050919050565b600067ffffffffffffffff821115613dc157613dc061417d565b5b601f19601f8301169050602081019050919050565b600081519050919050565b600081519050919050565b600082825260208201905092915050565b600082825260208201905092915050565b600081905092915050565b6000613e2482613fa2565b9150613e2f83613fa2565b9250827fffffffffffffffffffffffffffffffffffffffffffffffffffffffffffffffff03821115613e6457613e636140f0565b5b828201905092915050565b6000613e7a82613fa2565b9150613e8583613fa2565b925082613e9557613e9461411f565b5b828204905092915050565b6000613eab82613fa2565b9150613eb683613fa2565b9250817fffffffffffffffffffffffffffffffffffffffffffffffffffffffffffffffff0483118215151615613eef57613eee6140f0565b5b828202905092915050565b6000613f0582613fa2565b9150613f1083613fa2565b925082821015613f2357613f226140f0565b5b828203905092915050565b6000613f3982613f82565b9050919050565b60008115159050919050565b6000819050919050565b60007fffffffff0000000000000000000000000000000000000000000000000000000082169050919050565b600073ffffffffffffffffffffffffffffffffffffffff82169050919050565b6000819050919050565b600063ffffffff82169050919050565b82818337600083830152505050565b60005b83811015613fe9578082015181840152602081019050613fce565b83811115613ff8576000848401525b50505050565b600061400982613fa2565b9150600082141561401d5761401c6140f0565b5b600182039050919050565b6000600282049050600182168061404057607f821691505b602082108114156140545761405361414e565b5b50919050565b600061406582613fa2565b91507fffffffffffffffffffffffffffffffffffffffffffffffffffffffffffffffff821415614098576140976140f0565b5b600182019050919050565b6000819050919050565b60006140b8826141bd565b9050919050565b60006140ca82613fa2565b91506140d583613fa2565b9250826140e5576140e461411f565b5b828206905092915050565b7f4e487b7100000000000000000000000000000000000000000000000000000000600052601160045260246000fd5b7f4e487b7100000000000000000000000000000000000000000000000000000000600052601260045260246000fd5b7f4e487b7100000000000000000000000000000000000000000000000000000000600052602260045260246000fd5b7f4e487b7100000000000000000000000000000000000000000000000000000000600052604160045260246000fd5b6000601f19601f8301169050919050565b60008160e01b9050919050565b6141d381613f2e565b81146141de57600080fd5b50565b6141ea81613f40565b81146141f557600080fd5b50565b61420181613f4c565b811461420c57600080fd5b50565b61421881613f56565b811461422357600080fd5b50565b61422f81613fa2565b811461423a57600080fd5b50565b61424681613fac565b811461425157600080fd5b5056fea2646970667358221220ce68956e561b5332fbd9fdee2a85604e523558fe12360178651a396ae8c6cb2264736f6c63430008000033",
  "immutableReferences": {},
  "source": "// SPDX-License-Identifier: MIT\npragma solidity >=0.8.0 <0.9.0;\nimport \"@openzeppelin/contracts/token/ERC721/ERC721.sol\";\nimport \"@openzeppelin/contracts/token/ERC721/extensions/ERC721URIStorage.sol\";\nimport \"@openzeppelin/contracts/access/AccessControl.sol\";\n\ncontract NFT_Factory is ERC721URIStorage, AccessControl {\n  uint256 public totalOfNFTMinted;\n  struct DATA_INVOICE {\n      string name;\n      string addressGeoOne;\n      string addressGeoTwo;\n      string city;\n      string state;\n      string country;     \n      uint32 zip;\n      uint32 phone;\n      uint256 priceOfSell;\n      uint256 valueOfNFT;\n      bytes32 invoiceHash;\n    }\n\n    DATA_INVOICE[] private _dataInvoices;\n    \n    mapping(bytes32 => bool) private _hashExist;\n   \n    constructor() ERC721(\"Decentralized Invoice Factoring\", \"DIF\") {\n      _setupRole(DEFAULT_ADMIN_ROLE, msg.sender);\n      totalOfNFTMinted = 0;\n  }\n\n    function supportsInterface(bytes4 interfaceId) public view virtual override(AccessControl, ERC721) returns (bool) {\n      return this.supportsInterface(interfaceId);\n  } \n\n  function _assemble(  string memory _name,\n                       string memory _addressGeoOne,\n                       string memory _addressGeoTwo,\n                       string memory _city,\n                       string memory _state,\n                       string memory _country,\n                       uint32 _zip,\n                       uint32 _phone,\n                       uint256 _priceOfSell,\n                       uint256 _valueOfNFT,\n                       bytes32 _hash) private returns(uint256) {\n                        _dataInvoices.push(DATA_INVOICE(\n                          _name,\n                          _addressGeoOne,\n                          _addressGeoTwo,\n                          _city,\n                          _state,\n                          _country,\n                          _zip,\n                          _phone,\n                          _priceOfSell,\n                          _valueOfNFT,\n                          _hash));\n                        uint256 id = _dataInvoices.length - 1;\n                        return id;\n                       }\n\n  function createInvoice(address _recipient, \n                       string memory _name,\n                       string memory _addressGeoOne,\n                       string memory _addressGeoTwo,\n                       string memory _city,\n                       string memory _state,\n                       string memory _country,\n                       uint32 _zip,\n                       uint32 _phone,\n                       uint256 _priceOfSell,\n                       uint256 _valueOfNFT) public onlyRole(DEFAULT_ADMIN_ROLE) {\n                          bytes32 invoiceHash = keccak256(\n                                                  abi.encodePacked(_name,\n                                                                   _addressGeoOne,\n                                                                   _addressGeoTwo,\n                                                                   _city,\n                                                                   _state,\n                                                                   _country,\n                                                                   _zip,\n                                                                   _phone,\n                                                                   _priceOfSell,\n                                                                   _valueOfNFT)\n                                                                   );\n                          \n                          require(! _hashExist[invoiceHash], \"NFT_Factory: This hash exist already\");\n                          _hashExist[invoiceHash] = true;\n                          uint256 newItemId = _assemble( _name,\n                                                         _addressGeoOne,\n                                                         _addressGeoTwo,\n                                                         _city,\n                                                         _state,\n                                                         _country,\n                                                         _zip,\n                                                         _phone,\n                                                         _priceOfSell,\n                                                         _valueOfNFT,\n                                                         invoiceHash);\n                          _mint(_recipient, newItemId);\n                          totalOfNFTMinted += 1;                                               \n                       }\n\n  function getData(uint256 tokenId) public view returns(string memory name,\n                                                        string memory addressGeoOne,\n                                                        string memory addressGeoTwo,\n                                                        string memory city,\n                                                        string memory state,\n                                                        string memory country,\n                                                        uint32 zip,\n                                                        uint32 phone,\n                                                        uint256 priceOfSell,\n                                                        uint256 valueOfNFT,\n                                                        bytes32 invoiceHash) {\n                                                          name = _dataInvoices[tokenId].name;\n                                                          addressGeoOne = _dataInvoices[tokenId].addressGeoOne;\n                                                          addressGeoTwo = _dataInvoices[tokenId].addressGeoTwo;\n                                                          city = _dataInvoices[tokenId].city;\n                                                          state = _dataInvoices[tokenId].state;\n                                                          country = _dataInvoices[tokenId].country;\n                                                          zip = _dataInvoices[tokenId].zip;\n                                                          phone = _dataInvoices[tokenId].phone;\n                                                          priceOfSell = _dataInvoices[tokenId].priceOfSell;\n                                                          valueOfNFT = _dataInvoices[tokenId].valueOfNFT;\n                                                          invoiceHash = _dataInvoices[tokenId].invoiceHash;\n                                                        }\n  function values(uint256 tokenId) public view returns(uint256 priceOfSell, uint256 valueOfNFT) {\n    priceOfSell = _dataInvoices[tokenId].priceOfSell;\n    valueOfNFT = _dataInvoices[tokenId].valueOfNFT;\n  }\n\n}\n\n",
  "sourcePath": "/home/peter/Documents/Reserva/0-Reservafs/Proyectos/DIF_PROJECT/Code/DIF Alpha/contracts/NFT_Factory.sol",
  "compiler": {
    "name": "solc",
    "version": "0.8.0+commit.c7dfd78e.Emscripten.clang"
  },
  "schemaVersion": "3.4.3",
  "updatedAt": "2021-09-27T17:10:09.398Z",
  "networkType": "ethereum",
  "devdoc": {
    "kind": "dev",
    "methods": {
      "approve(address,uint256)": {
        "details": "See {IERC721-approve}."
      },
      "balanceOf(address)": {
        "details": "See {IERC721-balanceOf}."
      },
      "getApproved(uint256)": {
        "details": "See {IERC721-getApproved}."
      },
      "getRoleAdmin(bytes32)": {
        "details": "Returns the admin role that controls `role`. See {grantRole} and {revokeRole}. To change a role's admin, use {_setRoleAdmin}."
      },
      "grantRole(bytes32,address)": {
        "details": "Grants `role` to `account`. If `account` had not been already granted `role`, emits a {RoleGranted} event. Requirements: - the caller must have ``role``'s admin role."
      },
      "hasRole(bytes32,address)": {
        "details": "Returns `true` if `account` has been granted `role`."
      },
      "isApprovedForAll(address,address)": {
        "details": "See {IERC721-isApprovedForAll}."
      },
      "name()": {
        "details": "See {IERC721Metadata-name}."
      },
      "ownerOf(uint256)": {
        "details": "See {IERC721-ownerOf}."
      },
      "renounceRole(bytes32,address)": {
        "details": "Revokes `role` from the calling account. Roles are often managed via {grantRole} and {revokeRole}: this function's purpose is to provide a mechanism for accounts to lose their privileges if they are compromised (such as when a trusted device is misplaced). If the calling account had been granted `role`, emits a {RoleRevoked} event. Requirements: - the caller must be `account`."
      },
      "revokeRole(bytes32,address)": {
        "details": "Revokes `role` from `account`. If `account` had been granted `role`, emits a {RoleRevoked} event. Requirements: - the caller must have ``role``'s admin role."
      },
      "safeTransferFrom(address,address,uint256)": {
        "details": "See {IERC721-safeTransferFrom}."
      },
      "safeTransferFrom(address,address,uint256,bytes)": {
        "details": "See {IERC721-safeTransferFrom}."
      },
      "setApprovalForAll(address,bool)": {
        "details": "See {IERC721-setApprovalForAll}."
      },
      "symbol()": {
        "details": "See {IERC721Metadata-symbol}."
      },
      "tokenURI(uint256)": {
        "details": "See {IERC721Metadata-tokenURI}."
      },
      "transferFrom(address,address,uint256)": {
        "details": "See {IERC721-transferFrom}."
      }
    },
    "version": 1
  },
  "userdoc": {
    "kind": "user",
    "methods": {},
    "version": 1
  }
}