{
  "contractName": "NFT_Factory",
  "abi": [
    {
      "inputs": [],
      "stateMutability": "nonpayable",
      "type": "constructor"
    },
    {
      "anonymous": false,
      "inputs": [
        {
          "indexed": true,
          "internalType": "address",
          "name": "owner",
          "type": "address"
        },
        {
          "indexed": true,
          "internalType": "address",
          "name": "approved",
          "type": "address"
        },
        {
          "indexed": true,
          "internalType": "uint256",
          "name": "tokenId",
          "type": "uint256"
        }
      ],
      "name": "Approval",
      "type": "event"
    },
    {
      "anonymous": false,
      "inputs": [
        {
          "indexed": true,
          "internalType": "address",
          "name": "owner",
          "type": "address"
        },
        {
          "indexed": true,
          "internalType": "address",
          "name": "operator",
          "type": "address"
        },
        {
          "indexed": false,
          "internalType": "bool",
          "name": "approved",
          "type": "bool"
        }
      ],
      "name": "ApprovalForAll",
      "type": "event"
    },
    {
      "anonymous": false,
      "inputs": [
        {
          "indexed": true,
          "internalType": "bytes32",
          "name": "role",
          "type": "bytes32"
        },
        {
          "indexed": true,
          "internalType": "bytes32",
          "name": "previousAdminRole",
          "type": "bytes32"
        },
        {
          "indexed": true,
          "internalType": "bytes32",
          "name": "newAdminRole",
          "type": "bytes32"
        }
      ],
      "name": "RoleAdminChanged",
      "type": "event"
    },
    {
      "anonymous": false,
      "inputs": [
        {
          "indexed": true,
          "internalType": "bytes32",
          "name": "role",
          "type": "bytes32"
        },
        {
          "indexed": true,
          "internalType": "address",
          "name": "account",
          "type": "address"
        },
        {
          "indexed": true,
          "internalType": "address",
          "name": "sender",
          "type": "address"
        }
      ],
      "name": "RoleGranted",
      "type": "event"
    },
    {
      "anonymous": false,
      "inputs": [
        {
          "indexed": true,
          "internalType": "bytes32",
          "name": "role",
          "type": "bytes32"
        },
        {
          "indexed": true,
          "internalType": "address",
          "name": "account",
          "type": "address"
        },
        {
          "indexed": true,
          "internalType": "address",
          "name": "sender",
          "type": "address"
        }
      ],
      "name": "RoleRevoked",
      "type": "event"
    },
    {
      "anonymous": false,
      "inputs": [
        {
          "indexed": true,
          "internalType": "address",
          "name": "from",
          "type": "address"
        },
        {
          "indexed": true,
          "internalType": "address",
          "name": "to",
          "type": "address"
        },
        {
          "indexed": true,
          "internalType": "uint256",
          "name": "tokenId",
          "type": "uint256"
        }
      ],
      "name": "Transfer",
      "type": "event"
    },
    {
      "inputs": [],
      "name": "DEFAULT_ADMIN_ROLE",
      "outputs": [
        {
          "internalType": "bytes32",
          "name": "",
          "type": "bytes32"
        }
      ],
      "stateMutability": "view",
      "type": "function",
      "constant": true
    },
    {
      "inputs": [
        {
          "internalType": "address",
          "name": "to",
          "type": "address"
        },
        {
          "internalType": "uint256",
          "name": "tokenId",
          "type": "uint256"
        }
      ],
      "name": "approve",
      "outputs": [],
      "stateMutability": "nonpayable",
      "type": "function"
    },
    {
      "inputs": [
        {
          "internalType": "address",
          "name": "owner",
          "type": "address"
        }
      ],
      "name": "balanceOf",
      "outputs": [
        {
          "internalType": "uint256",
          "name": "",
          "type": "uint256"
        }
      ],
      "stateMutability": "view",
      "type": "function",
      "constant": true
    },
    {
      "inputs": [
        {
          "internalType": "uint256",
          "name": "tokenId",
          "type": "uint256"
        }
      ],
      "name": "getApproved",
      "outputs": [
        {
          "internalType": "address",
          "name": "",
          "type": "address"
        }
      ],
      "stateMutability": "view",
      "type": "function",
      "constant": true
    },
    {
      "inputs": [
        {
          "internalType": "bytes32",
          "name": "role",
          "type": "bytes32"
        }
      ],
      "name": "getRoleAdmin",
      "outputs": [
        {
          "internalType": "bytes32",
          "name": "",
          "type": "bytes32"
        }
      ],
      "stateMutability": "view",
      "type": "function",
      "constant": true
    },
    {
      "inputs": [
        {
          "internalType": "bytes32",
          "name": "role",
          "type": "bytes32"
        },
        {
          "internalType": "address",
          "name": "account",
          "type": "address"
        }
      ],
      "name": "grantRole",
      "outputs": [],
      "stateMutability": "nonpayable",
      "type": "function"
    },
    {
      "inputs": [
        {
          "internalType": "bytes32",
          "name": "role",
          "type": "bytes32"
        },
        {
          "internalType": "address",
          "name": "account",
          "type": "address"
        }
      ],
      "name": "hasRole",
      "outputs": [
        {
          "internalType": "bool",
          "name": "",
          "type": "bool"
        }
      ],
      "stateMutability": "view",
      "type": "function",
      "constant": true
    },
    {
      "inputs": [
        {
          "internalType": "address",
          "name": "owner",
          "type": "address"
        },
        {
          "internalType": "address",
          "name": "operator",
          "type": "address"
        }
      ],
      "name": "isApprovedForAll",
      "outputs": [
        {
          "internalType": "bool",
          "name": "",
          "type": "bool"
        }
      ],
      "stateMutability": "view",
      "type": "function",
      "constant": true
    },
    {
      "inputs": [],
      "name": "name",
      "outputs": [
        {
          "internalType": "string",
          "name": "",
          "type": "string"
        }
      ],
      "stateMutability": "view",
      "type": "function",
      "constant": true
    },
    {
      "inputs": [
        {
          "internalType": "uint256",
          "name": "tokenId",
          "type": "uint256"
        }
      ],
      "name": "ownerOf",
      "outputs": [
        {
          "internalType": "address",
          "name": "",
          "type": "address"
        }
      ],
      "stateMutability": "view",
      "type": "function",
      "constant": true
    },
    {
      "inputs": [
        {
          "internalType": "bytes32",
          "name": "role",
          "type": "bytes32"
        },
        {
          "internalType": "address",
          "name": "account",
          "type": "address"
        }
      ],
      "name": "renounceRole",
      "outputs": [],
      "stateMutability": "nonpayable",
      "type": "function"
    },
    {
      "inputs": [
        {
          "internalType": "bytes32",
          "name": "role",
          "type": "bytes32"
        },
        {
          "internalType": "address",
          "name": "account",
          "type": "address"
        }
      ],
      "name": "revokeRole",
      "outputs": [],
      "stateMutability": "nonpayable",
      "type": "function"
    },
    {
      "inputs": [
        {
          "internalType": "address",
          "name": "from",
          "type": "address"
        },
        {
          "internalType": "address",
          "name": "to",
          "type": "address"
        },
        {
          "internalType": "uint256",
          "name": "tokenId",
          "type": "uint256"
        }
      ],
      "name": "safeTransferFrom",
      "outputs": [],
      "stateMutability": "nonpayable",
      "type": "function"
    },
    {
      "inputs": [
        {
          "internalType": "address",
          "name": "from",
          "type": "address"
        },
        {
          "internalType": "address",
          "name": "to",
          "type": "address"
        },
        {
          "internalType": "uint256",
          "name": "tokenId",
          "type": "uint256"
        },
        {
          "internalType": "bytes",
          "name": "_data",
          "type": "bytes"
        }
      ],
      "name": "safeTransferFrom",
      "outputs": [],
      "stateMutability": "nonpayable",
      "type": "function"
    },
    {
      "inputs": [
        {
          "internalType": "address",
          "name": "operator",
          "type": "address"
        },
        {
          "internalType": "bool",
          "name": "approved",
          "type": "bool"
        }
      ],
      "name": "setApprovalForAll",
      "outputs": [],
      "stateMutability": "nonpayable",
      "type": "function"
    },
    {
      "inputs": [],
      "name": "symbol",
      "outputs": [
        {
          "internalType": "string",
          "name": "",
          "type": "string"
        }
      ],
      "stateMutability": "view",
      "type": "function",
      "constant": true
    },
    {
      "inputs": [
        {
          "internalType": "uint256",
          "name": "tokenId",
          "type": "uint256"
        }
      ],
      "name": "tokenURI",
      "outputs": [
        {
          "internalType": "string",
          "name": "",
          "type": "string"
        }
      ],
      "stateMutability": "view",
      "type": "function",
      "constant": true
    },
    {
      "inputs": [],
      "name": "totalOfNFTMinted",
      "outputs": [
        {
          "internalType": "uint256",
          "name": "",
          "type": "uint256"
        }
      ],
      "stateMutability": "view",
      "type": "function",
      "constant": true
    },
    {
      "inputs": [
        {
          "internalType": "address",
          "name": "from",
          "type": "address"
        },
        {
          "internalType": "address",
          "name": "to",
          "type": "address"
        },
        {
          "internalType": "uint256",
          "name": "tokenId",
          "type": "uint256"
        }
      ],
      "name": "transferFrom",
      "outputs": [],
      "stateMutability": "nonpayable",
      "type": "function"
    },
    {
      "inputs": [
        {
          "internalType": "bytes4",
          "name": "interfaceId",
          "type": "bytes4"
        }
      ],
      "name": "supportsInterface",
      "outputs": [
        {
          "internalType": "bool",
          "name": "",
          "type": "bool"
        }
      ],
      "stateMutability": "view",
      "type": "function",
      "constant": true
    },
    {
      "inputs": [
        {
          "internalType": "address",
          "name": "_recipient",
          "type": "address"
        },
        {
          "internalType": "string",
          "name": "_name",
          "type": "string"
        },
        {
          "internalType": "string",
          "name": "_addressGeoOne",
          "type": "string"
        },
        {
          "internalType": "string",
          "name": "_addressGeoTwo",
          "type": "string"
        },
        {
          "internalType": "string",
          "name": "_city",
          "type": "string"
        },
        {
          "internalType": "string",
          "name": "_state",
          "type": "string"
        },
        {
          "internalType": "string",
          "name": "_country",
          "type": "string"
        },
        {
          "internalType": "uint32",
          "name": "_zip",
          "type": "uint32"
        },
        {
          "internalType": "uint32",
          "name": "_phone",
          "type": "uint32"
        },
        {
          "internalType": "uint256",
          "name": "_priceOfSell",
          "type": "uint256"
        },
        {
          "internalType": "uint256",
          "name": "_valueOfNFT",
          "type": "uint256"
        }
      ],
      "name": "createInvoice",
      "outputs": [],
      "stateMutability": "nonpayable",
      "type": "function"
    },
    {
      "inputs": [
        {
          "internalType": "uint256",
          "name": "tokenId",
          "type": "uint256"
        }
      ],
      "name": "getData",
      "outputs": [
        {
          "internalType": "string",
          "name": "name",
          "type": "string"
        },
        {
          "internalType": "string",
          "name": "addressGeoOne",
          "type": "string"
        },
        {
          "internalType": "string",
          "name": "addressGeoTwo",
          "type": "string"
        },
        {
          "internalType": "string",
          "name": "city",
          "type": "string"
        },
        {
          "internalType": "string",
          "name": "state",
          "type": "string"
        },
        {
          "internalType": "string",
          "name": "country",
          "type": "string"
        },
        {
          "internalType": "uint32",
          "name": "zip",
          "type": "uint32"
        },
        {
          "internalType": "uint32",
          "name": "phone",
          "type": "uint32"
        },
        {
          "internalType": "uint256",
          "name": "priceOfSell",
          "type": "uint256"
        },
        {
          "internalType": "uint256",
          "name": "valueOfNFT",
          "type": "uint256"
        },
        {
          "internalType": "bytes32",
          "name": "invoiceHash",
          "type": "bytes32"
        }
      ],
      "stateMutability": "view",
      "type": "function",
      "constant": true
    },
    {
      "inputs": [
        {
          "internalType": "uint256",
          "name": "tokenId",
          "type": "uint256"
        }
      ],
      "name": "values",
      "outputs": [
        {
          "internalType": "uint256",
          "name": "priceOfSell",
          "type": "uint256"
        },
        {
          "internalType": "uint256",
          "name": "valueOfNFT",
          "type": "uint256"
        }
      ],
      "stateMutability": "view",
      "type": "function",
      "constant": true
    },
    {
      "inputs": [
        {
          "internalType": "bytes32",
          "name": "hashToken",
          "type": "bytes32"
        }
      ],
      "name": "getTokenid",
      "outputs": [
        {
          "internalType": "uint256",
          "name": "tokenId",
          "type": "uint256"
        }
      ],
      "stateMutability": "view",
      "type": "function",
      "constant": true
    }
  ],
  "bytecode": "0x60806040523480156200001157600080fd5b506040518060400160405280601f81526020017f446563656e7472616c697a656420496e766f69636520466163746f72696e67008152506040518060400160405280600381526020017f444946000000000000000000000000000000000000000000000000000000000081525081600090805190602001906200009692919062000250565b508060019080519060200190620000af92919062000250565b505050620000c76000801b33620000d560201b60201c565b600060088190555062000365565b620000e78282620000eb60201b60201c565b5050565b620000fd8282620001dd60201b60201c565b620001d95760016007600084815260200190815260200160002060000160008373ffffffffffffffffffffffffffffffffffffffff1673ffffffffffffffffffffffffffffffffffffffff16815260200190815260200160002060006101000a81548160ff0219169083151502179055506200017e6200024860201b60201c565b73ffffffffffffffffffffffffffffffffffffffff168173ffffffffffffffffffffffffffffffffffffffff16837f2f8788117e7eff1d82e926ec794901d17c78024a50270940304540a733656f0d60405160405180910390a45b5050565b60006007600084815260200190815260200160002060000160008373ffffffffffffffffffffffffffffffffffffffff1673ffffffffffffffffffffffffffffffffffffffff16815260200190815260200160002060009054906101000a900460ff16905092915050565b600033905090565b8280546200025e9062000300565b90600052602060002090601f016020900481019282620002825760008555620002ce565b82601f106200029d57805160ff1916838001178555620002ce565b82800160010185558215620002ce579182015b82811115620002cd578251825591602001919060010190620002b0565b5b509050620002dd9190620002e1565b5090565b5b80821115620002fc576000816000905550600101620002e2565b5090565b600060028204905060018216806200031957607f821691505b6020821081141562000330576200032f62000336565b5b50919050565b7f4e487b7100000000000000000000000000000000000000000000000000000000600052602260045260246000fd5b6142fa80620003756000396000f3fe608060405234801561001057600080fd5b50600436106101585760003560e01c80635e383d21116100c3578063a217fddf1161007c578063a217fddf1461041a578063a22cb46514610438578063b88d4fde14610454578063c87b56dd14610470578063d547741f146104a0578063e985e9c5146104bc57610158565b80635e383d211461030b5780636352211e1461033c57806370a082311461036c5780637c5295d11461039c57806391d14854146103cc57806395d89b41146103fc57610158565b806323b872dd1161011557806323b872dd1461024d578063248a9ca3146102695780632f2ff15d1461029957806336568abe146102b55780633d14da80146102d157806342842e0e146102ef57610158565b80630178fe3f1461015d57806301ffc9a71461019757806306fdde03146101c7578063081812fc146101e5578063095ea7b314610215578063146975a014610231575b600080fd5b61017760048036038101906101729190613020565b6104ec565b60405161018e9b9a99989796959493929190613a5c565b60405180910390f35b6101b160048036038101906101ac9190612fce565b610bb6565b6040516101be91906139e9565b60405180910390f35b6101cf610c48565b6040516101dc9190613a3a565b60405180910390f35b6101ff60048036038101906101fa9190613020565b610cda565b60405161020c9190613982565b60405180910390f35b61022f600480360381019061022a9190612f04565b610d5f565b005b61024b60048036038101906102469190612d84565b610e77565b005b61026760048036038101906102629190612c7e565b610fb9565b005b610283600480360381019061027e9190612f69565b611019565b6040516102909190613a04565b60405180910390f35b6102b360048036038101906102ae9190612f92565b611039565b005b6102cf60048036038101906102ca9190612f92565b611062565b005b6102d96110e5565b6040516102e69190613d71565b60405180910390f35b61030960048036038101906103049190612c7e565b6110eb565b005b61032560048036038101906103209190613020565b61110b565b604051610333929190613d8c565b60405180910390f35b61035660048036038101906103519190613020565b6111af565b6040516103639190613982565b60405180910390f35b61038660048036038101906103819190612c19565b611261565b6040516103939190613d71565b60405180910390f35b6103b660048036038101906103b19190612f69565b611319565b6040516103c39190613d71565b60405180910390f35b6103e660048036038101906103e19190612f92565b611336565b6040516103f391906139e9565b60405180910390f35b6104046113a1565b6040516104119190613a3a565b60405180910390f35b610422611433565b60405161042f9190613a04565b60405180910390f35b610452600480360381019061044d9190612d48565b61143a565b005b61046e60048036038101906104699190612ccd565b6115bb565b005b61048a60048036038101906104859190613020565b61161d565b6040516104979190613a3a565b60405180910390f35b6104ba60048036038101906104b59190612f92565b61176f565b005b6104d660048036038101906104d19190612c42565b611798565b6040516104e391906139e9565b60405180910390f35b606080606080606080600080600080600060098c81548110610537577f4e487b7100000000000000000000000000000000000000000000000000000000600052603260045260246000fd5b90600052602060002090600a0201600001805461055390614098565b80601f016020809104026020016040519081016040528092919081815260200182805461057f90614098565b80156105cc5780601f106105a1576101008083540402835291602001916105cc565b820191906000526020600020905b8154815290600101906020018083116105af57829003601f168201915b50505050509a5060098c8154811061060d577f4e487b7100000000000000000000000000000000000000000000000000000000600052603260045260246000fd5b90600052602060002090600a0201600101805461062990614098565b80601f016020809104026020016040519081016040528092919081815260200182805461065590614098565b80156106a25780601f10610677576101008083540402835291602001916106a2565b820191906000526020600020905b81548152906001019060200180831161068557829003601f168201915b5050505050995060098c815481106106e3577f4e487b7100000000000000000000000000000000000000000000000000000000600052603260045260246000fd5b90600052602060002090600a020160020180546106ff90614098565b80601f016020809104026020016040519081016040528092919081815260200182805461072b90614098565b80156107785780601f1061074d57610100808354040283529160200191610778565b820191906000526020600020905b81548152906001019060200180831161075b57829003601f168201915b5050505050985060098c815481106107b9577f4e487b7100000000000000000000000000000000000000000000000000000000600052603260045260246000fd5b90600052602060002090600a020160030180546107d590614098565b80601f016020809104026020016040519081016040528092919081815260200182805461080190614098565b801561084e5780601f106108235761010080835404028352916020019161084e565b820191906000526020600020905b81548152906001019060200180831161083157829003601f168201915b5050505050975060098c8154811061088f577f4e487b7100000000000000000000000000000000000000000000000000000000600052603260045260246000fd5b90600052602060002090600a020160040180546108ab90614098565b80601f01602080910402602001604051908101604052809291908181526020018280546108d790614098565b80156109245780601f106108f957610100808354040283529160200191610924565b820191906000526020600020905b81548152906001019060200180831161090757829003601f168201915b5050505050965060098c81548110610965577f4e487b7100000000000000000000000000000000000000000000000000000000600052603260045260246000fd5b90600052602060002090600a0201600501805461098190614098565b80601f01602080910402602001604051908101604052809291908181526020018280546109ad90614098565b80156109fa5780601f106109cf576101008083540402835291602001916109fa565b820191906000526020600020905b8154815290600101906020018083116109dd57829003601f168201915b5050505050955060098c81548110610a3b577f4e487b7100000000000000000000000000000000000000000000000000000000600052603260045260246000fd5b90600052602060002090600a020160060160009054906101000a900463ffffffff16945060098c81548110610a99577f4e487b7100000000000000000000000000000000000000000000000000000000600052603260045260246000fd5b90600052602060002090600a020160060160049054906101000a900463ffffffff16935060098c81548110610af7577f4e487b7100000000000000000000000000000000000000000000000000000000600052603260045260246000fd5b90600052602060002090600a020160070154925060098c81548110610b45577f4e487b7100000000000000000000000000000000000000000000000000000000600052603260045260246000fd5b90600052602060002090600a020160080154915060098c81548110610b93577f4e487b7100000000000000000000000000000000000000000000000000000000600052603260045260246000fd5b90600052602060002090600a020160090154905091939597999b90929496989a50565b60003073ffffffffffffffffffffffffffffffffffffffff166301ffc9a7836040518263ffffffff1660e01b8152600401610bf19190613a1f565b60206040518083038186803b158015610c0957600080fd5b505afa158015610c1d573d6000803e3d6000fd5b505050506040513d601f19601f82011682018060405250810190610c419190612f40565b9050919050565b606060008054610c5790614098565b80601f0160208091040260200160405190810160405280929190818152602001828054610c8390614098565b8015610cd05780601f10610ca557610100808354040283529160200191610cd0565b820191906000526020600020905b815481529060010190602001808311610cb357829003601f168201915b5050505050905090565b6000610ce58261182c565b610d24576040517f08c379a0000000000000000000000000000000000000000000000000000000008152600401610d1b90613c91565b60405180910390fd5b6004600083815260200190815260200160002060009054906101000a900473ffffffffffffffffffffffffffffffffffffffff169050919050565b6000610d6a826111af565b90508073ffffffffffffffffffffffffffffffffffffffff168373ffffffffffffffffffffffffffffffffffffffff161415610ddb576040517f08c379a0000000000000000000000000000000000000000000000000000000008152600401610dd290613cf1565b60405180910390fd5b8073ffffffffffffffffffffffffffffffffffffffff16610dfa611898565b73ffffffffffffffffffffffffffffffffffffffff161480610e295750610e2881610e23611898565b611798565b5b610e68576040517f08c379a0000000000000000000000000000000000000000000000000000000008152600401610e5f90613bf1565b60405180910390fd5b610e7283836118a0565b505050565b6000801b610e8c81610e87611898565b611959565b60008b8b8b8b8b8b8b8b8b8b604051602001610eb19a999897969594939291906138ac565b604051602081830303815290604052805190602001209050600b600082815260200190815260200160002060009054906101000a900460ff1615610f2a576040517f08c379a0000000000000000000000000000000000000000000000000000000008152600401610f2190613d31565b60405180910390fd5b6001600b600083815260200190815260200160002060006101000a81548160ff0219169083151502179055506000610f6b8d8d8d8d8d8d8d8d8d8d8c6119f6565b905080600a600084815260200190815260200160002081905550610f8f8e82611bc3565b600160086000828254610fa29190613e89565b925050819055505050505050505050505050505050565b610fca610fc4611898565b82611d91565b611009576040517f08c379a000000000000000000000000000000000000000000000000000000000815260040161100090613d11565b60405180910390fd5b611014838383611e6f565b505050565b600060076000838152602001908152602001600020600101549050919050565b61104282611019565b6110538161104e611898565b611959565b61105d83836120cb565b505050565b61106a611898565b73ffffffffffffffffffffffffffffffffffffffff168173ffffffffffffffffffffffffffffffffffffffff16146110d7576040517f08c379a00000000000000000000000000000000000000000000000000000000081526004016110ce90613d51565b60405180910390fd5b6110e182826121ac565b5050565b60085481565b611106838383604051806020016040528060008152506115bb565b505050565b60008060098381548110611148577f4e487b7100000000000000000000000000000000000000000000000000000000600052603260045260246000fd5b90600052602060002090600a020160070154915060098381548110611196577f4e487b7100000000000000000000000000000000000000000000000000000000600052603260045260246000fd5b90600052602060002090600a0201600801549050915091565b6000806002600084815260200190815260200160002060009054906101000a900473ffffffffffffffffffffffffffffffffffffffff169050600073ffffffffffffffffffffffffffffffffffffffff168173ffffffffffffffffffffffffffffffffffffffff161415611258576040517f08c379a000000000000000000000000000000000000000000000000000000000815260040161124f90613c31565b60405180910390fd5b80915050919050565b60008073ffffffffffffffffffffffffffffffffffffffff168273ffffffffffffffffffffffffffffffffffffffff1614156112d2576040517f08c379a00000000000000000000000000000000000000000000000000000000081526004016112c990613c11565b60405180910390fd5b600360008373ffffffffffffffffffffffffffffffffffffffff1673ffffffffffffffffffffffffffffffffffffffff168152602001908152602001600020549050919050565b6000600a6000838152602001908152602001600020549050919050565b60006007600084815260200190815260200160002060000160008373ffffffffffffffffffffffffffffffffffffffff1673ffffffffffffffffffffffffffffffffffffffff16815260200190815260200160002060009054906101000a900460ff16905092915050565b6060600180546113b090614098565b80601f01602080910402602001604051908101604052809291908181526020018280546113dc90614098565b80156114295780601f106113fe57610100808354040283529160200191611429565b820191906000526020600020905b81548152906001019060200180831161140c57829003601f168201915b5050505050905090565b6000801b81565b611442611898565b73ffffffffffffffffffffffffffffffffffffffff168273ffffffffffffffffffffffffffffffffffffffff1614156114b0576040517f08c379a00000000000000000000000000000000000000000000000000000000081526004016114a790613bb1565b60405180910390fd5b80600560006114bd611898565b73ffffffffffffffffffffffffffffffffffffffff1673ffffffffffffffffffffffffffffffffffffffff16815260200190815260200160002060008473ffffffffffffffffffffffffffffffffffffffff1673ffffffffffffffffffffffffffffffffffffffff16815260200190815260200160002060006101000a81548160ff0219169083151502179055508173ffffffffffffffffffffffffffffffffffffffff1661156a611898565b73ffffffffffffffffffffffffffffffffffffffff167f17307eab39ab6107e8899845ad3d59bd9653f200f220920489ca2b5937696c31836040516115af91906139e9565b60405180910390a35050565b6115cc6115c6611898565b83611d91565b61160b576040517f08c379a000000000000000000000000000000000000000000000000000000000815260040161160290613d11565b60405180910390fd5b6116178484848461228e565b50505050565b60606116288261182c565b611667576040517f08c379a000000000000000000000000000000000000000000000000000000000815260040161165e90613c71565b60405180910390fd5b600060066000848152602001908152602001600020805461168790614098565b80601f01602080910402602001604051908101604052809291908181526020018280546116b390614098565b80156117005780601f106116d557610100808354040283529160200191611700565b820191906000526020600020905b8154815290600101906020018083116116e357829003601f168201915b5050505050905060006117116122ea565b905060008151141561172757819250505061176a565b60008251111561175c578082604051602001611744929190613888565b6040516020818303038152906040529250505061176a565b61176584612301565b925050505b919050565b61177882611019565b61178981611784611898565b611959565b61179383836121ac565b505050565b6000600560008473ffffffffffffffffffffffffffffffffffffffff1673ffffffffffffffffffffffffffffffffffffffff16815260200190815260200160002060008373ffffffffffffffffffffffffffffffffffffffff1673ffffffffffffffffffffffffffffffffffffffff16815260200190815260200160002060009054906101000a900460ff16905092915050565b60008073ffffffffffffffffffffffffffffffffffffffff166002600084815260200190815260200160002060009054906101000a900473ffffffffffffffffffffffffffffffffffffffff1673ffffffffffffffffffffffffffffffffffffffff1614159050919050565b600033905090565b816004600083815260200190815260200160002060006101000a81548173ffffffffffffffffffffffffffffffffffffffff021916908373ffffffffffffffffffffffffffffffffffffffff160217905550808273ffffffffffffffffffffffffffffffffffffffff16611913836111af565b73ffffffffffffffffffffffffffffffffffffffff167f8c5be1e5ebec7d5bd14f71427d1e84f3dd0314c0f7b2291e5b200ac8c7c3b92560405160405180910390a45050565b6119638282611336565b6119f2576119888173ffffffffffffffffffffffffffffffffffffffff1660146123a8565b6119968360001c60206123a8565b6040516020016119a7929190613948565b6040516020818303038152906040526040517f08c379a00000000000000000000000000000000000000000000000000000000081526004016119e99190613a3a565b60405180910390fd5b5050565b600060096040518061016001604052808e81526020018d81526020018c81526020018b81526020018a81526020018981526020018863ffffffff1681526020018763ffffffff1681526020018681526020018581526020018481525090806001815401808255809150506001900390600052602060002090600a02016000909190919091506000820151816000019080519060200190611a979291906129fe565b506020820151816001019080519060200190611ab49291906129fe565b506040820151816002019080519060200190611ad19291906129fe565b506060820151816003019080519060200190611aee9291906129fe565b506080820151816004019080519060200190611b0b9291906129fe565b5060a0820151816005019080519060200190611b289291906129fe565b5060c08201518160060160006101000a81548163ffffffff021916908363ffffffff16021790555060e08201518160060160046101000a81548163ffffffff021916908363ffffffff160217905550610100820151816007015561012082015181600801556101408201518160090155505060006001600980549050611bae9190613f6a565b9050809150509b9a5050505050505050505050565b600073ffffffffffffffffffffffffffffffffffffffff168273ffffffffffffffffffffffffffffffffffffffff161415611c33576040517f08c379a0000000000000000000000000000000000000000000000000000000008152600401611c2a90613c51565b60405180910390fd5b611c3c8161182c565b15611c7c576040517f08c379a0000000000000000000000000000000000000000000000000000000008152600401611c7390613b71565b60405180910390fd5b611c88600083836126a2565b6001600360008473ffffffffffffffffffffffffffffffffffffffff1673ffffffffffffffffffffffffffffffffffffffff1681526020019081526020016000206000828254611cd89190613e89565b92505081905550816002600083815260200190815260200160002060006101000a81548173ffffffffffffffffffffffffffffffffffffffff021916908373ffffffffffffffffffffffffffffffffffffffff160217905550808273ffffffffffffffffffffffffffffffffffffffff16600073ffffffffffffffffffffffffffffffffffffffff167fddf252ad1be2c89b69c2b068fc378daa952ba7f163c4a11628f55a4df523b3ef60405160405180910390a45050565b6000611d9c8261182c565b611ddb576040517f08c379a0000000000000000000000000000000000000000000000000000000008152600401611dd290613bd1565b60405180910390fd5b6000611de6836111af565b90508073ffffffffffffffffffffffffffffffffffffffff168473ffffffffffffffffffffffffffffffffffffffff161480611e5557508373ffffffffffffffffffffffffffffffffffffffff16611e3d84610cda565b73ffffffffffffffffffffffffffffffffffffffff16145b80611e665750611e658185611798565b5b91505092915050565b8273ffffffffffffffffffffffffffffffffffffffff16611e8f826111af565b73ffffffffffffffffffffffffffffffffffffffff1614611ee5576040517f08c379a0000000000000000000000000000000000000000000000000000000008152600401611edc90613cb1565b60405180910390fd5b600073ffffffffffffffffffffffffffffffffffffffff168273ffffffffffffffffffffffffffffffffffffffff161415611f55576040517f08c379a0000000000000000000000000000000000000000000000000000000008152600401611f4c90613b91565b60405180910390fd5b611f608383836126a2565b611f6b6000826118a0565b6001600360008573ffffffffffffffffffffffffffffffffffffffff1673ffffffffffffffffffffffffffffffffffffffff1681526020019081526020016000206000828254611fbb9190613f6a565b925050819055506001600360008473ffffffffffffffffffffffffffffffffffffffff1673ffffffffffffffffffffffffffffffffffffffff16815260200190815260200160002060008282546120129190613e89565b92505081905550816002600083815260200190815260200160002060006101000a81548173ffffffffffffffffffffffffffffffffffffffff021916908373ffffffffffffffffffffffffffffffffffffffff160217905550808273ffffffffffffffffffffffffffffffffffffffff168473ffffffffffffffffffffffffffffffffffffffff167fddf252ad1be2c89b69c2b068fc378daa952ba7f163c4a11628f55a4df523b3ef60405160405180910390a4505050565b6120d58282611336565b6121a85760016007600084815260200190815260200160002060000160008373ffffffffffffffffffffffffffffffffffffffff1673ffffffffffffffffffffffffffffffffffffffff16815260200190815260200160002060006101000a81548160ff02191690831515021790555061214d611898565b73ffffffffffffffffffffffffffffffffffffffff168173ffffffffffffffffffffffffffffffffffffffff16837f2f8788117e7eff1d82e926ec794901d17c78024a50270940304540a733656f0d60405160405180910390a45b5050565b6121b68282611336565b1561228a5760006007600084815260200190815260200160002060000160008373ffffffffffffffffffffffffffffffffffffffff1673ffffffffffffffffffffffffffffffffffffffff16815260200190815260200160002060006101000a81548160ff02191690831515021790555061222f611898565b73ffffffffffffffffffffffffffffffffffffffff168173ffffffffffffffffffffffffffffffffffffffff16837ff6391f5c32d9c69d2a47ea670b442974b53935d1edc7fd64eb21e047a839171b60405160405180910390a45b5050565b612299848484611e6f565b6122a5848484846126a7565b6122e4576040517f08c379a00000000000000000000000000000000000000000000000000000000081526004016122db90613b51565b60405180910390fd5b50505050565b606060405180602001604052806000815250905090565b606061230c8261182c565b61234b576040517f08c379a000000000000000000000000000000000000000000000000000000000815260040161234290613cd1565b60405180910390fd5b60006123556122ea565b9050600081511161237557604051806020016040528060008152506123a0565b8061237f8461283e565b604051602001612390929190613888565b6040516020818303038152906040525b915050919050565b6060600060028360026123bb9190613f10565b6123c59190613e89565b67ffffffffffffffff811115612404577f4e487b7100000000000000000000000000000000000000000000000000000000600052604160045260246000fd5b6040519080825280601f01601f1916602001820160405280156124365781602001600182028036833780820191505090505b5090507f300000000000000000000000000000000000000000000000000000000000000081600081518110612494577f4e487b7100000000000000000000000000000000000000000000000000000000600052603260045260246000fd5b60200101907effffffffffffffffffffffffffffffffffffffffffffffffffffffffffffff1916908160001a9053507f78000000000000000000000000000000000000000000000000000000000000008160018151811061251e577f4e487b7100000000000000000000000000000000000000000000000000000000600052603260045260246000fd5b60200101907effffffffffffffffffffffffffffffffffffffffffffffffffffffffffffff1916908160001a9053506000600184600261255e9190613f10565b6125689190613e89565b90505b6001811115612654577f3031323334353637383961626364656600000000000000000000000000000000600f8616601081106125d0577f4e487b7100000000000000000000000000000000000000000000000000000000600052603260045260246000fd5b1a60f81b82828151811061260d577f4e487b7100000000000000000000000000000000000000000000000000000000600052603260045260246000fd5b60200101907effffffffffffffffffffffffffffffffffffffffffffffffffffffffffffff1916908160001a905350600485901c94508061264d9061406e565b905061256b565b5060008414612698576040517f08c379a000000000000000000000000000000000000000000000000000000000815260040161268f90613b31565b60405180910390fd5b8091505092915050565b505050565b60006126c88473ffffffffffffffffffffffffffffffffffffffff166129eb565b15612831578373ffffffffffffffffffffffffffffffffffffffff1663150b7a026126f1611898565b8786866040518563ffffffff1660e01b8152600401612713949392919061399d565b602060405180830381600087803b15801561272d57600080fd5b505af192505050801561275e57506040513d601f19601f8201168201806040525081019061275b9190612ff7565b60015b6127e1573d806000811461278e576040519150601f19603f3d011682016040523d82523d6000602084013e612793565b606091505b506000815114156127d9576040517f08c379a00000000000000000000000000000000000000000000000000000000081526004016127d090613b51565b60405180910390fd5b805181602001fd5b63150b7a0260e01b7bffffffffffffffffffffffffffffffffffffffffffffffffffffffff1916817bffffffffffffffffffffffffffffffffffffffffffffffffffffffff191614915050612836565b600190505b949350505050565b60606000821415612886576040518060400160405280600181526020017f300000000000000000000000000000000000000000000000000000000000000081525090506129e6565b600082905060005b600082146128b85780806128a1906140ca565b915050600a826128b19190613edf565b915061288e565b60008167ffffffffffffffff8111156128fa577f4e487b7100000000000000000000000000000000000000000000000000000000600052604160045260246000fd5b6040519080825280601f01601f19166020018201604052801561292c5781602001600182028036833780820191505090505b5090505b600085146129df576001826129459190613f6a565b9150600a85612954919061412f565b60306129609190613e89565b60f81b81838151811061299c577f4e487b7100000000000000000000000000000000000000000000000000000000600052603260045260246000fd5b60200101907effffffffffffffffffffffffffffffffffffffffffffffffffffffffffffff1916908160001a905350600a856129d89190613edf565b9450612930565b8093505050505b919050565b600080823b905060008111915050919050565b828054612a0a90614098565b90600052602060002090601f016020900481019282612a2c5760008555612a73565b82601f10612a4557805160ff1916838001178555612a73565b82800160010185558215612a73579182015b82811115612a72578251825591602001919060010190612a57565b5b509050612a809190612a84565b5090565b5b80821115612a9d576000816000905550600101612a85565b5090565b6000612ab4612aaf84613de6565b613db5565b905082815260208101848484011115612acc57600080fd5b612ad784828561402c565b509392505050565b6000612af2612aed84613e16565b613db5565b905082815260208101848484011115612b0a57600080fd5b612b1584828561402c565b509392505050565b600081359050612b2c8161423a565b92915050565b600081359050612b4181614251565b92915050565b600081519050612b5681614251565b92915050565b600081359050612b6b81614268565b92915050565b600081359050612b808161427f565b92915050565b600081519050612b958161427f565b92915050565b600082601f830112612bac57600080fd5b8135612bbc848260208601612aa1565b91505092915050565b600082601f830112612bd657600080fd5b8135612be6848260208601612adf565b91505092915050565b600081359050612bfe81614296565b92915050565b600081359050612c13816142ad565b92915050565b600060208284031215612c2b57600080fd5b6000612c3984828501612b1d565b91505092915050565b60008060408385031215612c5557600080fd5b6000612c6385828601612b1d565b9250506020612c7485828601612b1d565b9150509250929050565b600080600060608486031215612c9357600080fd5b6000612ca186828701612b1d565b9350506020612cb286828701612b1d565b9250506040612cc386828701612bef565b9150509250925092565b60008060008060808587031215612ce357600080fd5b6000612cf187828801612b1d565b9450506020612d0287828801612b1d565b9350506040612d1387828801612bef565b925050606085013567ffffffffffffffff811115612d3057600080fd5b612d3c87828801612b9b565b91505092959194509250565b60008060408385031215612d5b57600080fd5b6000612d6985828601612b1d565b9250506020612d7a85828601612b32565b9150509250929050565b60008060008060008060008060008060006101608c8e031215612da657600080fd5b6000612db48e828f01612b1d565b9b505060208c013567ffffffffffffffff811115612dd157600080fd5b612ddd8e828f01612bc5565b9a505060408c013567ffffffffffffffff811115612dfa57600080fd5b612e068e828f01612bc5565b99505060608c013567ffffffffffffffff811115612e2357600080fd5b612e2f8e828f01612bc5565b98505060808c013567ffffffffffffffff811115612e4c57600080fd5b612e588e828f01612bc5565b97505060a08c013567ffffffffffffffff811115612e7557600080fd5b612e818e828f01612bc5565b96505060c08c013567ffffffffffffffff811115612e9e57600080fd5b612eaa8e828f01612bc5565b95505060e0612ebb8e828f01612c04565b945050610100612ecd8e828f01612c04565b935050610120612edf8e828f01612bef565b925050610140612ef18e828f01612bef565b9150509295989b509295989b9093969950565b60008060408385031215612f1757600080fd5b6000612f2585828601612b1d565b9250506020612f3685828601612bef565b9150509250929050565b600060208284031215612f5257600080fd5b6000612f6084828501612b47565b91505092915050565b600060208284031215612f7b57600080fd5b6000612f8984828501612b5c565b91505092915050565b60008060408385031215612fa557600080fd5b6000612fb385828601612b5c565b9250506020612fc485828601612b1d565b9150509250929050565b600060208284031215612fe057600080fd5b6000612fee84828501612b71565b91505092915050565b60006020828403121561300957600080fd5b600061301784828501612b86565b91505092915050565b60006020828403121561303257600080fd5b600061304084828501612bef565b91505092915050565b61305281613f9e565b82525050565b61306181613fb0565b82525050565b61307081613fbc565b82525050565b61307f81613fc6565b82525050565b600061309082613e46565b61309a8185613e5c565b93506130aa81856020860161403b565b6130b38161421c565b840191505092915050565b60006130c982613e51565b6130d38185613e6d565b93506130e381856020860161403b565b6130ec8161421c565b840191505092915050565b600061310282613e51565b61310c8185613e7e565b935061311c81856020860161403b565b80840191505092915050565b6000613135602083613e6d565b91507f537472696e67733a20686578206c656e67746820696e73756666696369656e746000830152602082019050919050565b6000613175603283613e6d565b91507f4552433732313a207472616e7366657220746f206e6f6e20455243373231526560008301527f63656976657220696d706c656d656e74657200000000000000000000000000006020830152604082019050919050565b60006131db601c83613e6d565b91507f4552433732313a20746f6b656e20616c7265616479206d696e746564000000006000830152602082019050919050565b600061321b602483613e6d565b91507f4552433732313a207472616e7366657220746f20746865207a65726f2061646460008301527f72657373000000000000000000000000000000000000000000000000000000006020830152604082019050919050565b6000613281601983613e6d565b91507f4552433732313a20617070726f766520746f2063616c6c6572000000000000006000830152602082019050919050565b60006132c1602c83613e6d565b91507f4552433732313a206f70657261746f7220717565727920666f72206e6f6e657860008301527f697374656e7420746f6b656e00000000000000000000000000000000000000006020830152604082019050919050565b6000613327603883613e6d565b91507f4552433732313a20617070726f76652063616c6c6572206973206e6f74206f7760008301527f6e6572206e6f7220617070726f76656420666f7220616c6c00000000000000006020830152604082019050919050565b600061338d602a83613e6d565b91507f4552433732313a2062616c616e636520717565727920666f7220746865207a6560008301527f726f2061646472657373000000000000000000000000000000000000000000006020830152604082019050919050565b60006133f3602983613e6d565b91507f4552433732313a206f776e657220717565727920666f72206e6f6e657869737460008301527f656e7420746f6b656e00000000000000000000000000000000000000000000006020830152604082019050919050565b6000613459602083613e6d565b91507f4552433732313a206d696e7420746f20746865207a65726f20616464726573736000830152602082019050919050565b6000613499603183613e6d565b91507f45524337323155524953746f726167653a2055524920717565727920666f722060008301527f6e6f6e6578697374656e7420746f6b656e0000000000000000000000000000006020830152604082019050919050565b60006134ff602c83613e6d565b91507f4552433732313a20617070726f76656420717565727920666f72206e6f6e657860008301527f697374656e7420746f6b656e00000000000000000000000000000000000000006020830152604082019050919050565b6000613565602983613e6d565b91507f4552433732313a207472616e73666572206f6620746f6b656e2074686174206960008301527f73206e6f74206f776e00000000000000000000000000000000000000000000006020830152604082019050919050565b60006135cb602f83613e6d565b91507f4552433732314d657461646174613a2055524920717565727920666f72206e6f60008301527f6e6578697374656e7420746f6b656e00000000000000000000000000000000006020830152604082019050919050565b6000613631602183613e6d565b91507f4552433732313a20617070726f76616c20746f2063757272656e74206f776e6560008301527f72000000000000000000000000000000000000000000000000000000000000006020830152604082019050919050565b6000613697603183613e6d565b91507f4552433732313a207472616e736665722063616c6c6572206973206e6f74206f60008301527f776e6572206e6f7220617070726f7665640000000000000000000000000000006020830152604082019050919050565b60006136fd602483613e6d565b91507f4e46545f466163746f72793a2054686973206861736820657869737420616c7260008301527f65616479000000000000000000000000000000000000000000000000000000006020830152604082019050919050565b6000613763601783613e7e565b91507f416363657373436f6e74726f6c3a206163636f756e74200000000000000000006000830152601782019050919050565b60006137a3601183613e7e565b91507f206973206d697373696e6720726f6c65200000000000000000000000000000006000830152601182019050919050565b60006137e3602f83613e6d565b91507f416363657373436f6e74726f6c3a2063616e206f6e6c792072656e6f756e636560008301527f20726f6c657320666f722073656c6600000000000000000000000000000000006020830152604082019050919050565b61384581614012565b82525050565b61385c61385782614012565b614113565b82525050565b61386b8161401c565b82525050565b61388261387d8261401c565b61411d565b82525050565b600061389482856130f7565b91506138a082846130f7565b91508190509392505050565b60006138b8828d6130f7565b91506138c4828c6130f7565b91506138d0828b6130f7565b91506138dc828a6130f7565b91506138e882896130f7565b91506138f482886130f7565b91506139008287613871565b6004820191506139108286613871565b600482019150613920828561384b565b602082019150613930828461384b565b6020820191508190509b9a5050505050505050505050565b600061395382613756565b915061395f82856130f7565b915061396a82613796565b915061397682846130f7565b91508190509392505050565b60006020820190506139976000830184613049565b92915050565b60006080820190506139b26000830187613049565b6139bf6020830186613049565b6139cc604083018561383c565b81810360608301526139de8184613085565b905095945050505050565b60006020820190506139fe6000830184613058565b92915050565b6000602082019050613a196000830184613067565b92915050565b6000602082019050613a346000830184613076565b92915050565b60006020820190508181036000830152613a5481846130be565b905092915050565b6000610160820190508181036000830152613a77818e6130be565b90508181036020830152613a8b818d6130be565b90508181036040830152613a9f818c6130be565b90508181036060830152613ab3818b6130be565b90508181036080830152613ac7818a6130be565b905081810360a0830152613adb81896130be565b9050613aea60c0830188613862565b613af760e0830187613862565b613b0561010083018661383c565b613b1361012083018561383c565b613b21610140830184613067565b9c9b505050505050505050505050565b60006020820190508181036000830152613b4a81613128565b9050919050565b60006020820190508181036000830152613b6a81613168565b9050919050565b60006020820190508181036000830152613b8a816131ce565b9050919050565b60006020820190508181036000830152613baa8161320e565b9050919050565b60006020820190508181036000830152613bca81613274565b9050919050565b60006020820190508181036000830152613bea816132b4565b9050919050565b60006020820190508181036000830152613c0a8161331a565b9050919050565b60006020820190508181036000830152613c2a81613380565b9050919050565b60006020820190508181036000830152613c4a816133e6565b9050919050565b60006020820190508181036000830152613c6a8161344c565b9050919050565b60006020820190508181036000830152613c8a8161348c565b9050919050565b60006020820190508181036000830152613caa816134f2565b9050919050565b60006020820190508181036000830152613cca81613558565b9050919050565b60006020820190508181036000830152613cea816135be565b9050919050565b60006020820190508181036000830152613d0a81613624565b9050919050565b60006020820190508181036000830152613d2a8161368a565b9050919050565b60006020820190508181036000830152613d4a816136f0565b9050919050565b60006020820190508181036000830152613d6a816137d6565b9050919050565b6000602082019050613d86600083018461383c565b92915050565b6000604082019050613da1600083018561383c565b613dae602083018461383c565b9392505050565b6000604051905081810181811067ffffffffffffffff82111715613ddc57613ddb6141ed565b5b8060405250919050565b600067ffffffffffffffff821115613e0157613e006141ed565b5b601f19601f8301169050602081019050919050565b600067ffffffffffffffff821115613e3157613e306141ed565b5b601f19601f8301169050602081019050919050565b600081519050919050565b600081519050919050565b600082825260208201905092915050565b600082825260208201905092915050565b600081905092915050565b6000613e9482614012565b9150613e9f83614012565b9250827fffffffffffffffffffffffffffffffffffffffffffffffffffffffffffffffff03821115613ed457613ed3614160565b5b828201905092915050565b6000613eea82614012565b9150613ef583614012565b925082613f0557613f0461418f565b5b828204905092915050565b6000613f1b82614012565b9150613f2683614012565b9250817fffffffffffffffffffffffffffffffffffffffffffffffffffffffffffffffff0483118215151615613f5f57613f5e614160565b5b828202905092915050565b6000613f7582614012565b9150613f8083614012565b925082821015613f9357613f92614160565b5b828203905092915050565b6000613fa982613ff2565b9050919050565b60008115159050919050565b6000819050919050565b60007fffffffff0000000000000000000000000000000000000000000000000000000082169050919050565b600073ffffffffffffffffffffffffffffffffffffffff82169050919050565b6000819050919050565b600063ffffffff82169050919050565b82818337600083830152505050565b60005b8381101561405957808201518184015260208101905061403e565b83811115614068576000848401525b50505050565b600061407982614012565b9150600082141561408d5761408c614160565b5b600182039050919050565b600060028204905060018216806140b057607f821691505b602082108114156140c4576140c36141be565b5b50919050565b60006140d582614012565b91507fffffffffffffffffffffffffffffffffffffffffffffffffffffffffffffffff82141561410857614107614160565b5b600182019050919050565b6000819050919050565b60006141288261422d565b9050919050565b600061413a82614012565b915061414583614012565b9250826141555761415461418f565b5b828206905092915050565b7f4e487b7100000000000000000000000000000000000000000000000000000000600052601160045260246000fd5b7f4e487b7100000000000000000000000000000000000000000000000000000000600052601260045260246000fd5b7f4e487b7100000000000000000000000000000000000000000000000000000000600052602260045260246000fd5b7f4e487b7100000000000000000000000000000000000000000000000000000000600052604160045260246000fd5b6000601f19601f8301169050919050565b60008160e01b9050919050565b61424381613f9e565b811461424e57600080fd5b50565b61425a81613fb0565b811461426557600080fd5b50565b61427181613fbc565b811461427c57600080fd5b50565b61428881613fc6565b811461429357600080fd5b50565b61429f81614012565b81146142aa57600080fd5b50565b6142b68161401c565b81146142c157600080fd5b5056fea26469706673582212204a9c2dbc50fcc8737de44a18f6339d4d4d80394c681a5c36baf715c62bab31a364736f6c63430008000033",
  "immutableReferences": {},
  "source": "// SPDX-License-Identifier: MIT\npragma solidity >=0.8.0 <0.9.0;\nimport \"@openzeppelin/contracts/token/ERC721/ERC721.sol\";\nimport \"@openzeppelin/contracts/token/ERC721/extensions/ERC721URIStorage.sol\";\nimport \"@openzeppelin/contracts/access/AccessControl.sol\";\n\ncontract NFT_Factory is ERC721URIStorage, AccessControl {\n  uint256 public totalOfNFTMinted;\n  struct DATA_INVOICE {\n      string name;\n      string addressGeoOne;\n      string addressGeoTwo;\n      string city;\n      string state;\n      string country;     \n      uint32 zip;\n      uint32 phone;\n      uint256 priceOfSell;\n      uint256 valueOfNFT;\n      bytes32 invoiceHash;\n    }\n\n    DATA_INVOICE[] private _dataInvoices;\n    \n    mapping (bytes32 => uint256) private _hashTokenId;\n    mapping(bytes32 => bool) private _hashExist;\n   \n    constructor() ERC721(\"Decentralized Invoice Factoring\", \"DIF\") {\n      _setupRole(DEFAULT_ADMIN_ROLE, msg.sender);\n      totalOfNFTMinted = 0;\n  }\n\n    function supportsInterface(bytes4 interfaceId) public view virtual override(AccessControl, ERC721) returns (bool) {\n      return this.supportsInterface(interfaceId);\n  } \n\n  function _assemble(  string memory _name,\n                       string memory _addressGeoOne,\n                       string memory _addressGeoTwo,\n                       string memory _city,\n                       string memory _state,\n                       string memory _country,\n                       uint32 _zip,\n                       uint32 _phone,\n                       uint256 _priceOfSell,\n                       uint256 _valueOfNFT,\n                       bytes32 _hash) private returns(uint256) {\n                        _dataInvoices.push(DATA_INVOICE(\n                          _name,\n                          _addressGeoOne,\n                          _addressGeoTwo,\n                          _city,\n                          _state,\n                          _country,\n                          _zip,\n                          _phone,\n                          _priceOfSell,\n                          _valueOfNFT,\n                          _hash));\n                        uint256 id = _dataInvoices.length - 1;\n                        return id;\n                       }\n\n  function createInvoice(address _recipient, \n                       string memory _name,\n                       string memory _addressGeoOne,\n                       string memory _addressGeoTwo,\n                       string memory _city,\n                       string memory _state,\n                       string memory _country,\n                       uint32 _zip,\n                       uint32 _phone,\n                       uint256 _priceOfSell,\n                       uint256 _valueOfNFT) public onlyRole(DEFAULT_ADMIN_ROLE) {\n                          bytes32 invoiceHash = keccak256(\n                                                  abi.encodePacked(_name,\n                                                                   _addressGeoOne,\n                                                                   _addressGeoTwo,\n                                                                   _city,\n                                                                   _state,\n                                                                   _country,\n                                                                   _zip,\n                                                                   _phone,\n                                                                   _priceOfSell,\n                                                                   _valueOfNFT)\n                                                                   );\n                          require(! _hashExist[invoiceHash], \"NFT_Factory: This hash exist already\");\n                          _hashExist[invoiceHash] = true;\n                          uint256 newItemId = _assemble( _name,\n                                                         _addressGeoOne,\n                                                         _addressGeoTwo,\n                                                         _city,\n                                                         _state,\n                                                         _country,\n                                                         _zip,\n                                                         _phone,\n                                                         _priceOfSell,\n                                                         _valueOfNFT,\n                                                         invoiceHash);\n                          _hashTokenId[invoiceHash] = newItemId;\n                          _mint(_recipient, newItemId);\n                          totalOfNFTMinted += 1;                                               \n                       }\n\n  function getData(uint256 tokenId) public view returns(string memory name,\n                                                        string memory addressGeoOne,\n                                                        string memory addressGeoTwo,\n                                                        string memory city,\n                                                        string memory state,\n                                                        string memory country,\n                                                        uint32 zip,\n                                                        uint32 phone,\n                                                        uint256 priceOfSell,\n                                                        uint256 valueOfNFT,\n                                                        bytes32 invoiceHash) {\n                                                          name = _dataInvoices[tokenId].name;\n                                                          addressGeoOne = _dataInvoices[tokenId].addressGeoOne;\n                                                          addressGeoTwo = _dataInvoices[tokenId].addressGeoTwo;\n                                                          city = _dataInvoices[tokenId].city;\n                                                          state = _dataInvoices[tokenId].state;\n                                                          country = _dataInvoices[tokenId].country;\n                                                          zip = _dataInvoices[tokenId].zip;\n                                                          phone = _dataInvoices[tokenId].phone;\n                                                          priceOfSell = _dataInvoices[tokenId].priceOfSell;\n                                                          valueOfNFT = _dataInvoices[tokenId].valueOfNFT;\n                                                          invoiceHash = _dataInvoices[tokenId].invoiceHash;\n                                                        }\n  function values(uint256 tokenId) public view returns(uint256 priceOfSell, uint256 valueOfNFT) {\n    priceOfSell = _dataInvoices[tokenId].priceOfSell;\n    valueOfNFT = _dataInvoices[tokenId].valueOfNFT;\n  }\n\n  function getTokenid (bytes32 hashToken) public view returns(uint256 tokenId) {\n    tokenId = _hashTokenId[hashToken];\n  }\n\n}\n\n",
  "sourcePath": "/home/peter/Documents/Reserva/0-Reservafs/Proyectos/DIF_PROJECT/Code/DIF Alpha/contracts/NFT_Factory.sol",
  "compiler": {
    "name": "solc",
    "version": "0.8.0+commit.c7dfd78e.Emscripten.clang"
  },
  "schemaVersion": "3.4.3",
  "updatedAt": "2021-10-05T22:22:44.242Z",
  "networkType": "ethereum",
  "devdoc": {
    "kind": "dev",
    "methods": {
      "approve(address,uint256)": {
        "details": "See {IERC721-approve}."
      },
      "balanceOf(address)": {
        "details": "See {IERC721-balanceOf}."
      },
      "getApproved(uint256)": {
        "details": "See {IERC721-getApproved}."
      },
      "getRoleAdmin(bytes32)": {
        "details": "Returns the admin role that controls `role`. See {grantRole} and {revokeRole}. To change a role's admin, use {_setRoleAdmin}."
      },
      "grantRole(bytes32,address)": {
        "details": "Grants `role` to `account`. If `account` had not been already granted `role`, emits a {RoleGranted} event. Requirements: - the caller must have ``role``'s admin role."
      },
      "hasRole(bytes32,address)": {
        "details": "Returns `true` if `account` has been granted `role`."
      },
      "isApprovedForAll(address,address)": {
        "details": "See {IERC721-isApprovedForAll}."
      },
      "name()": {
        "details": "See {IERC721Metadata-name}."
      },
      "ownerOf(uint256)": {
        "details": "See {IERC721-ownerOf}."
      },
      "renounceRole(bytes32,address)": {
        "details": "Revokes `role` from the calling account. Roles are often managed via {grantRole} and {revokeRole}: this function's purpose is to provide a mechanism for accounts to lose their privileges if they are compromised (such as when a trusted device is misplaced). If the calling account had been granted `role`, emits a {RoleRevoked} event. Requirements: - the caller must be `account`."
      },
      "revokeRole(bytes32,address)": {
        "details": "Revokes `role` from `account`. If `account` had been granted `role`, emits a {RoleRevoked} event. Requirements: - the caller must have ``role``'s admin role."
      },
      "safeTransferFrom(address,address,uint256)": {
        "details": "See {IERC721-safeTransferFrom}."
      },
      "safeTransferFrom(address,address,uint256,bytes)": {
        "details": "See {IERC721-safeTransferFrom}."
      },
      "setApprovalForAll(address,bool)": {
        "details": "See {IERC721-setApprovalForAll}."
      },
      "symbol()": {
        "details": "See {IERC721Metadata-symbol}."
      },
      "tokenURI(uint256)": {
        "details": "See {IERC721Metadata-tokenURI}."
      },
      "transferFrom(address,address,uint256)": {
        "details": "See {IERC721-transferFrom}."
      }
    },
    "version": 1
  },
  "userdoc": {
    "kind": "user",
    "methods": {},
    "version": 1
  }
}