{
  "contractName": "Pool",
  "abi": [
    {
      "inputs": [
        {
          "internalType": "address",
          "name": "addressCurrency",
          "type": "address"
        },
        {
          "internalType": "address",
          "name": "addressNFT",
          "type": "address"
        },
        {
          "internalType": "address",
          "name": "accountFunder",
          "type": "address"
        },
        {
          "internalType": "uint256",
          "name": "MinInvesting",
          "type": "uint256"
        },
        {
          "internalType": "uint256",
          "name": "MarginInvestment",
          "type": "uint256"
        }
      ],
      "stateMutability": "nonpayable",
      "type": "constructor"
    },
    {
      "anonymous": false,
      "inputs": [
        {
          "indexed": true,
          "internalType": "address",
          "name": "newMp",
          "type": "address"
        },
        {
          "indexed": true,
          "internalType": "uint256",
          "name": "time",
          "type": "uint256"
        }
      ],
      "name": "ChangedMarketPlace",
      "type": "event"
    },
    {
      "anonymous": false,
      "inputs": [
        {
          "indexed": true,
          "internalType": "address",
          "name": "investor",
          "type": "address"
        },
        {
          "indexed": true,
          "internalType": "uint256",
          "name": "amount",
          "type": "uint256"
        }
      ],
      "name": "Deposit",
      "type": "event"
    },
    {
      "anonymous": false,
      "inputs": [
        {
          "indexed": true,
          "internalType": "uint256",
          "name": "tokenId",
          "type": "uint256"
        },
        {
          "indexed": true,
          "internalType": "address",
          "name": "ownerOfNFT",
          "type": "address"
        },
        {
          "indexed": false,
          "internalType": "uint256",
          "name": "amountFounding",
          "type": "uint256"
        }
      ],
      "name": "Funding",
      "type": "event"
    },
    {
      "anonymous": false,
      "inputs": [
        {
          "indexed": true,
          "internalType": "bytes32",
          "name": "role",
          "type": "bytes32"
        },
        {
          "indexed": true,
          "internalType": "bytes32",
          "name": "previousAdminRole",
          "type": "bytes32"
        },
        {
          "indexed": true,
          "internalType": "bytes32",
          "name": "newAdminRole",
          "type": "bytes32"
        }
      ],
      "name": "RoleAdminChanged",
      "type": "event"
    },
    {
      "anonymous": false,
      "inputs": [
        {
          "indexed": true,
          "internalType": "bytes32",
          "name": "role",
          "type": "bytes32"
        },
        {
          "indexed": true,
          "internalType": "address",
          "name": "account",
          "type": "address"
        },
        {
          "indexed": true,
          "internalType": "address",
          "name": "sender",
          "type": "address"
        }
      ],
      "name": "RoleGranted",
      "type": "event"
    },
    {
      "anonymous": false,
      "inputs": [
        {
          "indexed": true,
          "internalType": "bytes32",
          "name": "role",
          "type": "bytes32"
        },
        {
          "indexed": true,
          "internalType": "address",
          "name": "account",
          "type": "address"
        },
        {
          "indexed": true,
          "internalType": "address",
          "name": "sender",
          "type": "address"
        }
      ],
      "name": "RoleRevoked",
      "type": "event"
    },
    {
      "anonymous": false,
      "inputs": [
        {
          "indexed": true,
          "internalType": "address",
          "name": "investor",
          "type": "address"
        },
        {
          "indexed": true,
          "internalType": "uint256",
          "name": "amount",
          "type": "uint256"
        }
      ],
      "name": "Withdraw",
      "type": "event"
    },
    {
      "inputs": [],
      "name": "DEFAULT_ADMIN_ROLE",
      "outputs": [
        {
          "internalType": "bytes32",
          "name": "",
          "type": "bytes32"
        }
      ],
      "stateMutability": "view",
      "type": "function"
    },
    {
      "inputs": [],
      "name": "FUNDER_ROLE",
      "outputs": [
        {
          "internalType": "bytes32",
          "name": "",
          "type": "bytes32"
        }
      ],
      "stateMutability": "view",
      "type": "function"
    },
    {
      "inputs": [],
      "name": "_numberOfInvestment",
      "outputs": [
        {
          "internalType": "uint256",
          "name": "_value",
          "type": "uint256"
        }
      ],
      "stateMutability": "view",
      "type": "function"
    },
    {
      "inputs": [],
      "name": "_numberOfInvestors",
      "outputs": [
        {
          "internalType": "uint256",
          "name": "_value",
          "type": "uint256"
        }
      ],
      "stateMutability": "view",
      "type": "function"
    },
    {
      "inputs": [
        {
          "internalType": "bytes32",
          "name": "role",
          "type": "bytes32"
        }
      ],
      "name": "getRoleAdmin",
      "outputs": [
        {
          "internalType": "bytes32",
          "name": "",
          "type": "bytes32"
        }
      ],
      "stateMutability": "view",
      "type": "function"
    },
    {
      "inputs": [
        {
          "internalType": "bytes32",
          "name": "role",
          "type": "bytes32"
        },
        {
          "internalType": "address",
          "name": "account",
          "type": "address"
        }
      ],
      "name": "grantRole",
      "outputs": [],
      "stateMutability": "nonpayable",
      "type": "function"
    },
    {
      "inputs": [
        {
          "internalType": "bytes32",
          "name": "role",
          "type": "bytes32"
        },
        {
          "internalType": "address",
          "name": "account",
          "type": "address"
        }
      ],
      "name": "hasRole",
      "outputs": [
        {
          "internalType": "bool",
          "name": "",
          "type": "bool"
        }
      ],
      "stateMutability": "view",
      "type": "function"
    },
    {
      "inputs": [],
      "name": "interest",
      "outputs": [
        {
          "internalType": "uint256",
          "name": "",
          "type": "uint256"
        }
      ],
      "stateMutability": "view",
      "type": "function"
    },
    {
      "inputs": [],
      "name": "marginInvestment",
      "outputs": [
        {
          "internalType": "uint256",
          "name": "",
          "type": "uint256"
        }
      ],
      "stateMutability": "view",
      "type": "function"
    },
    {
      "inputs": [],
      "name": "minInvesting",
      "outputs": [
        {
          "internalType": "uint256",
          "name": "",
          "type": "uint256"
        }
      ],
      "stateMutability": "view",
      "type": "function"
    },
    {
      "inputs": [
        {
          "internalType": "bytes32",
          "name": "role",
          "type": "bytes32"
        },
        {
          "internalType": "address",
          "name": "account",
          "type": "address"
        }
      ],
      "name": "renounceRole",
      "outputs": [],
      "stateMutability": "nonpayable",
      "type": "function"
    },
    {
      "inputs": [
        {
          "internalType": "bytes32",
          "name": "role",
          "type": "bytes32"
        },
        {
          "internalType": "address",
          "name": "account",
          "type": "address"
        }
      ],
      "name": "revokeRole",
      "outputs": [],
      "stateMutability": "nonpayable",
      "type": "function"
    },
    {
      "inputs": [],
      "name": "stakingDays",
      "outputs": [
        {
          "internalType": "uint256",
          "name": "",
          "type": "uint256"
        }
      ],
      "stateMutability": "view",
      "type": "function"
    },
    {
      "inputs": [
        {
          "internalType": "bytes4",
          "name": "interfaceId",
          "type": "bytes4"
        }
      ],
      "name": "supportsInterface",
      "outputs": [
        {
          "internalType": "bool",
          "name": "",
          "type": "bool"
        }
      ],
      "stateMutability": "view",
      "type": "function"
    },
    {
      "inputs": [
        {
          "internalType": "address",
          "name": "",
          "type": "address"
        },
        {
          "internalType": "address",
          "name": "",
          "type": "address"
        },
        {
          "internalType": "uint256",
          "name": "",
          "type": "uint256"
        },
        {
          "internalType": "bytes",
          "name": "",
          "type": "bytes"
        }
      ],
      "name": "onERC721Received",
      "outputs": [
        {
          "internalType": "bytes4",
          "name": "",
          "type": "bytes4"
        }
      ],
      "stateMutability": "nonpayable",
      "type": "function"
    },
    {
      "inputs": [
        {
          "internalType": "address",
          "name": "investor",
          "type": "address"
        }
      ],
      "name": "dataOf",
      "outputs": [
        {
          "internalType": "uint256",
          "name": "totalInvested",
          "type": "uint256"
        },
        {
          "internalType": "uint256",
          "name": "totalWithdrawed",
          "type": "uint256"
        },
        {
          "internalType": "uint256",
          "name": "pendingToWithdraw",
          "type": "uint256"
        },
        {
          "internalType": "uint256",
          "name": "lastDayDeposit",
          "type": "uint256"
        }
      ],
      "stateMutability": "view",
      "type": "function"
    },
    {
      "inputs": [],
      "name": "_liquidity",
      "outputs": [
        {
          "internalType": "uint256",
          "name": "liquidity",
          "type": "uint256"
        }
      ],
      "stateMutability": "view",
      "type": "function"
    },
    {
      "inputs": [
        {
          "internalType": "address",
          "name": "investor",
          "type": "address"
        }
      ],
      "name": "remainingTimeToWithdraw",
      "outputs": [
        {
          "internalType": "uint256",
          "name": "",
          "type": "uint256"
        }
      ],
      "stateMutability": "view",
      "type": "function"
    },
    {
      "inputs": [
        {
          "internalType": "uint256",
          "name": "newStakingDays",
          "type": "uint256"
        }
      ],
      "name": "_stakingDays",
      "outputs": [
        {
          "internalType": "bool",
          "name": "",
          "type": "bool"
        }
      ],
      "stateMutability": "nonpayable",
      "type": "function"
    },
    {
      "inputs": [
        {
          "internalType": "uint256",
          "name": "newMinInvesting",
          "type": "uint256"
        }
      ],
      "name": "_minInvesting",
      "outputs": [
        {
          "internalType": "bool",
          "name": "",
          "type": "bool"
        }
      ],
      "stateMutability": "nonpayable",
      "type": "function"
    },
    {
      "inputs": [
        {
          "internalType": "uint256",
          "name": "newMarginInvestmment",
          "type": "uint256"
        }
      ],
      "name": "_marginInvestment",
      "outputs": [
        {
          "internalType": "bool",
          "name": "",
          "type": "bool"
        }
      ],
      "stateMutability": "nonpayable",
      "type": "function"
    },
    {
      "inputs": [
        {
          "internalType": "address",
          "name": "mp",
          "type": "address"
        }
      ],
      "name": "_changedMarketPlace",
      "outputs": [
        {
          "internalType": "bool",
          "name": "",
          "type": "bool"
        }
      ],
      "stateMutability": "nonpayable",
      "type": "function"
    },
    {
      "inputs": [
        {
          "internalType": "uint256",
          "name": "_amount",
          "type": "uint256"
        }
      ],
      "name": "deposit",
      "outputs": [
        {
          "internalType": "bool",
          "name": "",
          "type": "bool"
        }
      ],
      "stateMutability": "nonpayable",
      "type": "function"
    },
    {
      "inputs": [
        {
          "internalType": "uint256",
          "name": "_valueWithdrawal",
          "type": "uint256"
        }
      ],
      "name": "withdraw",
      "outputs": [
        {
          "internalType": "bool",
          "name": "",
          "type": "bool"
        }
      ],
      "stateMutability": "nonpayable",
      "type": "function"
    },
    {
      "inputs": [
        {
          "internalType": "uint256",
          "name": "_tokenId",
          "type": "uint256"
        },
        {
          "internalType": "uint256",
          "name": "_amount",
          "type": "uint256"
        }
      ],
      "name": "funding",
      "outputs": [
        {
          "internalType": "uint256",
          "name": "",
          "type": "uint256"
        }
      ],
      "stateMutability": "nonpayable",
      "type": "function"
    }
  ],
  "bytecode": "0x60806040523480156200001157600080fd5b506040516200399238038062003992833981810160405281019062000037919062000703565b8160018190555084600660006101000a81548173ffffffffffffffffffffffffffffffffffffffff021916908373ffffffffffffffffffffffffffffffffffffffff16021790555083600760006101000a81548173ffffffffffffffffffffffffffffffffffffffff021916908373ffffffffffffffffffffffffffffffffffffffff16021790555080600381905550602d600281905550620000e46000801b336200012160201b60201c565b620001167f0914bb97ca83e85ef385857d9d418f187ff630589e0c9f44db92976d8e4519cb846200013760201b60201c565b505050505062000b47565b6200013382826200018060201b60201c565b5050565b62000148826200027160201b60201c565b62000169816200015d6200029060201b60201c565b6200029860201b60201c565b6200017b83836200018060201b60201c565b505050565b6200019282826200035c60201b60201c565b6200026d57600160008084815260200190815260200160002060000160008373ffffffffffffffffffffffffffffffffffffffff1673ffffffffffffffffffffffffffffffffffffffff16815260200190815260200160002060006101000a81548160ff021916908315150217905550620002126200029060201b60201c565b73ffffffffffffffffffffffffffffffffffffffff168173ffffffffffffffffffffffffffffffffffffffff16837f2f8788117e7eff1d82e926ec794901d17c78024a50270940304540a733656f0d60405160405180910390a45b5050565b6000806000838152602001908152602001600020600101549050919050565b600033905090565b620002aa82826200035c60201b60201c565b6200035857620002dd8173ffffffffffffffffffffffffffffffffffffffff166014620003c660201b620018261760201c565b620002f88360001c6020620003c660201b620018261760201c565b6040516020016200030b929190620008c3565b6040516020818303038152906040526040517f08c379a00000000000000000000000000000000000000000000000000000000081526004016200034f919062000905565b60405180910390fd5b5050565b600080600084815260200190815260200160002060000160008373ffffffffffffffffffffffffffffffffffffffff1673ffffffffffffffffffffffffffffffffffffffff16815260200190815260200160002060009054906101000a900460ff16905092915050565b606060006002836002620003db9190620009cf565b620003e7919062000972565b67ffffffffffffffff81111562000427577f4e487b7100000000000000000000000000000000000000000000000000000000600052604160045260246000fd5b6040519080825280601f01601f1916602001820160405280156200045a5781602001600182028036833780820191505090505b5090507f300000000000000000000000000000000000000000000000000000000000000081600081518110620004b9577f4e487b7100000000000000000000000000000000000000000000000000000000600052603260045260246000fd5b60200101907effffffffffffffffffffffffffffffffffffffffffffffffffffffffffffff1916908160001a9053507f78000000000000000000000000000000000000000000000000000000000000008160018151811062000544577f4e487b7100000000000000000000000000000000000000000000000000000000600052603260045260246000fd5b60200101907effffffffffffffffffffffffffffffffffffffffffffffffffffffffffffff1916908160001a90535060006001846002620005869190620009cf565b62000592919062000972565b90505b600181111562000684577f3031323334353637383961626364656600000000000000000000000000000000600f861660108110620005fc577f4e487b7100000000000000000000000000000000000000000000000000000000600052603260045260246000fd5b1a60f81b8282815181106200063a577f4e487b7100000000000000000000000000000000000000000000000000000000600052603260045260246000fd5b60200101907effffffffffffffffffffffffffffffffffffffffffffffffffffffffffffff1916908160001a905350600485901c9450806200067c9062000aa4565b905062000595565b5060008414620006cb576040517f08c379a0000000000000000000000000000000000000000000000000000000008152600401620006c29062000929565b60405180910390fd5b8091505092915050565b600081519050620006e68162000b13565b92915050565b600081519050620006fd8162000b2d565b92915050565b600080600080600060a086880312156200071c57600080fd5b60006200072c88828901620006d5565b95505060206200073f88828901620006d5565b94505060406200075288828901620006d5565b93505060606200076588828901620006ec565b92505060806200077888828901620006ec565b9150509295509295909350565b600062000792826200094b565b6200079e818562000956565b9350620007b081856020860162000a6e565b620007bb8162000b02565b840191505092915050565b6000620007d3826200094b565b620007df818562000967565b9350620007f181856020860162000a6e565b80840191505092915050565b60006200080c60208362000956565b91507f537472696e67733a20686578206c656e67746820696e73756666696369656e746000830152602082019050919050565b60006200084e60178362000967565b91507f416363657373436f6e74726f6c3a206163636f756e74200000000000000000006000830152601782019050919050565b60006200089060118362000967565b91507f206973206d697373696e6720726f6c65200000000000000000000000000000006000830152601182019050919050565b6000620008d0826200083f565b9150620008de8285620007c6565b9150620008eb8262000881565b9150620008f98284620007c6565b91508190509392505050565b6000602082019050818103600083015262000921818462000785565b905092915050565b600060208201905081810360008301526200094481620007fd565b9050919050565b600081519050919050565b600082825260208201905092915050565b600081905092915050565b60006200097f8262000a64565b91506200098c8362000a64565b9250827fffffffffffffffffffffffffffffffffffffffffffffffffffffffffffffffff03821115620009c457620009c362000ad3565b5b828201905092915050565b6000620009dc8262000a64565b9150620009e98362000a64565b9250817fffffffffffffffffffffffffffffffffffffffffffffffffffffffffffffffff048311821515161562000a255762000a2462000ad3565b5b828202905092915050565b600062000a3d8262000a44565b9050919050565b600073ffffffffffffffffffffffffffffffffffffffff82169050919050565b6000819050919050565b60005b8381101562000a8e57808201518184015260208101905062000a71565b8381111562000a9e576000848401525b50505050565b600062000ab18262000a64565b9150600082141562000ac85762000ac762000ad3565b5b600182039050919050565b7f4e487b7100000000000000000000000000000000000000000000000000000000600052601160045260246000fd5b6000601f19601f8301169050919050565b62000b1e8162000a30565b811462000b2a57600080fd5b50565b62000b388162000a64565b811462000b4457600080fd5b50565b612e3b8062000b576000396000f3fe608060405234801561001057600080fd5b50600436106101735760003560e01c80639f5e994d116100de578063cfbd01e311610097578063d8cae69711610071578063d8cae6971461049f578063e120d6b2146104cf578063e8ee2678146104ed578063fb4db8951461051d57610173565b8063cfbd01e314610447578063d23595f014610465578063d547741f1461048357610173565b80639f5e994d1461035a578063a217fddf1461038a578063b6b55f25146103a8578063bb3d4562146103d8578063c392f7661461040b578063c72ade2a1461042957610173565b806334aedecd1161013057806334aedecd1461028457806336568abe146102a2578063491d0a56146102be578063711241bc146102dc5780637434715d146102fa57806391d148541461032a57610173565b806301ffc9a714610178578063150b7a02146101a85780632071bee6146101d8578063248a9ca3146102085780632e1a7d4d146102385780632f2ff15d14610268575b600080fd5b610192600480360381019061018d919061211e565b61054d565b60405161019f919061283a565b60405180910390f35b6101c260048036038101906101bd9190612015565b610697565b6040516101cf9190612870565b60405180910390f35b6101f260048036038101906101ed9190612147565b6106ab565b6040516101ff919061283a565b60405180910390f35b610222600480360381019061021d91906120b9565b6106d3565b60405161022f9190612855565b60405180910390f35b610252600480360381019061024d9190612147565b6106f2565b60405161025f919061283a565b60405180910390f35b610282600480360381019061027d91906120e2565b610a38565b005b61028c610a61565b6040516102999190612855565b60405180910390f35b6102bc60048036038101906102b791906120e2565b610a85565b005b6102c6610b08565b6040516102d39190612a0d565b60405180910390f35b6102e4610bba565b6040516102f19190612a0d565b60405180910390f35b610314600480360381019061030f9190611fc3565b610bc0565b604051610321919061283a565b60405180910390f35b610344600480360381019061033f91906120e2565b610de2565b604051610351919061283a565b60405180910390f35b610374600480360381019061036f9190612199565b610e4c565b6040516103819190612a0d565b60405180910390f35b610392611225565b60405161039f9190612855565b60405180910390f35b6103c260048036038101906103bd9190612147565b61122c565b6040516103cf919061283a565b60405180910390f35b6103f260048036038101906103ed9190611fc3565b611600565b6040516104029493929190612a28565b60405180910390f35b610413611721565b6040516104209190612a0d565b60405180910390f35b610431611726565b60405161043e9190612a0d565b60405180910390f35b61044f61172c565b60405161045c9190612a0d565b60405180910390f35b61046d611732565b60405161047a9190612a0d565b60405180910390f35b61049d600480360381019061049891906120e2565b61173e565b005b6104b960048036038101906104b49190612147565b611767565b6040516104c6919061283a565b60405180910390f35b6104d761178f565b6040516104e49190612a0d565b60405180910390f35b61050760048036038101906105029190611fc3565b61179b565b6040516105149190612a0d565b60405180910390f35b61053760048036038101906105329190612147565b6117fe565b604051610544919061283a565b60405180910390f35b60007f5f40c31e000000000000000000000000000000000000000000000000000000007bffffffffffffffffffffffffffffffffffffffffffffffffffffffff1916827bffffffffffffffffffffffffffffffffffffffffffffffffffffffff1916148061061857507f36372b07000000000000000000000000000000000000000000000000000000007bffffffffffffffffffffffffffffffffffffffffffffffffffffffff1916827bffffffffffffffffffffffffffffffffffffffffffffffffffffffff1916145b8061068057507f150b7a02000000000000000000000000000000000000000000000000000000007bffffffffffffffffffffffffffffffffffffffffffffffffffffffff1916827bffffffffffffffffffffffffffffffffffffffffffffffffffffffff1916145b80610690575061068f82611b20565b5b9050919050565b600063150b7a0260e01b9050949350505050565b60008060001b6106c2816106bd611b9a565b611ba2565b826002819055506001915050919050565b6000806000838152602001908152602001600020600101549050919050565b6000600a6000610700611b9a565b73ffffffffffffffffffffffffffffffffffffffff1673ffffffffffffffffffffffffffffffffffffffff16815260200190815260200160002060009054906101000a900460ff16610787576040517f08c379a000000000000000000000000000000000000000000000000000000000815260040161077e9061294d565b60405180910390fd5b60096000610793611b9a565b73ffffffffffffffffffffffffffffffffffffffff1673ffffffffffffffffffffffffffffffffffffffff16815260200190815260200160002060020154821115610813576040517f08c379a000000000000000000000000000000000000000000000000000000000815260040161080a9061298d565b60405180910390fd5b6000610825610820611b9a565b61179b565b905060025481101561086c576040517f08c379a00000000000000000000000000000000000000000000000000000000081526004016108639061296d565b60405180910390fd5b600660009054906101000a900473ffffffffffffffffffffffffffffffffffffffff1673ffffffffffffffffffffffffffffffffffffffff1663a9059cbb6108b2611b9a565b856040518363ffffffff1660e01b81526004016108d0929190612811565b602060405180830381600087803b1580156108ea57600080fd5b505af11580156108fe573d6000803e3d6000fd5b505050506040513d601f19601f820116820180604052508101906109229190612090565b508260096000610930611b9a565b73ffffffffffffffffffffffffffffffffffffffff1673ffffffffffffffffffffffffffffffffffffffff168152602001908152602001600020600201600082825461097c9190612bd6565b925050819055508260096000610990611b9a565b73ffffffffffffffffffffffffffffffffffffffff1673ffffffffffffffffffffffffffffffffffffffff16815260200190815260200160002060010160008282546109dc9190612af5565b92505081905550826109ec611b9a565b73ffffffffffffffffffffffffffffffffffffffff167f884edad9ce6fa2440d8a54cc123490eb96d2768479d49ff9c7366125a942436460405160405180910390a36001915050919050565b610a41826106d3565b610a5281610a4d611b9a565b611ba2565b610a5c8383611c3f565b505050565b7f0914bb97ca83e85ef385857d9d418f187ff630589e0c9f44db92976d8e4519cb81565b610a8d611b9a565b73ffffffffffffffffffffffffffffffffffffffff168173ffffffffffffffffffffffffffffffffffffffff1614610afa576040517f08c379a0000000000000000000000000000000000000000000000000000000008152600401610af1906129cd565b60405180910390fd5b610b048282611d1f565b5050565b6000600660009054906101000a900473ffffffffffffffffffffffffffffffffffffffff1673ffffffffffffffffffffffffffffffffffffffff166370a08231306040518263ffffffff1660e01b8152600401610b659190612796565b60206040518083038186803b158015610b7d57600080fd5b505afa158015610b91573d6000803e3d6000fd5b505050506040513d601f19601f82011682018060405250810190610bb59190612170565b905090565b60035481565b60008060001b610bd781610bd2611b9a565b611ba2565b610bf68373ffffffffffffffffffffffffffffffffffffffff16611e00565b610c35576040517f08c379a0000000000000000000000000000000000000000000000000000000008152600401610c2c906129ad565b60405180910390fd5b8273ffffffffffffffffffffffffffffffffffffffff166301ffc9a7637434715d60e01b6040518263ffffffff1660e01b8152600401610c759190612870565b60206040518083038186803b158015610c8d57600080fd5b505afa158015610ca1573d6000803e3d6000fd5b505050506040513d601f19601f82011682018060405250810190610cc59190612090565b610d04576040517f08c379a0000000000000000000000000000000000000000000000000000000008152600401610cfb9061292d565b60405180910390fd5b600760009054906101000a900473ffffffffffffffffffffffffffffffffffffffff1673ffffffffffffffffffffffffffffffffffffffff1663a22cb4658460016040518363ffffffff1660e01b8152600401610d629291906127e8565b600060405180830381600087803b158015610d7c57600080fd5b505af1158015610d90573d6000803e3d6000fd5b50505050428373ffffffffffffffffffffffffffffffffffffffff167fcd85e280fd9797b2e80044170140aa90012fd5130f5a72e2a15846b7cb9223b560405160405180910390a36001915050919050565b600080600084815260200190815260200160002060000160008373ffffffffffffffffffffffffffffffffffffffff1673ffffffffffffffffffffffffffffffffffffffff16815260200190815260200160002060009054906101000a900460ff16905092915050565b60007f0914bb97ca83e85ef385857d9d418f187ff630589e0c9f44db92976d8e4519cb610e8081610e7b611b9a565b611ba2565b60035483610e8c610b08565b610e969190612bd6565b11610ed6576040517f08c379a0000000000000000000000000000000000000000000000000000000008152600401610ecd906128ed565b60405180910390fd5b6000600760009054906101000a900473ffffffffffffffffffffffffffffffffffffffff1673ffffffffffffffffffffffffffffffffffffffff16635e383d21866040518263ffffffff1660e01b8152600401610f339190612a0d565b604080518083038186803b158015610f4a57600080fd5b505afa158015610f5e573d6000803e3d6000fd5b505050506040513d601f19601f82011682018060405250810190610f8291906121d5565b509050808414610fc7576040517f08c379a0000000000000000000000000000000000000000000000000000000008152600401610fbe9061290d565b60405180910390fd5b6000600760009054906101000a900473ffffffffffffffffffffffffffffffffffffffff1673ffffffffffffffffffffffffffffffffffffffff16636352211e876040518263ffffffff1660e01b81526004016110249190612a0d565b60206040518083038186803b15801561103c57600080fd5b505afa158015611050573d6000803e3d6000fd5b505050506040513d601f19601f820116820180604052508101906110749190611fec565b9050600660009054906101000a900473ffffffffffffffffffffffffffffffffffffffff1673ffffffffffffffffffffffffffffffffffffffff1663a9059cbb82876040518363ffffffff1660e01b81526004016110d3929190612811565b602060405180830381600087803b1580156110ed57600080fd5b505af1158015611101573d6000803e3d6000fd5b505050506040513d601f19601f820116820180604052508101906111259190612090565b50600760009054906101000a900473ffffffffffffffffffffffffffffffffffffffff1673ffffffffffffffffffffffffffffffffffffffff166342842e0e8230896040518463ffffffff1660e01b8152600401611185939291906127b1565b600060405180830381600087803b15801561119f57600080fd5b505af11580156111b3573d6000803e3d6000fd5b505050506111c16004611e13565b8073ffffffffffffffffffffffffffffffffffffffff16867fef1243131cc4d5c6fd57f61177739b68f2fe5a7ffedb8fc74a856cd8aeb592a3876040516112089190612a0d565b60405180910390a361121a6004611e29565b935050505092915050565b6000801b81565b600080821415611271576040517f08c379a0000000000000000000000000000000000000000000000000000000008152600401611268906128cd565b60405180910390fd5b600a600061127d611b9a565b73ffffffffffffffffffffffffffffffffffffffff1673ffffffffffffffffffffffffffffffffffffffff16815260200190815260200160002060009054906101000a900460ff166112d4576112d36005611e13565b5b600082600960006112e3611b9a565b73ffffffffffffffffffffffffffffffffffffffff1673ffffffffffffffffffffffffffffffffffffffff168152602001908152602001600020600201600082825461132f9190612af5565b925050819055905060015481101561137c576040517f08c379a0000000000000000000000000000000000000000000000000000000008152600401611373906129ed565b60405180910390fd5b600660009054906101000a900473ffffffffffffffffffffffffffffffffffffffff1673ffffffffffffffffffffffffffffffffffffffff166323b872dd6113c2611b9a565b30866040518463ffffffff1660e01b81526004016113e2939291906127b1565b602060405180830381600087803b1580156113fc57600080fd5b505af1158015611410573d6000803e3d6000fd5b505050506040513d601f19601f820116820180604052508101906114349190612090565b508260096000611442611b9a565b73ffffffffffffffffffffffffffffffffffffffff1673ffffffffffffffffffffffffffffffffffffffff168152602001908152602001600020600001600082825461148e9190612af5565b9250508190555060006114a2600a85611e37565b905080826114b09190612af5565b600960006114bc611b9a565b73ffffffffffffffffffffffffffffffffffffffff1673ffffffffffffffffffffffffffffffffffffffff16815260200190815260200160002060020181905550426009600061150a611b9a565b73ffffffffffffffffffffffffffffffffffffffff1673ffffffffffffffffffffffffffffffffffffffff168152602001908152602001600020600301819055506001600a6000611559611b9a565b73ffffffffffffffffffffffffffffffffffffffff1673ffffffffffffffffffffffffffffffffffffffff16815260200190815260200160002060006101000a81548160ff021916908315150217905550836115b3611b9a565b73ffffffffffffffffffffffffffffffffffffffff167fe1fffcc4923d04b559f4d29a8bfc6cda04eb5b0d3c460751c2402c5c5cc9109c60405160405180910390a3600192505050919050565b600080600080600960008673ffffffffffffffffffffffffffffffffffffffff1673ffffffffffffffffffffffffffffffffffffffff168152602001908152602001600020600001549350600960008673ffffffffffffffffffffffffffffffffffffffff1673ffffffffffffffffffffffffffffffffffffffff168152602001908152602001600020600101549250600960008673ffffffffffffffffffffffffffffffffffffffff1673ffffffffffffffffffffffffffffffffffffffff168152602001908152602001600020600201549150600960008673ffffffffffffffffffffffffffffffffffffffff1673ffffffffffffffffffffffffffffffffffffffff1681526020019081526020016000206003015490509193509193565b600a81565b60025481565b60015481565b60058060000154905081565b611747826106d3565b61175881611753611b9a565b611ba2565b6117628383611d1f565b505050565b60008060001b61177e81611779611b9a565b611ba2565b826003819055506001915050919050565b60048060000154905081565b6000603c600960008473ffffffffffffffffffffffffffffffffffffffff1673ffffffffffffffffffffffffffffffffffffffff16815260200190815260200160002060030154426117ed9190612bd6565b6117f79190612b4b565b9050919050565b60008060001b61181581611810611b9a565b611ba2565b826001819055506001915050919050565b6060600060028360026118399190612b7c565b6118439190612af5565b67ffffffffffffffff811115611882577f4e487b7100000000000000000000000000000000000000000000000000000000600052604160045260246000fd5b6040519080825280601f01601f1916602001820160405280156118b45781602001600182028036833780820191505090505b5090507f300000000000000000000000000000000000000000000000000000000000000081600081518110611912577f4e487b7100000000000000000000000000000000000000000000000000000000600052603260045260246000fd5b60200101907effffffffffffffffffffffffffffffffffffffffffffffffffffffffffffff1916908160001a9053507f78000000000000000000000000000000000000000000000000000000000000008160018151811061199c577f4e487b7100000000000000000000000000000000000000000000000000000000600052603260045260246000fd5b60200101907effffffffffffffffffffffffffffffffffffffffffffffffffffffffffffff1916908160001a905350600060018460026119dc9190612b7c565b6119e69190612af5565b90505b6001811115611ad2577f3031323334353637383961626364656600000000000000000000000000000000600f861660108110611a4e577f4e487b7100000000000000000000000000000000000000000000000000000000600052603260045260246000fd5b1a60f81b828281518110611a8b577f4e487b7100000000000000000000000000000000000000000000000000000000600052603260045260246000fd5b60200101907effffffffffffffffffffffffffffffffffffffffffffffffffffffffffffff1916908160001a905350600485901c945080611acb90612cca565b90506119e9565b5060008414611b16576040517f08c379a0000000000000000000000000000000000000000000000000000000008152600401611b0d906128ad565b60405180910390fd5b8091505092915050565b60007f7965db0b000000000000000000000000000000000000000000000000000000007bffffffffffffffffffffffffffffffffffffffffffffffffffffffff1916827bffffffffffffffffffffffffffffffffffffffffffffffffffffffff19161480611b935750611b9282611e5e565b5b9050919050565b600033905090565b611bac8282610de2565b611c3b57611bd18173ffffffffffffffffffffffffffffffffffffffff166014611826565b611bdf8360001c6020611826565b604051602001611bf092919061275c565b6040516020818303038152906040526040517f08c379a0000000000000000000000000000000000000000000000000000000008152600401611c32919061288b565b60405180910390fd5b5050565b611c498282610de2565b611d1b57600160008084815260200190815260200160002060000160008373ffffffffffffffffffffffffffffffffffffffff1673ffffffffffffffffffffffffffffffffffffffff16815260200190815260200160002060006101000a81548160ff021916908315150217905550611cc0611b9a565b73ffffffffffffffffffffffffffffffffffffffff168173ffffffffffffffffffffffffffffffffffffffff16837f2f8788117e7eff1d82e926ec794901d17c78024a50270940304540a733656f0d60405160405180910390a45b5050565b611d298282610de2565b15611dfc57600080600084815260200190815260200160002060000160008373ffffffffffffffffffffffffffffffffffffffff1673ffffffffffffffffffffffffffffffffffffffff16815260200190815260200160002060006101000a81548160ff021916908315150217905550611da1611b9a565b73ffffffffffffffffffffffffffffffffffffffff168173ffffffffffffffffffffffffffffffffffffffff16837ff6391f5c32d9c69d2a47ea670b442974b53935d1edc7fd64eb21e047a839171b60405160405180910390a45b5050565b600080823b905060008111915050919050565b6001816000016000828254019250508190555050565b600081600001549050919050565b60008060648385611e489190612b7c565b611e529190612b4b565b90508091505092915050565b60007f01ffc9a7000000000000000000000000000000000000000000000000000000007bffffffffffffffffffffffffffffffffffffffffffffffffffffffff1916827bffffffffffffffffffffffffffffffffffffffffffffffffffffffff1916149050919050565b6000611edb611ed684612a9e565b612a6d565b905082815260208101848484011115611ef357600080fd5b611efe848285612c88565b509392505050565b600081359050611f1581612d92565b92915050565b600081519050611f2a81612d92565b92915050565b600081519050611f3f81612da9565b92915050565b600081359050611f5481612dc0565b92915050565b600081359050611f6981612dd7565b92915050565b600082601f830112611f8057600080fd5b8135611f90848260208601611ec8565b91505092915050565b600081359050611fa881612dee565b92915050565b600081519050611fbd81612dee565b92915050565b600060208284031215611fd557600080fd5b6000611fe384828501611f06565b91505092915050565b600060208284031215611ffe57600080fd5b600061200c84828501611f1b565b91505092915050565b6000806000806080858703121561202b57600080fd5b600061203987828801611f06565b945050602061204a87828801611f06565b935050604061205b87828801611f99565b925050606085013567ffffffffffffffff81111561207857600080fd5b61208487828801611f6f565b91505092959194509250565b6000602082840312156120a257600080fd5b60006120b084828501611f30565b91505092915050565b6000602082840312156120cb57600080fd5b60006120d984828501611f45565b91505092915050565b600080604083850312156120f557600080fd5b600061210385828601611f45565b925050602061211485828601611f06565b9150509250929050565b60006020828403121561213057600080fd5b600061213e84828501611f5a565b91505092915050565b60006020828403121561215957600080fd5b600061216784828501611f99565b91505092915050565b60006020828403121561218257600080fd5b600061219084828501611fae565b91505092915050565b600080604083850312156121ac57600080fd5b60006121ba85828601611f99565b92505060206121cb85828601611f99565b9150509250929050565b600080604083850312156121e857600080fd5b60006121f685828601611fae565b925050602061220785828601611fae565b9150509250929050565b61221a81612c0a565b82525050565b61222981612c1c565b82525050565b61223881612c28565b82525050565b61224781612c32565b82525050565b600061225882612ace565b6122628185612ad9565b9350612272818560208601612c97565b61227b81612d81565b840191505092915050565b600061229182612ace565b61229b8185612aea565b93506122ab818560208601612c97565b80840191505092915050565b60006122c4602083612ad9565b91507f537472696e67733a20686578206c656e67746820696e73756666696369656e746000830152602082019050919050565b6000612304601b83612ad9565b91507f504f4f4c3a2054686520616d6f756e742063616e2774206265203000000000006000830152602082019050919050565b6000612344603483612ad9565b91507f504f4f4c3a2054686520616d6f756e74206c656573207468616e20746865206d60008301527f617267696e67206f6620696e76657374696e672e0000000000000000000000006020830152604082019050919050565b60006123aa603583612ad9565b91507f504f4f4c3a2054686520616d6f756e74206e6f74206d6174636820776974682060008301527f746f6b656e2773207072696365206f662073656c6c00000000000000000000006020830152604082019050919050565b6000612410602483612ad9565b91507f506f6f6c3a2054686520636f6e7472616374206973206e6f7420636f6d70617460008301527f69626c65000000000000000000000000000000000000000000000000000000006020830152604082019050919050565b6000612476602a83612ad9565b91507f504f4f4c3a20596f757220617265206e6f7420616e20696e766573746f72207260008301527f6567697374657265642e000000000000000000000000000000000000000000006020830152604082019050919050565b60006124dc601783612aea565b91507f416363657373436f6e74726f6c3a206163636f756e74200000000000000000006000830152601782019050919050565b600061251c602e83612ad9565b91507f504f4f4c3a20596f75206861766520746f20776169742061667465722074686560008301527f207769746864726177206461792e0000000000000000000000000000000000006020830152604082019050919050565b6000612582603083612ad9565b91507f504f4f4c3a2056616c7565206f6620746865207769746864726177616c20657860008301527f636565647320796f75722066756e6473000000000000000000000000000000006020830152604082019050919050565b60006125e8603483612ad9565b91507f506f6f6c3a20546865206164647265737320696e736572746564206973206e6f60008301527f74206120636f6e747261637420616464726573730000000000000000000000006020830152604082019050919050565b600061264e601183612aea565b91507f206973206d697373696e6720726f6c65200000000000000000000000000000006000830152601182019050919050565b600061268e602f83612ad9565b91507f416363657373436f6e74726f6c3a2063616e206f6e6c792072656e6f756e636560008301527f20726f6c657320666f722073656c6600000000000000000000000000000000006020830152604082019050919050565b60006126f4602783612ad9565b91507f504f4f4c3a204d696e20696e76657374696e672065786365656473207468652060008301527f616d6f756e742e000000000000000000000000000000000000000000000000006020830152604082019050919050565b61275681612c7e565b82525050565b6000612767826124cf565b91506127738285612286565b915061277e82612641565b915061278a8284612286565b91508190509392505050565b60006020820190506127ab6000830184612211565b92915050565b60006060820190506127c66000830186612211565b6127d36020830185612211565b6127e0604083018461274d565b949350505050565b60006040820190506127fd6000830185612211565b61280a6020830184612220565b9392505050565b60006040820190506128266000830185612211565b612833602083018461274d565b9392505050565b600060208201905061284f6000830184612220565b92915050565b600060208201905061286a600083018461222f565b92915050565b6000602082019050612885600083018461223e565b92915050565b600060208201905081810360008301526128a5818461224d565b905092915050565b600060208201905081810360008301526128c6816122b7565b9050919050565b600060208201905081810360008301526128e6816122f7565b9050919050565b6000602082019050818103600083015261290681612337565b9050919050565b600060208201905081810360008301526129268161239d565b9050919050565b6000602082019050818103600083015261294681612403565b9050919050565b6000602082019050818103600083015261296681612469565b9050919050565b600060208201905081810360008301526129868161250f565b9050919050565b600060208201905081810360008301526129a681612575565b9050919050565b600060208201905081810360008301526129c6816125db565b9050919050565b600060208201905081810360008301526129e681612681565b9050919050565b60006020820190508181036000830152612a06816126e7565b9050919050565b6000602082019050612a22600083018461274d565b92915050565b6000608082019050612a3d600083018761274d565b612a4a602083018661274d565b612a57604083018561274d565b612a64606083018461274d565b95945050505050565b6000604051905081810181811067ffffffffffffffff82111715612a9457612a93612d52565b5b8060405250919050565b600067ffffffffffffffff821115612ab957612ab8612d52565b5b601f19601f8301169050602081019050919050565b600081519050919050565b600082825260208201905092915050565b600081905092915050565b6000612b0082612c7e565b9150612b0b83612c7e565b9250827fffffffffffffffffffffffffffffffffffffffffffffffffffffffffffffffff03821115612b4057612b3f612cf4565b5b828201905092915050565b6000612b5682612c7e565b9150612b6183612c7e565b925082612b7157612b70612d23565b5b828204905092915050565b6000612b8782612c7e565b9150612b9283612c7e565b9250817fffffffffffffffffffffffffffffffffffffffffffffffffffffffffffffffff0483118215151615612bcb57612bca612cf4565b5b828202905092915050565b6000612be182612c7e565b9150612bec83612c7e565b925082821015612bff57612bfe612cf4565b5b828203905092915050565b6000612c1582612c5e565b9050919050565b60008115159050919050565b6000819050919050565b60007fffffffff0000000000000000000000000000000000000000000000000000000082169050919050565b600073ffffffffffffffffffffffffffffffffffffffff82169050919050565b6000819050919050565b82818337600083830152505050565b60005b83811015612cb5578082015181840152602081019050612c9a565b83811115612cc4576000848401525b50505050565b6000612cd582612c7e565b91506000821415612ce957612ce8612cf4565b5b600182039050919050565b7f4e487b7100000000000000000000000000000000000000000000000000000000600052601160045260246000fd5b7f4e487b7100000000000000000000000000000000000000000000000000000000600052601260045260246000fd5b7f4e487b7100000000000000000000000000000000000000000000000000000000600052604160045260246000fd5b6000601f19601f8301169050919050565b612d9b81612c0a565b8114612da657600080fd5b50565b612db281612c1c565b8114612dbd57600080fd5b50565b612dc981612c28565b8114612dd457600080fd5b50565b612de081612c32565b8114612deb57600080fd5b50565b612df781612c7e565b8114612e0257600080fd5b5056fea2646970667358221220508884c423fa757a4b2c7e0a896d6dc160ff8ffb6ecfa51e86de035ad475ddf664736f6c63430008000033",
  "immutableReferences": {},
  "source": "// SPDX-License-Identifier: MIT\npragma solidity >=0.8.0 <0.9.0;\n\nimport \"@openzeppelin/contracts/token/ERC20/IERC20.sol\";\nimport \"@openzeppelin/contracts/token/ERC721/IERC721Receiver.sol\";\nimport \"@openzeppelin/contracts/utils/Counters.sol\";\nimport \"@openzeppelin/contracts/utils/Address.sol\";\nimport \"@openzeppelin/contracts/access/AccessControl.sol\";\nimport \"./INFT_Factory.sol\";\n\n\ncontract Pool is AccessControl, IERC721Receiver {\n  using Counters for Counters.Counter;\n  using Address for address;\n  bytes32 public constant FUNDER_ROLE = keccak256(\"FUNDER_ROLE\");\n  uint256 public constant interest = 10;\n  uint256 public minInvesting;\n  uint256 public stakingDays;\n  uint256 public marginInvestment;\n  Counters.Counter public _numberOfInvestment;\n  Counters.Counter public _numberOfInvestors;\n  IERC20 currency;\n  INFT_Factory nft;\n\n  struct Investor {\n    uint256 totalInvested;\n    uint256 totalWithdrawed;\n    uint256 pendingToWithdraw;\n    uint256 lastDayDeposit;\n  }\n\n  mapping (address => uint) private _pendingReturns;\n  mapping (address => Investor) private _investors;\n  mapping (address => bool) private _isExist;\n\n  event Deposit(address indexed investor, uint256 indexed amount);\n  event Withdraw(address indexed investor, uint256 indexed amount);\n  event Funding(uint256 indexed tokenId, address indexed ownerOfNFT, uint256 amountFounding);\n  event ChangedMarketPlace(address indexed newMp, uint256 indexed time);\n\n  constructor(\n    address addressCurrency,\n    address addressNFT, \n    address accountFunder, \n    uint256 MinInvesting, uint256 MarginInvestment) {\n      minInvesting = MinInvesting;\n      currency = IERC20(addressCurrency);\n      nft = INFT_Factory(addressNFT);\n      marginInvestment = MarginInvestment;\n      stakingDays = 45;\n      _setupRole(DEFAULT_ADMIN_ROLE, msg.sender);\n      grantRole(FUNDER_ROLE, accountFunder);\n  }\n\n  function supportsInterface(bytes4 interfaceId) public view virtual override returns (bool) {\n    return interfaceId == type(INFT_Factory).interfaceId \n        || interfaceId == type(IERC20).interfaceId \n        || interfaceId == type(IERC721Receiver).interfaceId || super.supportsInterface(interfaceId); \n  }\n\n  function onERC721Received(address, address, uint256, bytes memory) public virtual override returns (bytes4) {\n        return this.onERC721Received.selector;\n  }\n   \n  function dataOf(address investor) public view returns(uint256 totalInvested, uint256 totalWithdrawed, uint256 pendingToWithdraw, uint256 lastDayDeposit) {\n      totalInvested = _investors[investor].totalInvested;\n      totalWithdrawed = _investors[investor].totalWithdrawed;\n      pendingToWithdraw = _investors[investor].pendingToWithdraw;\n      lastDayDeposit = _investors[investor].lastDayDeposit;\n  }\n\n  function _liquidity() public view returns(uint256 liquidity) {\n    liquidity = currency.balanceOf(address(this));\n  }\n\n  function remainingTimeToWithdraw(address investor) public view returns(uint256) {\n    return (block.timestamp - _investors[investor].lastDayDeposit ) / 1 minutes;\n  } \n\n  /*\n  function _interest(uint256 newInterest) public onlyRole(DEFAULT_ADMIN_ROLE) returns(bool) {\n    interest = newInterest;\n    return true;\n  }\n  */\n\n  function _stakingDays(uint256 newStakingDays) public onlyRole(DEFAULT_ADMIN_ROLE) returns(bool) {\n    stakingDays = newStakingDays;\n    return true;\n  }\n\n  function _minInvesting(uint256 newMinInvesting) public onlyRole(DEFAULT_ADMIN_ROLE) returns(bool) {\n    minInvesting = newMinInvesting;\n    return true;\n  }\n\n  function _marginInvestment(uint256 newMarginInvestmment) public onlyRole(DEFAULT_ADMIN_ROLE) returns(bool) {\n    marginInvestment = newMarginInvestmment;\n    return true;\n  }\n\n  function _changedMarketPlace(address mp) external onlyRole(DEFAULT_ADMIN_ROLE) returns (bool) {\n    require(mp.isContract(), \"Pool: The address inserted is not a contract address\");\n    require(IERC165(mp).supportsInterface(this._changedMarketPlace.selector), \"Pool: The contract is not compatible\");\n    nft.setApprovalForAll(mp, true);\n    emit ChangedMarketPlace(mp, block.timestamp);\n    return true;\n  }\n\n  function deposit(uint256 _amount) external returns(bool) {\n    require(_amount != 0, \"POOL: The amount can't be 0\");\n    if (! _isExist[_msgSender()]) {_numberOfInvestors.increment();}\n    uint256 valueINV = _investors[_msgSender()].pendingToWithdraw += _amount;\n    require(valueINV >= minInvesting, \"POOL: Min investing exceeds the amount.\");\n    //use approve function from web3 to allow the transaction\n    currency.transferFrom(_msgSender(), address(this), _amount);\n    _investors[_msgSender()].totalInvested += _amount;\n    uint256 currentProfit = _profit(interest, _amount);\n    _investors[_msgSender()].pendingToWithdraw = valueINV + currentProfit;\n    _investors[_msgSender()].lastDayDeposit = block.timestamp;\n    _isExist[_msgSender()] = true;\n    emit Deposit(_msgSender(), _amount);\n    return true; \n  }\n\n  function withdraw(uint256 _valueWithdrawal) external returns(bool) {\n    require(_isExist[_msgSender()], \"POOL: Your are not an investor registered.\");\n    require(_valueWithdrawal <= _investors[_msgSender()].pendingToWithdraw, \"POOL: Value of the withdrawal exceeds your funds\");\n    uint256 daysPassed = remainingTimeToWithdraw(_msgSender());\n    require(daysPassed >=  stakingDays, \"POOL: You have to wait after the withdraw day.\");\n    currency.transfer(_msgSender(), _valueWithdrawal);\n    _investors[_msgSender()].pendingToWithdraw -= _valueWithdrawal;\n    _investors[_msgSender()].totalWithdrawed += _valueWithdrawal;\n    emit Withdraw(_msgSender(), _valueWithdrawal);\n    return true;\n  }  \n\n  function funding(uint256 _tokenId, uint256 _amount) external onlyRole(FUNDER_ROLE) returns(uint256) {\n    require(_liquidity() - _amount > marginInvestment, \"POOL: The amount lees than the marging of investing.\");\n    (uint256 priceSell, ) = nft.values(_tokenId);\n    require(_amount == priceSell, \"POOL: The amount not match with token's price of sell\");\n    address ownerOfNFT = nft.ownerOf(_tokenId);\n    currency.transfer(ownerOfNFT, _amount);\n    nft.safeTransferFrom(ownerOfNFT, address(this), _tokenId);\n    _numberOfInvestment.increment();\n    emit Funding(_tokenId, ownerOfNFT, _amount);\n    return _numberOfInvestment.current();\n  }\n\n  function _profit(uint256 _interestInPorcentage, uint256 _amount) private pure returns(uint256) {\n     uint256 value = (_interestInPorcentage * _amount) / (100);\n     return value;\n  }\n\n}\n\n",
  "sourcePath": "/home/peter/Documents/Reserva/0-Reservafs/Proyectos/DIF_PROJECT/Code/DIF Alpha/contracts/Pool.sol",
  "compiler": {
    "name": "solc",
    "version": "0.8.0+commit.c7dfd78e.Emscripten.clang"
  },
  "schemaVersion": "3.4.3",
  "updatedAt": "2021-09-29T00:09:15.882Z",
  "devdoc": {
    "kind": "dev",
    "methods": {
      "getRoleAdmin(bytes32)": {
        "details": "Returns the admin role that controls `role`. See {grantRole} and {revokeRole}. To change a role's admin, use {_setRoleAdmin}."
      },
      "grantRole(bytes32,address)": {
        "details": "Grants `role` to `account`. If `account` had not been already granted `role`, emits a {RoleGranted} event. Requirements: - the caller must have ``role``'s admin role."
      },
      "hasRole(bytes32,address)": {
        "details": "Returns `true` if `account` has been granted `role`."
      },
      "renounceRole(bytes32,address)": {
        "details": "Revokes `role` from the calling account. Roles are often managed via {grantRole} and {revokeRole}: this function's purpose is to provide a mechanism for accounts to lose their privileges if they are compromised (such as when a trusted device is misplaced). If the calling account had been granted `role`, emits a {RoleRevoked} event. Requirements: - the caller must be `account`."
      },
      "revokeRole(bytes32,address)": {
        "details": "Revokes `role` from `account`. If `account` had been granted `role`, emits a {RoleRevoked} event. Requirements: - the caller must have ``role``'s admin role."
      },
      "supportsInterface(bytes4)": {
        "details": "See {IERC165-supportsInterface}."
      }
    },
    "version": 1
  },
  "userdoc": {
    "kind": "user",
    "methods": {},
    "version": 1
  }
}