{
  "contractName": "Pool",
  "abi": [
    {
      "inputs": [
        {
          "internalType": "address",
          "name": "addressCurrency",
          "type": "address"
        },
        {
          "internalType": "address",
          "name": "addressNFT",
          "type": "address"
        },
        {
          "internalType": "address",
          "name": "accountFunder",
          "type": "address"
        },
        {
          "internalType": "uint256",
          "name": "MinInvesting",
          "type": "uint256"
        },
        {
          "internalType": "uint256",
          "name": "Rate",
          "type": "uint256"
        },
        {
          "internalType": "uint256",
          "name": "StakingDays",
          "type": "uint256"
        },
        {
          "internalType": "uint256",
          "name": "MarginInvestment",
          "type": "uint256"
        }
      ],
      "stateMutability": "nonpayable",
      "type": "constructor"
    },
    {
      "anonymous": false,
      "inputs": [
        {
          "indexed": true,
          "internalType": "address",
          "name": "newMp",
          "type": "address"
        },
        {
          "indexed": true,
          "internalType": "uint256",
          "name": "time",
          "type": "uint256"
        }
      ],
      "name": "ChangedMarketPlace",
      "type": "event"
    },
    {
      "anonymous": false,
      "inputs": [
        {
          "indexed": true,
          "internalType": "address",
          "name": "investor",
          "type": "address"
        },
        {
          "indexed": true,
          "internalType": "uint256",
          "name": "amount",
          "type": "uint256"
        }
      ],
      "name": "Deposit",
      "type": "event"
    },
    {
      "anonymous": false,
      "inputs": [
        {
          "indexed": true,
          "internalType": "uint256",
          "name": "tokenId",
          "type": "uint256"
        },
        {
          "indexed": true,
          "internalType": "address",
          "name": "ownerOfNFT",
          "type": "address"
        },
        {
          "indexed": false,
          "internalType": "uint256",
          "name": "amountFounding",
          "type": "uint256"
        }
      ],
      "name": "Funding",
      "type": "event"
    },
    {
      "anonymous": false,
      "inputs": [
        {
          "indexed": true,
          "internalType": "bytes32",
          "name": "role",
          "type": "bytes32"
        },
        {
          "indexed": true,
          "internalType": "bytes32",
          "name": "previousAdminRole",
          "type": "bytes32"
        },
        {
          "indexed": true,
          "internalType": "bytes32",
          "name": "newAdminRole",
          "type": "bytes32"
        }
      ],
      "name": "RoleAdminChanged",
      "type": "event"
    },
    {
      "anonymous": false,
      "inputs": [
        {
          "indexed": true,
          "internalType": "bytes32",
          "name": "role",
          "type": "bytes32"
        },
        {
          "indexed": true,
          "internalType": "address",
          "name": "account",
          "type": "address"
        },
        {
          "indexed": true,
          "internalType": "address",
          "name": "sender",
          "type": "address"
        }
      ],
      "name": "RoleGranted",
      "type": "event"
    },
    {
      "anonymous": false,
      "inputs": [
        {
          "indexed": true,
          "internalType": "bytes32",
          "name": "role",
          "type": "bytes32"
        },
        {
          "indexed": true,
          "internalType": "address",
          "name": "account",
          "type": "address"
        },
        {
          "indexed": true,
          "internalType": "address",
          "name": "sender",
          "type": "address"
        }
      ],
      "name": "RoleRevoked",
      "type": "event"
    },
    {
      "anonymous": false,
      "inputs": [
        {
          "indexed": true,
          "internalType": "address",
          "name": "investor",
          "type": "address"
        },
        {
          "indexed": true,
          "internalType": "uint256",
          "name": "amount",
          "type": "uint256"
        }
      ],
      "name": "Withdraw",
      "type": "event"
    },
    {
      "inputs": [],
      "name": "DEFAULT_ADMIN_ROLE",
      "outputs": [
        {
          "internalType": "bytes32",
          "name": "",
          "type": "bytes32"
        }
      ],
      "stateMutability": "view",
      "type": "function",
      "constant": true
    },
    {
      "inputs": [],
      "name": "FUNDER_ROLE",
      "outputs": [
        {
          "internalType": "bytes32",
          "name": "",
          "type": "bytes32"
        }
      ],
      "stateMutability": "view",
      "type": "function",
      "constant": true
    },
    {
      "inputs": [],
      "name": "_numberOfInvestment",
      "outputs": [
        {
          "internalType": "uint256",
          "name": "_value",
          "type": "uint256"
        }
      ],
      "stateMutability": "view",
      "type": "function",
      "constant": true
    },
    {
      "inputs": [],
      "name": "_numberOfInvestors",
      "outputs": [
        {
          "internalType": "uint256",
          "name": "_value",
          "type": "uint256"
        }
      ],
      "stateMutability": "view",
      "type": "function",
      "constant": true
    },
    {
      "inputs": [
        {
          "internalType": "address",
          "name": "",
          "type": "address"
        }
      ],
      "name": "exist",
      "outputs": [
        {
          "internalType": "bool",
          "name": "",
          "type": "bool"
        }
      ],
      "stateMutability": "view",
      "type": "function",
      "constant": true
    },
    {
      "inputs": [
        {
          "internalType": "uint256",
          "name": "",
          "type": "uint256"
        }
      ],
      "name": "financed",
      "outputs": [
        {
          "internalType": "bool",
          "name": "",
          "type": "bool"
        }
      ],
      "stateMutability": "view",
      "type": "function",
      "constant": true
    },
    {
      "inputs": [
        {
          "internalType": "bytes32",
          "name": "role",
          "type": "bytes32"
        }
      ],
      "name": "getRoleAdmin",
      "outputs": [
        {
          "internalType": "bytes32",
          "name": "",
          "type": "bytes32"
        }
      ],
      "stateMutability": "view",
      "type": "function",
      "constant": true
    },
    {
      "inputs": [
        {
          "internalType": "bytes32",
          "name": "role",
          "type": "bytes32"
        },
        {
          "internalType": "address",
          "name": "account",
          "type": "address"
        }
      ],
      "name": "grantRole",
      "outputs": [],
      "stateMutability": "nonpayable",
      "type": "function"
    },
    {
      "inputs": [
        {
          "internalType": "bytes32",
          "name": "role",
          "type": "bytes32"
        },
        {
          "internalType": "address",
          "name": "account",
          "type": "address"
        }
      ],
      "name": "hasRole",
      "outputs": [
        {
          "internalType": "bool",
          "name": "",
          "type": "bool"
        }
      ],
      "stateMutability": "view",
      "type": "function",
      "constant": true
    },
    {
      "inputs": [],
      "name": "interest",
      "outputs": [
        {
          "internalType": "uint256",
          "name": "",
          "type": "uint256"
        }
      ],
      "stateMutability": "view",
      "type": "function",
      "constant": true
    },
    {
      "inputs": [
        {
          "internalType": "address",
          "name": "",
          "type": "address"
        }
      ],
      "name": "investors",
      "outputs": [
        {
          "internalType": "uint256",
          "name": "amountFounding",
          "type": "uint256"
        },
        {
          "internalType": "uint256",
          "name": "benefits",
          "type": "uint256"
        },
        {
          "internalType": "uint256",
          "name": "dayDeposit",
          "type": "uint256"
        }
      ],
      "stateMutability": "view",
      "type": "function",
      "constant": true
    },
    {
      "inputs": [],
      "name": "marginInvestment",
      "outputs": [
        {
          "internalType": "uint256",
          "name": "",
          "type": "uint256"
        }
      ],
      "stateMutability": "view",
      "type": "function",
      "constant": true
    },
    {
      "inputs": [],
      "name": "minInvesting",
      "outputs": [
        {
          "internalType": "uint256",
          "name": "",
          "type": "uint256"
        }
      ],
      "stateMutability": "view",
      "type": "function",
      "constant": true
    },
    {
      "inputs": [
        {
          "internalType": "address",
          "name": "",
          "type": "address"
        }
      ],
      "name": "pendingReturns",
      "outputs": [
        {
          "internalType": "uint256",
          "name": "",
          "type": "uint256"
        }
      ],
      "stateMutability": "view",
      "type": "function",
      "constant": true
    },
    {
      "inputs": [
        {
          "internalType": "bytes32",
          "name": "role",
          "type": "bytes32"
        },
        {
          "internalType": "address",
          "name": "account",
          "type": "address"
        }
      ],
      "name": "renounceRole",
      "outputs": [],
      "stateMutability": "nonpayable",
      "type": "function"
    },
    {
      "inputs": [
        {
          "internalType": "bytes32",
          "name": "role",
          "type": "bytes32"
        },
        {
          "internalType": "address",
          "name": "account",
          "type": "address"
        }
      ],
      "name": "revokeRole",
      "outputs": [],
      "stateMutability": "nonpayable",
      "type": "function"
    },
    {
      "inputs": [],
      "name": "stakingDays",
      "outputs": [
        {
          "internalType": "uint256",
          "name": "",
          "type": "uint256"
        }
      ],
      "stateMutability": "view",
      "type": "function",
      "constant": true
    },
    {
      "inputs": [
        {
          "internalType": "bytes4",
          "name": "interfaceId",
          "type": "bytes4"
        }
      ],
      "name": "supportsInterface",
      "outputs": [
        {
          "internalType": "bool",
          "name": "",
          "type": "bool"
        }
      ],
      "stateMutability": "view",
      "type": "function",
      "constant": true
    },
    {
      "inputs": [
        {
          "internalType": "address",
          "name": "",
          "type": "address"
        },
        {
          "internalType": "address",
          "name": "",
          "type": "address"
        },
        {
          "internalType": "uint256",
          "name": "",
          "type": "uint256"
        },
        {
          "internalType": "bytes",
          "name": "",
          "type": "bytes"
        }
      ],
      "name": "onERC721Received",
      "outputs": [
        {
          "internalType": "bytes4",
          "name": "",
          "type": "bytes4"
        }
      ],
      "stateMutability": "nonpayable",
      "type": "function"
    },
    {
      "inputs": [
        {
          "internalType": "address",
          "name": "_investor",
          "type": "address"
        }
      ],
      "name": "investingOf",
      "outputs": [
        {
          "internalType": "uint256",
          "name": "balance",
          "type": "uint256"
        }
      ],
      "stateMutability": "view",
      "type": "function",
      "constant": true
    },
    {
      "inputs": [
        {
          "internalType": "address",
          "name": "_investor",
          "type": "address"
        }
      ],
      "name": "profit",
      "outputs": [
        {
          "internalType": "uint256",
          "name": "",
          "type": "uint256"
        }
      ],
      "stateMutability": "view",
      "type": "function",
      "constant": true
    },
    {
      "inputs": [],
      "name": "_liquidity",
      "outputs": [
        {
          "internalType": "uint256",
          "name": "liquidity",
          "type": "uint256"
        }
      ],
      "stateMutability": "view",
      "type": "function",
      "constant": true
    },
    {
      "inputs": [
        {
          "internalType": "address",
          "name": "investor",
          "type": "address"
        }
      ],
      "name": "showRemainingTimeToWithdraw",
      "outputs": [
        {
          "internalType": "uint256",
          "name": "",
          "type": "uint256"
        }
      ],
      "stateMutability": "view",
      "type": "function",
      "constant": true
    },
    {
      "inputs": [
        {
          "internalType": "uint256",
          "name": "newInterest",
          "type": "uint256"
        }
      ],
      "name": "_interest",
      "outputs": [
        {
          "internalType": "bool",
          "name": "",
          "type": "bool"
        }
      ],
      "stateMutability": "nonpayable",
      "type": "function"
    },
    {
      "inputs": [
        {
          "internalType": "uint256",
          "name": "newStakingDays",
          "type": "uint256"
        }
      ],
      "name": "_stakingDays",
      "outputs": [
        {
          "internalType": "bool",
          "name": "",
          "type": "bool"
        }
      ],
      "stateMutability": "nonpayable",
      "type": "function"
    },
    {
      "inputs": [
        {
          "internalType": "uint256",
          "name": "newMinInvesting",
          "type": "uint256"
        }
      ],
      "name": "_minInvesting",
      "outputs": [
        {
          "internalType": "bool",
          "name": "",
          "type": "bool"
        }
      ],
      "stateMutability": "nonpayable",
      "type": "function"
    },
    {
      "inputs": [
        {
          "internalType": "uint256",
          "name": "newMarginInvestmment",
          "type": "uint256"
        }
      ],
      "name": "_marginInvestment",
      "outputs": [
        {
          "internalType": "bool",
          "name": "",
          "type": "bool"
        }
      ],
      "stateMutability": "nonpayable",
      "type": "function"
    },
    {
      "inputs": [
        {
          "internalType": "address",
          "name": "mp",
          "type": "address"
        }
      ],
      "name": "_changedMarketPlace",
      "outputs": [
        {
          "internalType": "bool",
          "name": "",
          "type": "bool"
        }
      ],
      "stateMutability": "nonpayable",
      "type": "function"
    },
    {
      "inputs": [
        {
          "internalType": "uint256",
          "name": "_amount",
          "type": "uint256"
        }
      ],
      "name": "deposit",
      "outputs": [
        {
          "internalType": "bool",
          "name": "",
          "type": "bool"
        }
      ],
      "stateMutability": "nonpayable",
      "type": "function"
    },
    {
      "inputs": [
        {
          "internalType": "uint256",
          "name": "_valueWithdrawal",
          "type": "uint256"
        }
      ],
      "name": "withdraw",
      "outputs": [
        {
          "internalType": "bool",
          "name": "",
          "type": "bool"
        }
      ],
      "stateMutability": "nonpayable",
      "type": "function"
    },
    {
      "inputs": [
        {
          "internalType": "uint256",
          "name": "_tokenId",
          "type": "uint256"
        },
        {
          "internalType": "uint256",
          "name": "_amount",
          "type": "uint256"
        }
      ],
      "name": "funding",
      "outputs": [
        {
          "internalType": "uint256",
          "name": "",
          "type": "uint256"
        }
      ],
      "stateMutability": "nonpayable",
      "type": "function"
    }
  ],
  "bytecode": "0x60806040523480156200001157600080fd5b5060405162003aab38038062003aab833981810160405281019062000037919062000726565b836001819055508260028190555086600760006101000a81548173ffffffffffffffffffffffffffffffffffffffff021916908373ffffffffffffffffffffffffffffffffffffffff16021790555085600860006101000a81548173ffffffffffffffffffffffffffffffffffffffff021916908373ffffffffffffffffffffffffffffffffffffffff16021790555042603c83620000d7919062000a1d565b620000e39190620009c0565b60038190555080600481905550620001056000801b336200014460201b60201c565b620001377f0914bb97ca83e85ef385857d9d418f187ff630589e0c9f44db92976d8e4519cb866200015a60201b60201c565b5050505050505062000b95565b620001568282620001a360201b60201c565b5050565b6200016b826200029460201b60201c565b6200018c8162000180620002b360201b60201c565b620002bb60201b60201c565b6200019e8383620001a360201b60201c565b505050565b620001b582826200037f60201b60201c565b6200029057600160008084815260200190815260200160002060000160008373ffffffffffffffffffffffffffffffffffffffff1673ffffffffffffffffffffffffffffffffffffffff16815260200190815260200160002060006101000a81548160ff02191690831515021790555062000235620002b360201b60201c565b73ffffffffffffffffffffffffffffffffffffffff168173ffffffffffffffffffffffffffffffffffffffff16837f2f8788117e7eff1d82e926ec794901d17c78024a50270940304540a733656f0d60405160405180910390a45b5050565b6000806000838152602001908152602001600020600101549050919050565b600033905090565b620002cd82826200037f60201b60201c565b6200037b57620003008173ffffffffffffffffffffffffffffffffffffffff166014620003e960201b620019571760201c565b6200031b8360001c6020620003e960201b620019571760201c565b6040516020016200032e92919062000911565b6040516020818303038152906040526040517f08c379a000000000000000000000000000000000000000000000000000000000815260040162000372919062000953565b60405180910390fd5b5050565b600080600084815260200190815260200160002060000160008373ffffffffffffffffffffffffffffffffffffffff1673ffffffffffffffffffffffffffffffffffffffff16815260200190815260200160002060009054906101000a900460ff16905092915050565b606060006002836002620003fe919062000a1d565b6200040a9190620009c0565b67ffffffffffffffff8111156200044a577f4e487b7100000000000000000000000000000000000000000000000000000000600052604160045260246000fd5b6040519080825280601f01601f1916602001820160405280156200047d5781602001600182028036833780820191505090505b5090507f300000000000000000000000000000000000000000000000000000000000000081600081518110620004dc577f4e487b7100000000000000000000000000000000000000000000000000000000600052603260045260246000fd5b60200101907effffffffffffffffffffffffffffffffffffffffffffffffffffffffffffff1916908160001a9053507f78000000000000000000000000000000000000000000000000000000000000008160018151811062000567577f4e487b7100000000000000000000000000000000000000000000000000000000600052603260045260246000fd5b60200101907effffffffffffffffffffffffffffffffffffffffffffffffffffffffffffff1916908160001a90535060006001846002620005a9919062000a1d565b620005b59190620009c0565b90505b6001811115620006a7577f3031323334353637383961626364656600000000000000000000000000000000600f8616601081106200061f577f4e487b7100000000000000000000000000000000000000000000000000000000600052603260045260246000fd5b1a60f81b8282815181106200065d577f4e487b7100000000000000000000000000000000000000000000000000000000600052603260045260246000fd5b60200101907effffffffffffffffffffffffffffffffffffffffffffffffffffffffffffff1916908160001a905350600485901c9450806200069f9062000af2565b9050620005b8565b5060008414620006ee576040517f08c379a0000000000000000000000000000000000000000000000000000000008152600401620006e59062000977565b60405180910390fd5b8091505092915050565b600081519050620007098162000b61565b92915050565b600081519050620007208162000b7b565b92915050565b600080600080600080600060e0888a0312156200074257600080fd5b6000620007528a828b01620006f8565b9750506020620007658a828b01620006f8565b9650506040620007788a828b01620006f8565b95505060606200078b8a828b016200070f565b94505060806200079e8a828b016200070f565b93505060a0620007b18a828b016200070f565b92505060c0620007c48a828b016200070f565b91505092959891949750929550565b6000620007e08262000999565b620007ec8185620009a4565b9350620007fe81856020860162000abc565b620008098162000b50565b840191505092915050565b6000620008218262000999565b6200082d8185620009b5565b93506200083f81856020860162000abc565b80840191505092915050565b60006200085a602083620009a4565b91507f537472696e67733a20686578206c656e67746820696e73756666696369656e746000830152602082019050919050565b60006200089c601783620009b5565b91507f416363657373436f6e74726f6c3a206163636f756e74200000000000000000006000830152601782019050919050565b6000620008de601183620009b5565b91507f206973206d697373696e6720726f6c65200000000000000000000000000000006000830152601182019050919050565b60006200091e826200088d565b91506200092c828562000814565b91506200093982620008cf565b915062000947828462000814565b91508190509392505050565b600060208201905081810360008301526200096f8184620007d3565b905092915050565b6000602082019050818103600083015262000992816200084b565b9050919050565b600081519050919050565b600082825260208201905092915050565b600081905092915050565b6000620009cd8262000ab2565b9150620009da8362000ab2565b9250827fffffffffffffffffffffffffffffffffffffffffffffffffffffffffffffffff0382111562000a125762000a1162000b21565b5b828201905092915050565b600062000a2a8262000ab2565b915062000a378362000ab2565b9250817fffffffffffffffffffffffffffffffffffffffffffffffffffffffffffffffff048311821515161562000a735762000a7262000b21565b5b828202905092915050565b600062000a8b8262000a92565b9050919050565b600073ffffffffffffffffffffffffffffffffffffffff82169050919050565b6000819050919050565b60005b8381101562000adc57808201518184015260208101905062000abf565b8381111562000aec576000848401525b50505050565b600062000aff8262000ab2565b9150600082141562000b165762000b1562000b21565b5b600182039050919050565b7f4e487b7100000000000000000000000000000000000000000000000000000000600052601160045260246000fd5b6000601f19601f8301169050919050565b62000b6c8162000a7e565b811462000b7857600080fd5b50565b62000b868162000ab2565b811462000b9257600080fd5b50565b612f068062000ba56000396000f3fe608060405234801561001057600080fd5b50600436106101e55760003560e01c80636f7bc9be1161010f578063c392f766116100a2578063d547741f11610071578063d547741f14610644578063d8cae69714610660578063e120d6b214610690578063fb4db895146106ae576101e5565b8063c392f766146105cc578063c72ade2a146105ea578063cfbd01e314610608578063d23595f014610626576101e5565b80639f5e994d116100de5780639f5e994d1461051e578063a217fddf1461054e578063af9b6fa61461056c578063b6b55f251461059c576101e5565b80636f7bc9be1461046e578063711241bc146104a05780637434715d146104be57806391d14854146104ee576101e5565b806326b387bb1161018757806336568abe1161015657806336568abe146103d4578063491d0a56146103f05780634dfefc4b1461040e578063531137231461043e576101e5565b806326b387bb1461033a5780632e1a7d4d1461036a5780632f2ff15d1461039a57806334aedecd146103b6576101e5565b8063150b7a02116101c3578063150b7a021461027a5780632071bee6146102aa57806321f8f729146102da578063248a9ca31461030a576101e5565b806301ffc9a7146101ea57806302550e4d1461021a5780630e91a5a51461024a575b600080fd5b61020460048036038101906101ff9190612257565b6106de565b6040516102119190612933565b60405180910390f35b610234600480360381019061022f91906120fc565b610828565b6040516102419190612ae6565b60405180910390f35b610264600480360381019061025f9190612280565b61087f565b6040516102719190612933565b60405180910390f35b610294600480360381019061028f919061214e565b6108a7565b6040516102a19190612969565b60405180910390f35b6102c460048036038101906102bf9190612280565b6108bb565b6040516102d19190612933565b60405180910390f35b6102f460048036038101906102ef91906120fc565b6108e3565b6040516103019190612ae6565b60405180910390f35b610324600480360381019061031f91906121f2565b61092f565b604051610331919061294e565b60405180910390f35b610354600480360381019061034f91906120fc565b61094e565b6040516103619190612ae6565b60405180910390f35b610384600480360381019061037f9190612280565b610966565b6040516103919190612933565b60405180910390f35b6103b460048036038101906103af919061221b565b610ca9565b005b6103be610cd2565b6040516103cb919061294e565b60405180910390f35b6103ee60048036038101906103e9919061221b565b610cf6565b005b6103f8610d79565b6040516104059190612ae6565b60405180910390f35b610428600480360381019061042391906120fc565b610e2b565b6040516104359190612933565b60405180910390f35b61045860048036038101906104539190612280565b610e4b565b6040516104659190612933565b60405180910390f35b610488600480360381019061048391906120fc565b610e6b565b60405161049793929190612b01565b60405180910390f35b6104a8610e95565b6040516104b59190612ae6565b60405180910390f35b6104d860048036038101906104d391906120fc565b610e9b565b6040516104e59190612933565b60405180910390f35b6105086004803603810190610503919061221b565b6110bd565b6040516105159190612933565b60405180910390f35b610538600480360381019061053391906122d2565b611127565b6040516105459190612ae6565b60405180910390f35b61055661152e565b604051610563919061294e565b60405180910390f35b610586600480360381019061058191906120fc565b611535565b6040516105939190612ae6565b60405180910390f35b6105b660048036038101906105b19190612280565b611598565b6040516105c39190612933565b60405180910390f35b6105d46118b4565b6040516105e19190612ae6565b60405180910390f35b6105f26118ba565b6040516105ff9190612ae6565b60405180910390f35b6106106118c0565b60405161061d9190612ae6565b60405180910390f35b61062e6118c6565b60405161063b9190612ae6565b60405180910390f35b61065e6004803603810190610659919061221b565b6118d2565b005b61067a60048036038101906106759190612280565b6118fb565b6040516106879190612933565b60405180910390f35b610698611923565b6040516106a59190612ae6565b60405180910390f35b6106c860048036038101906106c39190612280565b61192f565b6040516106d59190612933565b60405180910390f35b60007f5e383d21000000000000000000000000000000000000000000000000000000007bffffffffffffffffffffffffffffffffffffffffffffffffffffffff1916827bffffffffffffffffffffffffffffffffffffffffffffffffffffffff191614806107a957507f36372b07000000000000000000000000000000000000000000000000000000007bffffffffffffffffffffffffffffffffffffffffffffffffffffffff1916827bffffffffffffffffffffffffffffffffffffffffffffffffffffffff1916145b8061081157507f150b7a02000000000000000000000000000000000000000000000000000000007bffffffffffffffffffffffffffffffffffffffffffffffffffffffff1916827bffffffffffffffffffffffffffffffffffffffffffffffffffffffff1916145b80610821575061082082611c51565b5b9050919050565b6000610878600254600960008573ffffffffffffffffffffffffffffffffffffffff1673ffffffffffffffffffffffffffffffffffffffff16815260200190815260200160002060000154611ccb565b9050919050565b60008060001b61089681610891611cfa565b611d02565b826002819055506001915050919050565b600063150b7a0260e01b9050949350505050565b60008060001b6108d2816108cd611cfa565b611d02565b826003819055506001915050919050565b6000600960008373ffffffffffffffffffffffffffffffffffffffff1673ffffffffffffffffffffffffffffffffffffffff168152602001908152602001600020600001549050919050565b6000806000838152602001908152602001600020600101549050919050565b600a6020528060005260406000206000915090505481565b6000600b6000610974611cfa565b73ffffffffffffffffffffffffffffffffffffffff1673ffffffffffffffffffffffffffffffffffffffff16815260200190815260200160002060009054906101000a900460ff166109fb576040517f08c379a00000000000000000000000000000000000000000000000000000000081526004016109f290612a26565b60405180910390fd5b60096000610a07611cfa565b73ffffffffffffffffffffffffffffffffffffffff1673ffffffffffffffffffffffffffffffffffffffff16815260200190815260200160002060010154821115610a87576040517f08c379a0000000000000000000000000000000000000000000000000000000008152600401610a7e90612a66565b60405180910390fd5b6000603c60096000610a97611cfa565b73ffffffffffffffffffffffffffffffffffffffff1673ffffffffffffffffffffffffffffffffffffffff1681526020019081526020016000206002015442610ae09190612ca1565b610aea9190612c16565b9050603c600354610afb9190612bc0565b811015610b3d576040517f08c379a0000000000000000000000000000000000000000000000000000000008152600401610b3490612a46565b60405180910390fd5b600760009054906101000a900473ffffffffffffffffffffffffffffffffffffffff1673ffffffffffffffffffffffffffffffffffffffff1663a9059cbb610b83611cfa565b856040518363ffffffff1660e01b8152600401610ba192919061290a565b602060405180830381600087803b158015610bbb57600080fd5b505af1158015610bcf573d6000803e3d6000fd5b505050506040513d601f19601f82011682018060405250810190610bf391906121c9565b508260096000610c01611cfa565b73ffffffffffffffffffffffffffffffffffffffff1673ffffffffffffffffffffffffffffffffffffffff1681526020019081526020016000206001016000828254610c4d9190612ca1565b9250508190555082610c5d611cfa565b73ffffffffffffffffffffffffffffffffffffffff167f884edad9ce6fa2440d8a54cc123490eb96d2768479d49ff9c7366125a942436460405160405180910390a36001915050919050565b610cb28261092f565b610cc381610cbe611cfa565b611d02565b610ccd8383611d9f565b505050565b7f0914bb97ca83e85ef385857d9d418f187ff630589e0c9f44db92976d8e4519cb81565b610cfe611cfa565b73ffffffffffffffffffffffffffffffffffffffff168173ffffffffffffffffffffffffffffffffffffffff1614610d6b576040517f08c379a0000000000000000000000000000000000000000000000000000000008152600401610d6290612aa6565b60405180910390fd5b610d758282611e7f565b5050565b6000600760009054906101000a900473ffffffffffffffffffffffffffffffffffffffff1673ffffffffffffffffffffffffffffffffffffffff166370a08231306040518263ffffffff1660e01b8152600401610dd6919061288f565b60206040518083038186803b158015610dee57600080fd5b505afa158015610e02573d6000803e3d6000fd5b505050506040513d601f19601f82011682018060405250810190610e2691906122a9565b905090565b600b6020528060005260406000206000915054906101000a900460ff1681565b600c6020528060005260406000206000915054906101000a900460ff1681565b60096020528060005260406000206000915090508060000154908060010154908060020154905083565b60045481565b60008060001b610eb281610ead611cfa565b611d02565b610ed18373ffffffffffffffffffffffffffffffffffffffff16611f60565b610f10576040517f08c379a0000000000000000000000000000000000000000000000000000000008152600401610f0790612a86565b60405180910390fd5b8273ffffffffffffffffffffffffffffffffffffffff166301ffc9a7637434715d60e01b6040518263ffffffff1660e01b8152600401610f509190612969565b60206040518083038186803b158015610f6857600080fd5b505afa158015610f7c573d6000803e3d6000fd5b505050506040513d601f19601f82011682018060405250810190610fa091906121c9565b610fdf576040517f08c379a0000000000000000000000000000000000000000000000000000000008152600401610fd690612a06565b60405180910390fd5b600860009054906101000a900473ffffffffffffffffffffffffffffffffffffffff1673ffffffffffffffffffffffffffffffffffffffff1663a22cb4658460016040518363ffffffff1660e01b815260040161103d9291906128e1565b600060405180830381600087803b15801561105757600080fd5b505af115801561106b573d6000803e3d6000fd5b50505050428373ffffffffffffffffffffffffffffffffffffffff167fcd85e280fd9797b2e80044170140aa90012fd5130f5a72e2a15846b7cb9223b560405160405180910390a36001915050919050565b600080600084815260200190815260200160002060000160008373ffffffffffffffffffffffffffffffffffffffff1673ffffffffffffffffffffffffffffffffffffffff16815260200190815260200160002060009054906101000a900460ff16905092915050565b60007f0914bb97ca83e85ef385857d9d418f187ff630589e0c9f44db92976d8e4519cb61115b81611156611cfa565b611d02565b60045483611167610d79565b6111719190612ca1565b116111b1576040517f08c379a00000000000000000000000000000000000000000000000000000000081526004016111a8906129c6565b60405180910390fd5b6000600860009054906101000a900473ffffffffffffffffffffffffffffffffffffffff1673ffffffffffffffffffffffffffffffffffffffff16635e383d21866040518263ffffffff1660e01b815260040161120e9190612ae6565b6040805180830381600087803b15801561122757600080fd5b505af115801561123b573d6000803e3d6000fd5b505050506040513d601f19601f8201168201806040525081019061125f919061230e565b5090508084146112a4576040517f08c379a000000000000000000000000000000000000000000000000000000000815260040161129b906129e6565b60405180910390fd5b6000600860009054906101000a900473ffffffffffffffffffffffffffffffffffffffff1673ffffffffffffffffffffffffffffffffffffffff16636352211e876040518263ffffffff1660e01b81526004016113019190612ae6565b60206040518083038186803b15801561131957600080fd5b505afa15801561132d573d6000803e3d6000fd5b505050506040513d601f19601f820116820180604052508101906113519190612125565b9050600760009054906101000a900473ffffffffffffffffffffffffffffffffffffffff1673ffffffffffffffffffffffffffffffffffffffff1663a9059cbb82876040518363ffffffff1660e01b81526004016113b092919061290a565b602060405180830381600087803b1580156113ca57600080fd5b505af11580156113de573d6000803e3d6000fd5b505050506040513d601f19601f8201168201806040525081019061140291906121c9565b50600860009054906101000a900473ffffffffffffffffffffffffffffffffffffffff1673ffffffffffffffffffffffffffffffffffffffff166342842e0e8230896040518463ffffffff1660e01b8152600401611462939291906128aa565b600060405180830381600087803b15801561147c57600080fd5b505af1158015611490573d6000803e3d6000fd5b505050506001600c600088815260200190815260200160002060006101000a81548160ff0219169083151502179055506114ca6005611f73565b8073ffffffffffffffffffffffffffffffffffffffff16867fef1243131cc4d5c6fd57f61177739b68f2fe5a7ffedb8fc74a856cd8aeb592a3876040516115119190612ae6565b60405180910390a36115236005611f89565b935050505092915050565b6000801b81565b6000603c600960008473ffffffffffffffffffffffffffffffffffffffff1673ffffffffffffffffffffffffffffffffffffffff16815260200190815260200160002060020154426115879190612ca1565b6115919190612c16565b9050919050565b6000801515600b60006115a9611cfa565b73ffffffffffffffffffffffffffffffffffffffff1673ffffffffffffffffffffffffffffffffffffffff16815260200190815260200160002060009054906101000a900460ff1615151415611604576116036006611f73565b5b600082600a6000611613611cfa565b73ffffffffffffffffffffffffffffffffffffffff1673ffffffffffffffffffffffffffffffffffffffff168152602001908152602001600020600082825461165c9190612bc0565b92505081905590506001548110156116a9576040517f08c379a00000000000000000000000000000000000000000000000000000000081526004016116a090612ac6565b60405180910390fd5b600760009054906101000a900473ffffffffffffffffffffffffffffffffffffffff1673ffffffffffffffffffffffffffffffffffffffff166323b872dd6116ef611cfa565b30866040518463ffffffff1660e01b815260040161170f939291906128aa565b602060405180830381600087803b15801561172957600080fd5b505af115801561173d573d6000803e3d6000fd5b505050506040513d601f19601f8201168201806040525081019061176191906121c9565b50600061177060025483611ccb565b8261177b9190612bc0565b9050604051806060016040528083815260200182815260200142815250600960006117a4611cfa565b73ffffffffffffffffffffffffffffffffffffffff1673ffffffffffffffffffffffffffffffffffffffff1681526020019081526020016000206000820151816000015560208201518160010155604082015181600201559050506001600b600061180d611cfa565b73ffffffffffffffffffffffffffffffffffffffff1673ffffffffffffffffffffffffffffffffffffffff16815260200190815260200160002060006101000a81548160ff02191690831515021790555083611867611cfa565b73ffffffffffffffffffffffffffffffffffffffff167fe1fffcc4923d04b559f4d29a8bfc6cda04eb5b0d3c460751c2402c5c5cc9109c60405160405180910390a3600192505050919050565b60025481565b60035481565b60015481565b60068060000154905081565b6118db8261092f565b6118ec816118e7611cfa565b611d02565b6118f68383611e7f565b505050565b60008060001b6119128161190d611cfa565b611d02565b826004819055506001915050919050565b60058060000154905081565b60008060001b61194681611941611cfa565b611d02565b826001819055506001915050919050565b60606000600283600261196a9190612c47565b6119749190612bc0565b67ffffffffffffffff8111156119b3577f4e487b7100000000000000000000000000000000000000000000000000000000600052604160045260246000fd5b6040519080825280601f01601f1916602001820160405280156119e55781602001600182028036833780820191505090505b5090507f300000000000000000000000000000000000000000000000000000000000000081600081518110611a43577f4e487b7100000000000000000000000000000000000000000000000000000000600052603260045260246000fd5b60200101907effffffffffffffffffffffffffffffffffffffffffffffffffffffffffffff1916908160001a9053507f780000000000000000000000000000000000000000000000000000000000000081600181518110611acd577f4e487b7100000000000000000000000000000000000000000000000000000000600052603260045260246000fd5b60200101907effffffffffffffffffffffffffffffffffffffffffffffffffffffffffffff1916908160001a90535060006001846002611b0d9190612c47565b611b179190612bc0565b90505b6001811115611c03577f3031323334353637383961626364656600000000000000000000000000000000600f861660108110611b7f577f4e487b7100000000000000000000000000000000000000000000000000000000600052603260045260246000fd5b1a60f81b828281518110611bbc577f4e487b7100000000000000000000000000000000000000000000000000000000600052603260045260246000fd5b60200101907effffffffffffffffffffffffffffffffffffffffffffffffffffffffffffff1916908160001a905350600485901c945080611bfc90612d95565b9050611b1a565b5060008414611c47576040517f08c379a0000000000000000000000000000000000000000000000000000000008152600401611c3e906129a6565b60405180910390fd5b8091505092915050565b60007f7965db0b000000000000000000000000000000000000000000000000000000007bffffffffffffffffffffffffffffffffffffffffffffffffffffffff1916827bffffffffffffffffffffffffffffffffffffffffffffffffffffffff19161480611cc45750611cc382611f97565b5b9050919050565b60008068056bc75e2d631000008385611ce49190612c47565b611cee9190612c16565b90508091505092915050565b600033905090565b611d0c82826110bd565b611d9b57611d318173ffffffffffffffffffffffffffffffffffffffff166014611957565b611d3f8360001c6020611957565b604051602001611d50929190612855565b6040516020818303038152906040526040517f08c379a0000000000000000000000000000000000000000000000000000000008152600401611d929190612984565b60405180910390fd5b5050565b611da982826110bd565b611e7b57600160008084815260200190815260200160002060000160008373ffffffffffffffffffffffffffffffffffffffff1673ffffffffffffffffffffffffffffffffffffffff16815260200190815260200160002060006101000a81548160ff021916908315150217905550611e20611cfa565b73ffffffffffffffffffffffffffffffffffffffff168173ffffffffffffffffffffffffffffffffffffffff16837f2f8788117e7eff1d82e926ec794901d17c78024a50270940304540a733656f0d60405160405180910390a45b5050565b611e8982826110bd565b15611f5c57600080600084815260200190815260200160002060000160008373ffffffffffffffffffffffffffffffffffffffff1673ffffffffffffffffffffffffffffffffffffffff16815260200190815260200160002060006101000a81548160ff021916908315150217905550611f01611cfa565b73ffffffffffffffffffffffffffffffffffffffff168173ffffffffffffffffffffffffffffffffffffffff16837ff6391f5c32d9c69d2a47ea670b442974b53935d1edc7fd64eb21e047a839171b60405160405180910390a45b5050565b600080823b905060008111915050919050565b6001816000016000828254019250508190555050565b600081600001549050919050565b60007f01ffc9a7000000000000000000000000000000000000000000000000000000007bffffffffffffffffffffffffffffffffffffffffffffffffffffffff1916827bffffffffffffffffffffffffffffffffffffffffffffffffffffffff1916149050919050565b600061201461200f84612b69565b612b38565b90508281526020810184848401111561202c57600080fd5b612037848285612d53565b509392505050565b60008135905061204e81612e5d565b92915050565b60008151905061206381612e5d565b92915050565b60008151905061207881612e74565b92915050565b60008135905061208d81612e8b565b92915050565b6000813590506120a281612ea2565b92915050565b600082601f8301126120b957600080fd5b81356120c9848260208601612001565b91505092915050565b6000813590506120e181612eb9565b92915050565b6000815190506120f681612eb9565b92915050565b60006020828403121561210e57600080fd5b600061211c8482850161203f565b91505092915050565b60006020828403121561213757600080fd5b600061214584828501612054565b91505092915050565b6000806000806080858703121561216457600080fd5b60006121728782880161203f565b94505060206121838782880161203f565b9350506040612194878288016120d2565b925050606085013567ffffffffffffffff8111156121b157600080fd5b6121bd878288016120a8565b91505092959194509250565b6000602082840312156121db57600080fd5b60006121e984828501612069565b91505092915050565b60006020828403121561220457600080fd5b60006122128482850161207e565b91505092915050565b6000806040838503121561222e57600080fd5b600061223c8582860161207e565b925050602061224d8582860161203f565b9150509250929050565b60006020828403121561226957600080fd5b600061227784828501612093565b91505092915050565b60006020828403121561229257600080fd5b60006122a0848285016120d2565b91505092915050565b6000602082840312156122bb57600080fd5b60006122c9848285016120e7565b91505092915050565b600080604083850312156122e557600080fd5b60006122f3858286016120d2565b9250506020612304858286016120d2565b9150509250929050565b6000806040838503121561232157600080fd5b600061232f858286016120e7565b9250506020612340858286016120e7565b9150509250929050565b61235381612cd5565b82525050565b61236281612ce7565b82525050565b61237181612cf3565b82525050565b61238081612cfd565b82525050565b600061239182612b99565b61239b8185612ba4565b93506123ab818560208601612d62565b6123b481612e4c565b840191505092915050565b60006123ca82612b99565b6123d48185612bb5565b93506123e4818560208601612d62565b80840191505092915050565b60006123fd602083612ba4565b91507f537472696e67733a20686578206c656e67746820696e73756666696369656e746000830152602082019050919050565b600061243d603483612ba4565b91507f504f4f4c3a2054686520616d6f756e74206c656573207468616e20746865206d60008301527f617267696e67206f6620696e76657374696e672e0000000000000000000000006020830152604082019050919050565b60006124a3603583612ba4565b91507f504f4f4c3a2054686520616d6f756e74206e6f74206d6174636820776974682060008301527f746f6b656e2773207072696365206f662073656c6c00000000000000000000006020830152604082019050919050565b6000612509602483612ba4565b91507f506f6f6c3a2054686520636f6e7472616374206973206e6f7420636f6d70617460008301527f69626c65000000000000000000000000000000000000000000000000000000006020830152604082019050919050565b600061256f602a83612ba4565b91507f504f4f4c3a20596f757220617265206e6f7420616e20696e766573746f72207260008301527f6567697374657265642e000000000000000000000000000000000000000000006020830152604082019050919050565b60006125d5601783612bb5565b91507f416363657373436f6e74726f6c3a206163636f756e74200000000000000000006000830152601782019050919050565b6000612615602e83612ba4565b91507f504f4f4c3a20596f75206861766520746f20776169742061667465722074686560008301527f207769746864726177206461792e0000000000000000000000000000000000006020830152604082019050919050565b600061267b603083612ba4565b91507f504f4f4c3a2056616c7565206f6620746865207769746864726177616c20657860008301527f636565647320796f75722066756e6473000000000000000000000000000000006020830152604082019050919050565b60006126e1603483612ba4565b91507f506f6f6c3a20546865206164647265737320696e736572746564206973206e6f60008301527f74206120636f6e747261637420616464726573730000000000000000000000006020830152604082019050919050565b6000612747601183612bb5565b91507f206973206d697373696e6720726f6c65200000000000000000000000000000006000830152601182019050919050565b6000612787602f83612ba4565b91507f416363657373436f6e74726f6c3a2063616e206f6e6c792072656e6f756e636560008301527f20726f6c657320666f722073656c6600000000000000000000000000000000006020830152604082019050919050565b60006127ed602783612ba4565b91507f504f4f4c3a204d696e20696e76657374696e672065786365656473207468652060008301527f616d6f756e742e000000000000000000000000000000000000000000000000006020830152604082019050919050565b61284f81612d49565b82525050565b6000612860826125c8565b915061286c82856123bf565b91506128778261273a565b915061288382846123bf565b91508190509392505050565b60006020820190506128a4600083018461234a565b92915050565b60006060820190506128bf600083018661234a565b6128cc602083018561234a565b6128d96040830184612846565b949350505050565b60006040820190506128f6600083018561234a565b6129036020830184612359565b9392505050565b600060408201905061291f600083018561234a565b61292c6020830184612846565b9392505050565b60006020820190506129486000830184612359565b92915050565b60006020820190506129636000830184612368565b92915050565b600060208201905061297e6000830184612377565b92915050565b6000602082019050818103600083015261299e8184612386565b905092915050565b600060208201905081810360008301526129bf816123f0565b9050919050565b600060208201905081810360008301526129df81612430565b9050919050565b600060208201905081810360008301526129ff81612496565b9050919050565b60006020820190508181036000830152612a1f816124fc565b9050919050565b60006020820190508181036000830152612a3f81612562565b9050919050565b60006020820190508181036000830152612a5f81612608565b9050919050565b60006020820190508181036000830152612a7f8161266e565b9050919050565b60006020820190508181036000830152612a9f816126d4565b9050919050565b60006020820190508181036000830152612abf8161277a565b9050919050565b60006020820190508181036000830152612adf816127e0565b9050919050565b6000602082019050612afb6000830184612846565b92915050565b6000606082019050612b166000830186612846565b612b236020830185612846565b612b306040830184612846565b949350505050565b6000604051905081810181811067ffffffffffffffff82111715612b5f57612b5e612e1d565b5b8060405250919050565b600067ffffffffffffffff821115612b8457612b83612e1d565b5b601f19601f8301169050602081019050919050565b600081519050919050565b600082825260208201905092915050565b600081905092915050565b6000612bcb82612d49565b9150612bd683612d49565b9250827fffffffffffffffffffffffffffffffffffffffffffffffffffffffffffffffff03821115612c0b57612c0a612dbf565b5b828201905092915050565b6000612c2182612d49565b9150612c2c83612d49565b925082612c3c57612c3b612dee565b5b828204905092915050565b6000612c5282612d49565b9150612c5d83612d49565b9250817fffffffffffffffffffffffffffffffffffffffffffffffffffffffffffffffff0483118215151615612c9657612c95612dbf565b5b828202905092915050565b6000612cac82612d49565b9150612cb783612d49565b925082821015612cca57612cc9612dbf565b5b828203905092915050565b6000612ce082612d29565b9050919050565b60008115159050919050565b6000819050919050565b60007fffffffff0000000000000000000000000000000000000000000000000000000082169050919050565b600073ffffffffffffffffffffffffffffffffffffffff82169050919050565b6000819050919050565b82818337600083830152505050565b60005b83811015612d80578082015181840152602081019050612d65565b83811115612d8f576000848401525b50505050565b6000612da082612d49565b91506000821415612db457612db3612dbf565b5b600182039050919050565b7f4e487b7100000000000000000000000000000000000000000000000000000000600052601160045260246000fd5b7f4e487b7100000000000000000000000000000000000000000000000000000000600052601260045260246000fd5b7f4e487b7100000000000000000000000000000000000000000000000000000000600052604160045260246000fd5b6000601f19601f8301169050919050565b612e6681612cd5565b8114612e7157600080fd5b50565b612e7d81612ce7565b8114612e8857600080fd5b50565b612e9481612cf3565b8114612e9f57600080fd5b50565b612eab81612cfd565b8114612eb657600080fd5b50565b612ec281612d49565b8114612ecd57600080fd5b5056fea2646970667358221220776efffc2298481ef015af7ccb5186110b8a2dc48c3e711a0cfeac5f5845838864736f6c63430008000033",
  "immutableReferences": {},
  "source": "// SPDX-License-Identifier: MIT\npragma solidity >=0.8.0 <0.9.0;\n\nimport \"@openzeppelin/contracts/token/ERC20/IERC20.sol\";\nimport \"@openzeppelin/contracts/token/ERC721/IERC721Receiver.sol\";\nimport \"@openzeppelin/contracts/utils/Counters.sol\";\nimport \"@openzeppelin/contracts/utils/Address.sol\";\nimport \"@openzeppelin/contracts/access/AccessControl.sol\";\nimport \"./INFT_Factory.sol\";\n\n\ncontract Pool is AccessControl, IERC721Receiver {\n  using Counters for Counters.Counter;\n  using Address for address;\n  bytes32 public constant FUNDER_ROLE = keccak256(\"FUNDER_ROLE\");\n\n  uint256 public minInvesting;\n  uint256 public interest;\n  uint256 public stakingDays;\n  uint256 public marginInvestment;\n  Counters.Counter public _numberOfInvestment;\n  Counters.Counter public _numberOfInvestors;\n  IERC20 currency;\n  INFT_Factory nft;\n\n  struct Investor {\n    uint256 amountFounding;\n    uint256 benefits;\n    uint256 dayDeposit;\n  }\n\n  mapping (address => Investor) public investors;\n  mapping (address => uint) public pendingReturns;\n  mapping (address => bool) public exist;\n  mapping (uint256 => bool) public financed;\n\n  event Deposit(address indexed investor, uint256 indexed amount);\n  event Withdraw(address indexed investor, uint256 indexed amount);\n  event Funding(uint256 indexed tokenId, address indexed ownerOfNFT, uint256 amountFounding);\n  event ChangedMarketPlace(address indexed newMp, uint256 indexed time);\n\n  constructor(\n    address addressCurrency,\n    address addressNFT, \n    address accountFunder, \n    uint256 MinInvesting, uint256 Rate, uint256 StakingDays, uint256 MarginInvestment) {\n      minInvesting = MinInvesting;\n      interest = Rate;\n      currency = IERC20(addressCurrency);\n      nft = INFT_Factory(addressNFT);\n      stakingDays = (StakingDays * 1 minutes) + block.timestamp;\n      marginInvestment = MarginInvestment;\n      _setupRole(DEFAULT_ADMIN_ROLE, msg.sender);\n      grantRole(FUNDER_ROLE, accountFunder);\n  }\n\n  function supportsInterface(bytes4 interfaceId) public view virtual override returns (bool) {\n    return interfaceId == type(INFT_Factory).interfaceId \n        || interfaceId == type(IERC20).interfaceId \n        || interfaceId == type(IERC721Receiver).interfaceId || super.supportsInterface(interfaceId); \n  }\n\n  function onERC721Received(address, address, uint256, bytes memory) public virtual override returns (bytes4) {\n        return this.onERC721Received.selector;\n  }\n  \n  function investingOf(address _investor) public view returns(uint256 balance){\n    balance = investors[_investor].amountFounding;\n  }\n  \n  function profit(address _investor) public view returns(uint256) {\n    return _profit(interest, investors[_investor].amountFounding);\n  }\n\n  function _liquidity() public view returns(uint256 liquidity) {\n    liquidity = currency.balanceOf(address(this));\n  }\n\n  function showRemainingTimeToWithdraw(address investor) public view returns(uint256) {\n    return (block.timestamp - investors[investor].dayDeposit) / 1 minutes;\n  } \n\n  function _interest(uint256 newInterest) public onlyRole(DEFAULT_ADMIN_ROLE) returns(bool) {\n    interest = newInterest;\n    return true;\n  }\n\n  function _stakingDays(uint256 newStakingDays) public onlyRole(DEFAULT_ADMIN_ROLE) returns(bool) {\n    stakingDays = newStakingDays;\n    return true;\n  }\n\n  function _minInvesting(uint256 newMinInvesting) public onlyRole(DEFAULT_ADMIN_ROLE) returns(bool) {\n    minInvesting = newMinInvesting;\n    return true;\n  }\n\n  function _marginInvestment(uint256 newMarginInvestmment) public onlyRole(DEFAULT_ADMIN_ROLE) returns(bool) {\n    marginInvestment = newMarginInvestmment;\n    return true;\n  }\n\n  function _changedMarketPlace(address mp) external onlyRole(DEFAULT_ADMIN_ROLE) returns (bool) {\n    require(mp.isContract(), \"Pool: The address inserted is not a contract address\");\n    require(IERC165(mp).supportsInterface(this._changedMarketPlace.selector), \"Pool: The contract is not compatible\");\n    nft.setApprovalForAll(mp, true);\n    emit ChangedMarketPlace(mp, block.timestamp);\n    return true;\n  }\n\n  function deposit(uint256 _amount) external returns(bool) {\n    if ( exist[_msgSender()] == false) {_numberOfInvestors.increment();}\n    uint256 valueINV = pendingReturns[_msgSender()] += _amount;\n    require(valueINV >= minInvesting, \"POOL: Min investing exceeds the amount.\");\n    //use approve function from web3 to allow the transaction\n    currency.transferFrom(_msgSender(), address(this), _amount);\n    uint256 _benefits = valueINV + _profit(interest, valueINV);\n    investors[_msgSender()] = Investor(valueINV, _benefits, block.timestamp);\n    exist[_msgSender()] = true;\n    emit Deposit(_msgSender(), _amount);\n    return true; \n  }\n\n  function withdraw(uint256 _valueWithdrawal) external returns(bool) {\n    require(exist[_msgSender()], \"POOL: Your are not an investor registered.\");\n    require(_valueWithdrawal <= investors[_msgSender()].benefits, \"POOL: Value of the withdrawal exceeds your funds\");\n    uint256 daysPassed = (block.timestamp - investors[_msgSender()].dayDeposit) / 1 minutes;\n    require(daysPassed >=  stakingDays + 1 minutes, \"POOL: You have to wait after the withdraw day.\");\n    currency.transfer(_msgSender(), _valueWithdrawal);\n    investors[_msgSender()].benefits -= _valueWithdrawal;\n    emit Withdraw(_msgSender(), _valueWithdrawal);\n    return true;\n  }  \n\n  function funding(uint256 _tokenId, uint256 _amount) external onlyRole(FUNDER_ROLE) returns(uint256) {\n    require(_liquidity() - _amount > marginInvestment, \"POOL: The amount lees than the marging of investing.\");\n    (uint256 priceSell, ) = INFT_Factory(address(nft)).values(_tokenId);\n    require(_amount == priceSell, \"POOL: The amount not match with token's price of sell\");\n    address ownerOfNFT = nft.ownerOf(_tokenId);\n    currency.transfer(ownerOfNFT, _amount);\n    nft.safeTransferFrom(ownerOfNFT, address(this), _tokenId);\n    financed[_tokenId] = true;\n    _numberOfInvestment.increment();\n    emit Funding(_tokenId, ownerOfNFT, _amount);\n    return _numberOfInvestment.current();\n  }\n\n  function _profit(uint256 _interestInPorcentage, uint256 _amount) private pure returns(uint256) {\n     uint256 value = (_interestInPorcentage * _amount) / (100 * 10 **18);\n     return value;\n  }\n\n}\n\n",
  "sourcePath": "D:/Trabajo/0-Reservafs/Proyectos/DIF PROJECT/Code/DIF Alpha/contracts/Pool.sol",
  "compiler": {
    "name": "solc",
    "version": "0.8.0+commit.c7dfd78e.Emscripten.clang"
  },
  "schemaVersion": "3.3.4",
  "updatedAt": "2021-08-11T02:57:59.746Z",
  "networkType": "ethereum",
  "devdoc": {
    "kind": "dev",
    "methods": {
      "getRoleAdmin(bytes32)": {
        "details": "Returns the admin role that controls `role`. See {grantRole} and {revokeRole}. To change a role's admin, use {_setRoleAdmin}."
      },
      "grantRole(bytes32,address)": {
        "details": "Grants `role` to `account`. If `account` had not been already granted `role`, emits a {RoleGranted} event. Requirements: - the caller must have ``role``'s admin role."
      },
      "hasRole(bytes32,address)": {
        "details": "Returns `true` if `account` has been granted `role`."
      },
      "renounceRole(bytes32,address)": {
        "details": "Revokes `role` from the calling account. Roles are often managed via {grantRole} and {revokeRole}: this function's purpose is to provide a mechanism for accounts to lose their privileges if they are compromised (such as when a trusted device is misplaced). If the calling account had been granted `role`, emits a {RoleRevoked} event. Requirements: - the caller must be `account`."
      },
      "revokeRole(bytes32,address)": {
        "details": "Revokes `role` from `account`. If `account` had been granted `role`, emits a {RoleRevoked} event. Requirements: - the caller must have ``role``'s admin role."
      },
      "supportsInterface(bytes4)": {
        "details": "See {IERC165-supportsInterface}."
      }
    },
    "version": 1
  },
  "userdoc": {
    "kind": "user",
    "methods": {},
    "version": 1
  }
}