{
  "contractName": "Pool",
  "abi": [
    {
      "inputs": [
        {
          "internalType": "address",
          "name": "addressCurrency",
          "type": "address"
        },
        {
          "internalType": "address",
          "name": "addressNFT",
          "type": "address"
        },
        {
          "internalType": "address",
          "name": "accountFunder",
          "type": "address"
        },
        {
          "internalType": "uint256",
          "name": "MinInvesting",
          "type": "uint256"
        },
        {
          "internalType": "uint256",
          "name": "Rate",
          "type": "uint256"
        },
        {
          "internalType": "uint256",
          "name": "StakingDays",
          "type": "uint256"
        },
        {
          "internalType": "uint256",
          "name": "MarginInvestment",
          "type": "uint256"
        }
      ],
      "stateMutability": "nonpayable",
      "type": "constructor"
    },
    {
      "anonymous": false,
      "inputs": [
        {
          "indexed": true,
          "internalType": "address",
          "name": "investor",
          "type": "address"
        },
        {
          "indexed": true,
          "internalType": "uint256",
          "name": "amount",
          "type": "uint256"
        }
      ],
      "name": "Deposit",
      "type": "event"
    },
    {
      "anonymous": false,
      "inputs": [
        {
          "indexed": true,
          "internalType": "uint256",
          "name": "tokenId",
          "type": "uint256"
        },
        {
          "indexed": true,
          "internalType": "address",
          "name": "ownerOfNFT",
          "type": "address"
        },
        {
          "indexed": false,
          "internalType": "uint256",
          "name": "amountFounding",
          "type": "uint256"
        }
      ],
      "name": "Funding",
      "type": "event"
    },
    {
      "anonymous": false,
      "inputs": [
        {
          "indexed": true,
          "internalType": "bytes32",
          "name": "role",
          "type": "bytes32"
        },
        {
          "indexed": true,
          "internalType": "bytes32",
          "name": "previousAdminRole",
          "type": "bytes32"
        },
        {
          "indexed": true,
          "internalType": "bytes32",
          "name": "newAdminRole",
          "type": "bytes32"
        }
      ],
      "name": "RoleAdminChanged",
      "type": "event"
    },
    {
      "anonymous": false,
      "inputs": [
        {
          "indexed": true,
          "internalType": "bytes32",
          "name": "role",
          "type": "bytes32"
        },
        {
          "indexed": true,
          "internalType": "address",
          "name": "account",
          "type": "address"
        },
        {
          "indexed": true,
          "internalType": "address",
          "name": "sender",
          "type": "address"
        }
      ],
      "name": "RoleGranted",
      "type": "event"
    },
    {
      "anonymous": false,
      "inputs": [
        {
          "indexed": true,
          "internalType": "bytes32",
          "name": "role",
          "type": "bytes32"
        },
        {
          "indexed": true,
          "internalType": "address",
          "name": "account",
          "type": "address"
        },
        {
          "indexed": true,
          "internalType": "address",
          "name": "sender",
          "type": "address"
        }
      ],
      "name": "RoleRevoked",
      "type": "event"
    },
    {
      "anonymous": false,
      "inputs": [
        {
          "indexed": true,
          "internalType": "address",
          "name": "investor",
          "type": "address"
        },
        {
          "indexed": true,
          "internalType": "uint256",
          "name": "amount",
          "type": "uint256"
        }
      ],
      "name": "Withdraw",
      "type": "event"
    },
    {
      "inputs": [],
      "name": "DEFAULT_ADMIN_ROLE",
      "outputs": [
        {
          "internalType": "bytes32",
          "name": "",
          "type": "bytes32"
        }
      ],
      "stateMutability": "view",
      "type": "function"
    },
    {
      "inputs": [],
      "name": "FUNDER_ROLE",
      "outputs": [
        {
          "internalType": "bytes32",
          "name": "",
          "type": "bytes32"
        }
      ],
      "stateMutability": "view",
      "type": "function"
    },
    {
      "inputs": [],
      "name": "_numberOfInvestment",
      "outputs": [
        {
          "internalType": "uint256",
          "name": "_value",
          "type": "uint256"
        }
      ],
      "stateMutability": "view",
      "type": "function"
    },
    {
      "inputs": [],
      "name": "_numberOfInvestors",
      "outputs": [
        {
          "internalType": "uint256",
          "name": "_value",
          "type": "uint256"
        }
      ],
      "stateMutability": "view",
      "type": "function"
    },
    {
      "inputs": [
        {
          "internalType": "address",
          "name": "",
          "type": "address"
        }
      ],
      "name": "exist",
      "outputs": [
        {
          "internalType": "bool",
          "name": "",
          "type": "bool"
        }
      ],
      "stateMutability": "view",
      "type": "function"
    },
    {
      "inputs": [
        {
          "internalType": "uint256",
          "name": "",
          "type": "uint256"
        }
      ],
      "name": "financed",
      "outputs": [
        {
          "internalType": "bool",
          "name": "",
          "type": "bool"
        }
      ],
      "stateMutability": "view",
      "type": "function"
    },
    {
      "inputs": [
        {
          "internalType": "bytes32",
          "name": "role",
          "type": "bytes32"
        }
      ],
      "name": "getRoleAdmin",
      "outputs": [
        {
          "internalType": "bytes32",
          "name": "",
          "type": "bytes32"
        }
      ],
      "stateMutability": "view",
      "type": "function"
    },
    {
      "inputs": [
        {
          "internalType": "bytes32",
          "name": "role",
          "type": "bytes32"
        },
        {
          "internalType": "address",
          "name": "account",
          "type": "address"
        }
      ],
      "name": "grantRole",
      "outputs": [],
      "stateMutability": "nonpayable",
      "type": "function"
    },
    {
      "inputs": [
        {
          "internalType": "bytes32",
          "name": "role",
          "type": "bytes32"
        },
        {
          "internalType": "address",
          "name": "account",
          "type": "address"
        }
      ],
      "name": "hasRole",
      "outputs": [
        {
          "internalType": "bool",
          "name": "",
          "type": "bool"
        }
      ],
      "stateMutability": "view",
      "type": "function"
    },
    {
      "inputs": [],
      "name": "interest",
      "outputs": [
        {
          "internalType": "uint256",
          "name": "",
          "type": "uint256"
        }
      ],
      "stateMutability": "view",
      "type": "function"
    },
    {
      "inputs": [
        {
          "internalType": "address",
          "name": "",
          "type": "address"
        }
      ],
      "name": "investors",
      "outputs": [
        {
          "internalType": "uint256",
          "name": "amountFounding",
          "type": "uint256"
        },
        {
          "internalType": "uint256",
          "name": "benefits",
          "type": "uint256"
        },
        {
          "internalType": "uint256",
          "name": "dayDeposit",
          "type": "uint256"
        }
      ],
      "stateMutability": "view",
      "type": "function"
    },
    {
      "inputs": [],
      "name": "marginInvestment",
      "outputs": [
        {
          "internalType": "uint256",
          "name": "",
          "type": "uint256"
        }
      ],
      "stateMutability": "view",
      "type": "function"
    },
    {
      "inputs": [],
      "name": "minInvesting",
      "outputs": [
        {
          "internalType": "uint256",
          "name": "",
          "type": "uint256"
        }
      ],
      "stateMutability": "view",
      "type": "function"
    },
    {
      "inputs": [
        {
          "internalType": "address",
          "name": "",
          "type": "address"
        }
      ],
      "name": "pendingReturns",
      "outputs": [
        {
          "internalType": "uint256",
          "name": "",
          "type": "uint256"
        }
      ],
      "stateMutability": "view",
      "type": "function"
    },
    {
      "inputs": [
        {
          "internalType": "bytes32",
          "name": "role",
          "type": "bytes32"
        },
        {
          "internalType": "address",
          "name": "account",
          "type": "address"
        }
      ],
      "name": "renounceRole",
      "outputs": [],
      "stateMutability": "nonpayable",
      "type": "function"
    },
    {
      "inputs": [
        {
          "internalType": "bytes32",
          "name": "role",
          "type": "bytes32"
        },
        {
          "internalType": "address",
          "name": "account",
          "type": "address"
        }
      ],
      "name": "revokeRole",
      "outputs": [],
      "stateMutability": "nonpayable",
      "type": "function"
    },
    {
      "inputs": [],
      "name": "stakingDays",
      "outputs": [
        {
          "internalType": "uint256",
          "name": "",
          "type": "uint256"
        }
      ],
      "stateMutability": "view",
      "type": "function"
    },
    {
      "inputs": [
        {
          "internalType": "bytes4",
          "name": "interfaceId",
          "type": "bytes4"
        }
      ],
      "name": "supportsInterface",
      "outputs": [
        {
          "internalType": "bool",
          "name": "",
          "type": "bool"
        }
      ],
      "stateMutability": "view",
      "type": "function"
    },
    {
      "inputs": [
        {
          "internalType": "address",
          "name": "_investor",
          "type": "address"
        }
      ],
      "name": "investingOf",
      "outputs": [
        {
          "internalType": "uint256",
          "name": "balance",
          "type": "uint256"
        }
      ],
      "stateMutability": "view",
      "type": "function"
    },
    {
      "inputs": [
        {
          "internalType": "address",
          "name": "_investor",
          "type": "address"
        }
      ],
      "name": "profit",
      "outputs": [
        {
          "internalType": "uint256",
          "name": "",
          "type": "uint256"
        }
      ],
      "stateMutability": "view",
      "type": "function"
    },
    {
      "inputs": [],
      "name": "_liquidity",
      "outputs": [
        {
          "internalType": "uint256",
          "name": "liquidity",
          "type": "uint256"
        }
      ],
      "stateMutability": "view",
      "type": "function"
    },
    {
      "inputs": [
        {
          "internalType": "address",
          "name": "investor",
          "type": "address"
        }
      ],
      "name": "showRemainingTimeToWithdraw",
      "outputs": [
        {
          "internalType": "uint256",
          "name": "",
          "type": "uint256"
        }
      ],
      "stateMutability": "view",
      "type": "function"
    },
    {
      "inputs": [
        {
          "internalType": "uint256",
          "name": "newInterest",
          "type": "uint256"
        }
      ],
      "name": "_interest",
      "outputs": [
        {
          "internalType": "bool",
          "name": "",
          "type": "bool"
        }
      ],
      "stateMutability": "nonpayable",
      "type": "function"
    },
    {
      "inputs": [
        {
          "internalType": "uint256",
          "name": "newStakingDays",
          "type": "uint256"
        }
      ],
      "name": "_stakingDays",
      "outputs": [
        {
          "internalType": "bool",
          "name": "",
          "type": "bool"
        }
      ],
      "stateMutability": "nonpayable",
      "type": "function"
    },
    {
      "inputs": [
        {
          "internalType": "uint256",
          "name": "newMinInvesting",
          "type": "uint256"
        }
      ],
      "name": "_minInvesting",
      "outputs": [
        {
          "internalType": "bool",
          "name": "",
          "type": "bool"
        }
      ],
      "stateMutability": "nonpayable",
      "type": "function"
    },
    {
      "inputs": [
        {
          "internalType": "uint256",
          "name": "newMarginInvestmment",
          "type": "uint256"
        }
      ],
      "name": "_marginInvestment",
      "outputs": [
        {
          "internalType": "bool",
          "name": "",
          "type": "bool"
        }
      ],
      "stateMutability": "nonpayable",
      "type": "function"
    },
    {
      "inputs": [
        {
          "internalType": "uint256",
          "name": "_amount",
          "type": "uint256"
        }
      ],
      "name": "deposit",
      "outputs": [
        {
          "internalType": "bool",
          "name": "",
          "type": "bool"
        }
      ],
      "stateMutability": "nonpayable",
      "type": "function"
    },
    {
      "inputs": [
        {
          "internalType": "uint256",
          "name": "_valueWithdrawal",
          "type": "uint256"
        }
      ],
      "name": "withdraw",
      "outputs": [
        {
          "internalType": "bool",
          "name": "",
          "type": "bool"
        }
      ],
      "stateMutability": "nonpayable",
      "type": "function"
    },
    {
      "inputs": [
        {
          "internalType": "uint256",
          "name": "_tokenId",
          "type": "uint256"
        },
        {
          "internalType": "uint256",
          "name": "_amount",
          "type": "uint256"
        }
      ],
      "name": "funding",
      "outputs": [
        {
          "internalType": "uint256",
          "name": "",
          "type": "uint256"
        }
      ],
      "stateMutability": "nonpayable",
      "type": "function"
    }
  ],
  "bytecode": "0x60806040523480156200001157600080fd5b50604051620034ff380380620034ff833981810160405281019062000037919062000726565b836001819055508260028190555086600760006101000a81548173ffffffffffffffffffffffffffffffffffffffff021916908373ffffffffffffffffffffffffffffffffffffffff16021790555085600860006101000a81548173ffffffffffffffffffffffffffffffffffffffff021916908373ffffffffffffffffffffffffffffffffffffffff16021790555042603c83620000d7919062000a1d565b620000e39190620009c0565b60038190555080600481905550620001056000801b336200014460201b60201c565b620001377f0914bb97ca83e85ef385857d9d418f187ff630589e0c9f44db92976d8e4519cb866200015a60201b60201c565b5050505050505062000b95565b620001568282620001a360201b60201c565b5050565b6200016b826200029460201b60201c565b6200018c8162000180620002b360201b60201c565b620002bb60201b60201c565b6200019e8383620001a360201b60201c565b505050565b620001b582826200037f60201b60201c565b6200029057600160008084815260200190815260200160002060000160008373ffffffffffffffffffffffffffffffffffffffff1673ffffffffffffffffffffffffffffffffffffffff16815260200190815260200160002060006101000a81548160ff02191690831515021790555062000235620002b360201b60201c565b73ffffffffffffffffffffffffffffffffffffffff168173ffffffffffffffffffffffffffffffffffffffff16837f2f8788117e7eff1d82e926ec794901d17c78024a50270940304540a733656f0d60405160405180910390a45b5050565b6000806000838152602001908152602001600020600101549050919050565b600033905090565b620002cd82826200037f60201b60201c565b6200037b57620003008173ffffffffffffffffffffffffffffffffffffffff166014620003e960201b6200169f1760201c565b6200031b8360001c6020620003e960201b6200169f1760201c565b6040516020016200032e92919062000911565b6040516020818303038152906040526040517f08c379a000000000000000000000000000000000000000000000000000000000815260040162000372919062000953565b60405180910390fd5b5050565b600080600084815260200190815260200160002060000160008373ffffffffffffffffffffffffffffffffffffffff1673ffffffffffffffffffffffffffffffffffffffff16815260200190815260200160002060009054906101000a900460ff16905092915050565b606060006002836002620003fe919062000a1d565b6200040a9190620009c0565b67ffffffffffffffff8111156200044a577f4e487b7100000000000000000000000000000000000000000000000000000000600052604160045260246000fd5b6040519080825280601f01601f1916602001820160405280156200047d5781602001600182028036833780820191505090505b5090507f300000000000000000000000000000000000000000000000000000000000000081600081518110620004dc577f4e487b7100000000000000000000000000000000000000000000000000000000600052603260045260246000fd5b60200101907effffffffffffffffffffffffffffffffffffffffffffffffffffffffffffff1916908160001a9053507f78000000000000000000000000000000000000000000000000000000000000008160018151811062000567577f4e487b7100000000000000000000000000000000000000000000000000000000600052603260045260246000fd5b60200101907effffffffffffffffffffffffffffffffffffffffffffffffffffffffffffff1916908160001a90535060006001846002620005a9919062000a1d565b620005b59190620009c0565b90505b6001811115620006a7577f3031323334353637383961626364656600000000000000000000000000000000600f8616601081106200061f577f4e487b7100000000000000000000000000000000000000000000000000000000600052603260045260246000fd5b1a60f81b8282815181106200065d577f4e487b7100000000000000000000000000000000000000000000000000000000600052603260045260246000fd5b60200101907effffffffffffffffffffffffffffffffffffffffffffffffffffffffffffff1916908160001a905350600485901c9450806200069f9062000af2565b9050620005b8565b5060008414620006ee576040517f08c379a0000000000000000000000000000000000000000000000000000000008152600401620006e59062000977565b60405180910390fd5b8091505092915050565b600081519050620007098162000b61565b92915050565b600081519050620007208162000b7b565b92915050565b600080600080600080600060e0888a0312156200074257600080fd5b6000620007528a828b01620006f8565b9750506020620007658a828b01620006f8565b9650506040620007788a828b01620006f8565b95505060606200078b8a828b016200070f565b94505060806200079e8a828b016200070f565b93505060a0620007b18a828b016200070f565b92505060c0620007c48a828b016200070f565b91505092959891949750929550565b6000620007e08262000999565b620007ec8185620009a4565b9350620007fe81856020860162000abc565b620008098162000b50565b840191505092915050565b6000620008218262000999565b6200082d8185620009b5565b93506200083f81856020860162000abc565b80840191505092915050565b60006200085a602083620009a4565b91507f537472696e67733a20686578206c656e67746820696e73756666696369656e746000830152602082019050919050565b60006200089c601783620009b5565b91507f416363657373436f6e74726f6c3a206163636f756e74200000000000000000006000830152601782019050919050565b6000620008de601183620009b5565b91507f206973206d697373696e6720726f6c65200000000000000000000000000000006000830152601182019050919050565b60006200091e826200088d565b91506200092c828562000814565b91506200093982620008cf565b915062000947828462000814565b91508190509392505050565b600060208201905081810360008301526200096f8184620007d3565b905092915050565b6000602082019050818103600083015262000992816200084b565b9050919050565b600081519050919050565b600082825260208201905092915050565b600081905092915050565b6000620009cd8262000ab2565b9150620009da8362000ab2565b9250827fffffffffffffffffffffffffffffffffffffffffffffffffffffffffffffffff0382111562000a125762000a1162000b21565b5b828201905092915050565b600062000a2a8262000ab2565b915062000a378362000ab2565b9250817fffffffffffffffffffffffffffffffffffffffffffffffffffffffffffffffff048311821515161562000a735762000a7262000b21565b5b828202905092915050565b600062000a8b8262000a92565b9050919050565b600073ffffffffffffffffffffffffffffffffffffffff82169050919050565b6000819050919050565b60005b8381101562000adc57808201518184015260208101905062000abf565b8381111562000aec576000848401525b50505050565b600062000aff8262000ab2565b9150600082141562000b165762000b1562000b21565b5b600182039050919050565b7f4e487b7100000000000000000000000000000000000000000000000000000000600052601160045260246000fd5b6000601f19601f8301169050919050565b62000b6c8162000a7e565b811462000b7857600080fd5b50565b62000b868162000ab2565b811462000b9257600080fd5b50565b61295a8062000ba56000396000f3fe608060405234801561001057600080fd5b50600436106101cf5760003560e01c80636f7bc9be11610104578063c392f766116100a2578063d547741f11610071578063d547741f146105ce578063d8cae697146105ea578063e120d6b21461061a578063fb4db89514610638576101cf565b8063c392f76614610556578063c72ade2a14610574578063cfbd01e314610592578063d23595f0146105b0576101cf565b80639f5e994d116100de5780639f5e994d146104a8578063a217fddf146104d8578063af9b6fa6146104f6578063b6b55f2514610526576101cf565b80636f7bc9be14610428578063711241bc1461045a57806391d1485414610478576101cf565b80632e1a7d4d1161017157806336568abe1161014b57806336568abe1461038e578063491d0a56146103aa5780634dfefc4b146103c857806353113723146103f8576101cf565b80632e1a7d4d146103245780632f2ff15d1461035457806334aedecd14610370576101cf565b80632071bee6116101ad5780632071bee61461026457806321f8f72914610294578063248a9ca3146102c457806326b387bb146102f4576101cf565b806301ffc9a7146101d457806302550e4d146102045780630e91a5a514610234575b600080fd5b6101ee60048036038101906101e99190611ea9565b610668565b6040516101fb9190612481565b60405180910390f35b61021e60048036038101906102199190611dc9565b6107b2565b60405161022b91906125d9565b60405180910390f35b61024e60048036038101906102499190611ed2565b610809565b60405161025b9190612481565b60405180910390f35b61027e60048036038101906102799190611ed2565b610831565b60405161028b9190612481565b60405180910390f35b6102ae60048036038101906102a99190611dc9565b610859565b6040516102bb91906125d9565b60405180910390f35b6102de60048036038101906102d99190611e44565b6108a5565b6040516102eb919061249c565b60405180910390f35b61030e60048036038101906103099190611dc9565b6108c4565b60405161031b91906125d9565b60405180910390f35b61033e60048036038101906103399190611ed2565b6108dc565b60405161034b9190612481565b60405180910390f35b61036e60048036038101906103699190611e6d565b610c1f565b005b610378610c48565b604051610385919061249c565b60405180910390f35b6103a860048036038101906103a39190611e6d565b610c6c565b005b6103b2610cef565b6040516103bf91906125d9565b60405180910390f35b6103e260048036038101906103dd9190611dc9565b610da1565b6040516103ef9190612481565b60405180910390f35b610412600480360381019061040d9190611ed2565b610dc1565b60405161041f9190612481565b60405180910390f35b610442600480360381019061043d9190611dc9565b610de1565b604051610451939291906125f4565b60405180910390f35b610462610e0b565b60405161046f91906125d9565b60405180910390f35b610492600480360381019061048d9190611e6d565b610e11565b60405161049f9190612481565b60405180910390f35b6104c260048036038101906104bd9190611f24565b610e7b565b6040516104cf91906125d9565b60405180910390f35b6104e0611282565b6040516104ed919061249c565b60405180910390f35b610510600480360381019061050b9190611dc9565b611289565b60405161051d91906125d9565b60405180910390f35b610540600480360381019061053b9190611ed2565b6112e0565b60405161054d9190612481565b60405180910390f35b61055e6115fc565b60405161056b91906125d9565b60405180910390f35b61057c611602565b60405161058991906125d9565b60405180910390f35b61059a611608565b6040516105a791906125d9565b60405180910390f35b6105b861160e565b6040516105c591906125d9565b60405180910390f35b6105e860048036038101906105e39190611e6d565b61161a565b005b61060460048036038101906105ff9190611ed2565b611643565b6040516106119190612481565b60405180910390f35b61062261166b565b60405161062f91906125d9565b60405180910390f35b610652600480360381019061064d9190611ed2565b611677565b60405161065f9190612481565b60405180910390f35b60007f5e383d21000000000000000000000000000000000000000000000000000000007bffffffffffffffffffffffffffffffffffffffffffffffffffffffff1916827bffffffffffffffffffffffffffffffffffffffffffffffffffffffff1916148061073357507f36372b07000000000000000000000000000000000000000000000000000000007bffffffffffffffffffffffffffffffffffffffffffffffffffffffff1916827bffffffffffffffffffffffffffffffffffffffffffffffffffffffff1916145b8061079b57507f150b7a02000000000000000000000000000000000000000000000000000000007bffffffffffffffffffffffffffffffffffffffffffffffffffffffff1916827bffffffffffffffffffffffffffffffffffffffffffffffffffffffff1916145b806107ab57506107aa82611999565b5b9050919050565b6000610802600254600960008573ffffffffffffffffffffffffffffffffffffffff1673ffffffffffffffffffffffffffffffffffffffff16815260200190815260200160002060000154611a13565b9050919050565b60008060001b6108208161081b611a42565b611a4a565b826002819055506001915050919050565b60008060001b61084881610843611a42565b611a4a565b826003819055506001915050919050565b6000600960008373ffffffffffffffffffffffffffffffffffffffff1673ffffffffffffffffffffffffffffffffffffffff168152602001908152602001600020600001549050919050565b6000806000838152602001908152602001600020600101549050919050565b600a6020528060005260406000206000915090505481565b6000600b60006108ea611a42565b73ffffffffffffffffffffffffffffffffffffffff1673ffffffffffffffffffffffffffffffffffffffff16815260200190815260200160002060009054906101000a900460ff16610971576040517f08c379a000000000000000000000000000000000000000000000000000000000815260040161096890612539565b60405180910390fd5b6009600061097d611a42565b73ffffffffffffffffffffffffffffffffffffffff1673ffffffffffffffffffffffffffffffffffffffff168152602001908152602001600020600101548211156109fd576040517f08c379a00000000000000000000000000000000000000000000000000000000081526004016109f490612579565b60405180910390fd5b6000603c60096000610a0d611a42565b73ffffffffffffffffffffffffffffffffffffffff1673ffffffffffffffffffffffffffffffffffffffff1681526020019081526020016000206002015442610a569190612733565b610a6091906126a8565b9050603c600354610a719190612652565b811015610ab3576040517f08c379a0000000000000000000000000000000000000000000000000000000008152600401610aaa90612559565b60405180910390fd5b600760009054906101000a900473ffffffffffffffffffffffffffffffffffffffff1673ffffffffffffffffffffffffffffffffffffffff1663a9059cbb610af9611a42565b856040518363ffffffff1660e01b8152600401610b17929190612458565b602060405180830381600087803b158015610b3157600080fd5b505af1158015610b45573d6000803e3d6000fd5b505050506040513d601f19601f82011682018060405250810190610b699190611e1b565b508260096000610b77611a42565b73ffffffffffffffffffffffffffffffffffffffff1673ffffffffffffffffffffffffffffffffffffffff1681526020019081526020016000206001016000828254610bc39190612733565b9250508190555082610bd3611a42565b73ffffffffffffffffffffffffffffffffffffffff167f884edad9ce6fa2440d8a54cc123490eb96d2768479d49ff9c7366125a942436460405160405180910390a36001915050919050565b610c28826108a5565b610c3981610c34611a42565b611a4a565b610c438383611ae7565b505050565b7f0914bb97ca83e85ef385857d9d418f187ff630589e0c9f44db92976d8e4519cb81565b610c74611a42565b73ffffffffffffffffffffffffffffffffffffffff168173ffffffffffffffffffffffffffffffffffffffff1614610ce1576040517f08c379a0000000000000000000000000000000000000000000000000000000008152600401610cd890612599565b60405180910390fd5b610ceb8282611bc7565b5050565b6000600760009054906101000a900473ffffffffffffffffffffffffffffffffffffffff1673ffffffffffffffffffffffffffffffffffffffff166370a08231306040518263ffffffff1660e01b8152600401610d4c9190612406565b60206040518083038186803b158015610d6457600080fd5b505afa158015610d78573d6000803e3d6000fd5b505050506040513d601f19601f82011682018060405250810190610d9c9190611efb565b905090565b600b6020528060005260406000206000915054906101000a900460ff1681565b600c6020528060005260406000206000915054906101000a900460ff1681565b60096020528060005260406000206000915090508060000154908060010154908060020154905083565b60045481565b600080600084815260200190815260200160002060000160008373ffffffffffffffffffffffffffffffffffffffff1673ffffffffffffffffffffffffffffffffffffffff16815260200190815260200160002060009054906101000a900460ff16905092915050565b60007f0914bb97ca83e85ef385857d9d418f187ff630589e0c9f44db92976d8e4519cb610eaf81610eaa611a42565b611a4a565b60045483610ebb610cef565b610ec59190612733565b11610f05576040517f08c379a0000000000000000000000000000000000000000000000000000000008152600401610efc906124f9565b60405180910390fd5b6000600860009054906101000a900473ffffffffffffffffffffffffffffffffffffffff1673ffffffffffffffffffffffffffffffffffffffff16635e383d21866040518263ffffffff1660e01b8152600401610f6291906125d9565b6040805180830381600087803b158015610f7b57600080fd5b505af1158015610f8f573d6000803e3d6000fd5b505050506040513d601f19601f82011682018060405250810190610fb39190611f60565b509050808414610ff8576040517f08c379a0000000000000000000000000000000000000000000000000000000008152600401610fef90612519565b60405180910390fd5b6000600860009054906101000a900473ffffffffffffffffffffffffffffffffffffffff1673ffffffffffffffffffffffffffffffffffffffff16636352211e876040518263ffffffff1660e01b815260040161105591906125d9565b60206040518083038186803b15801561106d57600080fd5b505afa158015611081573d6000803e3d6000fd5b505050506040513d601f19601f820116820180604052508101906110a59190611df2565b9050600760009054906101000a900473ffffffffffffffffffffffffffffffffffffffff1673ffffffffffffffffffffffffffffffffffffffff1663a9059cbb82876040518363ffffffff1660e01b8152600401611104929190612458565b602060405180830381600087803b15801561111e57600080fd5b505af1158015611132573d6000803e3d6000fd5b505050506040513d601f19601f820116820180604052508101906111569190611e1b565b50600860009054906101000a900473ffffffffffffffffffffffffffffffffffffffff1673ffffffffffffffffffffffffffffffffffffffff166342842e0e8230896040518463ffffffff1660e01b81526004016111b693929190612421565b600060405180830381600087803b1580156111d057600080fd5b505af11580156111e4573d6000803e3d6000fd5b505050506001600c600088815260200190815260200160002060006101000a81548160ff02191690831515021790555061121e6005611ca8565b8073ffffffffffffffffffffffffffffffffffffffff16867fef1243131cc4d5c6fd57f61177739b68f2fe5a7ffedb8fc74a856cd8aeb592a38760405161126591906125d9565b60405180910390a36112776005611cbe565b935050505092915050565b6000801b81565b600042600960008473ffffffffffffffffffffffffffffffffffffffff1673ffffffffffffffffffffffffffffffffffffffff168152602001908152602001600020600201546112d99190612733565b9050919050565b6000801515600b60006112f1611a42565b73ffffffffffffffffffffffffffffffffffffffff1673ffffffffffffffffffffffffffffffffffffffff16815260200190815260200160002060009054906101000a900460ff161515141561134c5761134b6006611ca8565b5b600082600a600061135b611a42565b73ffffffffffffffffffffffffffffffffffffffff1673ffffffffffffffffffffffffffffffffffffffff16815260200190815260200160002060008282546113a49190612652565b92505081905590506001548110156113f1576040517f08c379a00000000000000000000000000000000000000000000000000000000081526004016113e8906125b9565b60405180910390fd5b600760009054906101000a900473ffffffffffffffffffffffffffffffffffffffff1673ffffffffffffffffffffffffffffffffffffffff166323b872dd611437611a42565b30866040518463ffffffff1660e01b815260040161145793929190612421565b602060405180830381600087803b15801561147157600080fd5b505af1158015611485573d6000803e3d6000fd5b505050506040513d601f19601f820116820180604052508101906114a99190611e1b565b5060006114b860025483611a13565b826114c39190612652565b9050604051806060016040528083815260200182815260200142815250600960006114ec611a42565b73ffffffffffffffffffffffffffffffffffffffff1673ffffffffffffffffffffffffffffffffffffffff1681526020019081526020016000206000820151816000015560208201518160010155604082015181600201559050506001600b6000611555611a42565b73ffffffffffffffffffffffffffffffffffffffff1673ffffffffffffffffffffffffffffffffffffffff16815260200190815260200160002060006101000a81548160ff021916908315150217905550836115af611a42565b73ffffffffffffffffffffffffffffffffffffffff167fe1fffcc4923d04b559f4d29a8bfc6cda04eb5b0d3c460751c2402c5c5cc9109c60405160405180910390a3600192505050919050565b60025481565b60035481565b60015481565b60068060000154905081565b611623826108a5565b6116348161162f611a42565b611a4a565b61163e8383611bc7565b505050565b60008060001b61165a81611655611a42565b611a4a565b826004819055506001915050919050565b60058060000154905081565b60008060001b61168e81611689611a42565b611a4a565b826001819055506001915050919050565b6060600060028360026116b291906126d9565b6116bc9190612652565b67ffffffffffffffff8111156116fb577f4e487b7100000000000000000000000000000000000000000000000000000000600052604160045260246000fd5b6040519080825280601f01601f19166020018201604052801561172d5781602001600182028036833780820191505090505b5090507f30000000000000000000000000000000000000000000000000000000000000008160008151811061178b577f4e487b7100000000000000000000000000000000000000000000000000000000600052603260045260246000fd5b60200101907effffffffffffffffffffffffffffffffffffffffffffffffffffffffffffff1916908160001a9053507f780000000000000000000000000000000000000000000000000000000000000081600181518110611815577f4e487b7100000000000000000000000000000000000000000000000000000000600052603260045260246000fd5b60200101907effffffffffffffffffffffffffffffffffffffffffffffffffffffffffffff1916908160001a9053506000600184600261185591906126d9565b61185f9190612652565b90505b600181111561194b577f3031323334353637383961626364656600000000000000000000000000000000600f8616601081106118c7577f4e487b7100000000000000000000000000000000000000000000000000000000600052603260045260246000fd5b1a60f81b828281518110611904577f4e487b7100000000000000000000000000000000000000000000000000000000600052603260045260246000fd5b60200101907effffffffffffffffffffffffffffffffffffffffffffffffffffffffffffff1916908160001a905350600485901c94508061194490612818565b9050611862565b506000841461198f576040517f08c379a0000000000000000000000000000000000000000000000000000000008152600401611986906124d9565b60405180910390fd5b8091505092915050565b60007f7965db0b000000000000000000000000000000000000000000000000000000007bffffffffffffffffffffffffffffffffffffffffffffffffffffffff1916827bffffffffffffffffffffffffffffffffffffffffffffffffffffffff19161480611a0c5750611a0b82611ccc565b5b9050919050565b60008068056bc75e2d631000008385611a2c91906126d9565b611a3691906126a8565b90508091505092915050565b600033905090565b611a548282610e11565b611ae357611a798173ffffffffffffffffffffffffffffffffffffffff16601461169f565b611a878360001c602061169f565b604051602001611a989291906123cc565b6040516020818303038152906040526040517f08c379a0000000000000000000000000000000000000000000000000000000008152600401611ada91906124b7565b60405180910390fd5b5050565b611af18282610e11565b611bc357600160008084815260200190815260200160002060000160008373ffffffffffffffffffffffffffffffffffffffff1673ffffffffffffffffffffffffffffffffffffffff16815260200190815260200160002060006101000a81548160ff021916908315150217905550611b68611a42565b73ffffffffffffffffffffffffffffffffffffffff168173ffffffffffffffffffffffffffffffffffffffff16837f2f8788117e7eff1d82e926ec794901d17c78024a50270940304540a733656f0d60405160405180910390a45b5050565b611bd18282610e11565b15611ca457600080600084815260200190815260200160002060000160008373ffffffffffffffffffffffffffffffffffffffff1673ffffffffffffffffffffffffffffffffffffffff16815260200190815260200160002060006101000a81548160ff021916908315150217905550611c49611a42565b73ffffffffffffffffffffffffffffffffffffffff168173ffffffffffffffffffffffffffffffffffffffff16837ff6391f5c32d9c69d2a47ea670b442974b53935d1edc7fd64eb21e047a839171b60405160405180910390a45b5050565b6001816000016000828254019250508190555050565b600081600001549050919050565b60007f01ffc9a7000000000000000000000000000000000000000000000000000000007bffffffffffffffffffffffffffffffffffffffffffffffffffffffff1916827bffffffffffffffffffffffffffffffffffffffffffffffffffffffff1916149050919050565b600081359050611d45816128b1565b92915050565b600081519050611d5a816128b1565b92915050565b600081519050611d6f816128c8565b92915050565b600081359050611d84816128df565b92915050565b600081359050611d99816128f6565b92915050565b600081359050611dae8161290d565b92915050565b600081519050611dc38161290d565b92915050565b600060208284031215611ddb57600080fd5b6000611de984828501611d36565b91505092915050565b600060208284031215611e0457600080fd5b6000611e1284828501611d4b565b91505092915050565b600060208284031215611e2d57600080fd5b6000611e3b84828501611d60565b91505092915050565b600060208284031215611e5657600080fd5b6000611e6484828501611d75565b91505092915050565b60008060408385031215611e8057600080fd5b6000611e8e85828601611d75565b9250506020611e9f85828601611d36565b9150509250929050565b600060208284031215611ebb57600080fd5b6000611ec984828501611d8a565b91505092915050565b600060208284031215611ee457600080fd5b6000611ef284828501611d9f565b91505092915050565b600060208284031215611f0d57600080fd5b6000611f1b84828501611db4565b91505092915050565b60008060408385031215611f3757600080fd5b6000611f4585828601611d9f565b9250506020611f5685828601611d9f565b9150509250929050565b60008060408385031215611f7357600080fd5b6000611f8185828601611db4565b9250506020611f9285828601611db4565b9150509250929050565b611fa581612767565b82525050565b611fb481612779565b82525050565b611fc381612785565b82525050565b6000611fd48261262b565b611fde8185612636565b9350611fee8185602086016127e5565b611ff7816128a0565b840191505092915050565b600061200d8261262b565b6120178185612647565b93506120278185602086016127e5565b80840191505092915050565b6000612040602083612636565b91507f537472696e67733a20686578206c656e67746820696e73756666696369656e746000830152602082019050919050565b6000612080603483612636565b91507f504f4f4c3a2054686520616d6f756e74206c656573207468616e20746865206d60008301527f617267696e67206f6620696e76657374696e672e0000000000000000000000006020830152604082019050919050565b60006120e6603583612636565b91507f504f4f4c3a2054686520616d6f756e74206e6f74206d6174636820776974682060008301527f746f6b656e2773207072696365206f662073656c6c00000000000000000000006020830152604082019050919050565b600061214c602a83612636565b91507f504f4f4c3a20596f757220617265206e6f7420616e20696e766573746f72207260008301527f6567697374657265642e000000000000000000000000000000000000000000006020830152604082019050919050565b60006121b2601783612647565b91507f416363657373436f6e74726f6c3a206163636f756e74200000000000000000006000830152601782019050919050565b60006121f2602e83612636565b91507f504f4f4c3a20596f75206861766520746f20776169742061667465722074686560008301527f207769746864726177206461792e0000000000000000000000000000000000006020830152604082019050919050565b6000612258603083612636565b91507f504f4f4c3a2056616c7565206f6620746865207769746864726177616c20657860008301527f636565647320796f75722066756e6473000000000000000000000000000000006020830152604082019050919050565b60006122be601183612647565b91507f206973206d697373696e6720726f6c65200000000000000000000000000000006000830152601182019050919050565b60006122fe602f83612636565b91507f416363657373436f6e74726f6c3a2063616e206f6e6c792072656e6f756e636560008301527f20726f6c657320666f722073656c6600000000000000000000000000000000006020830152604082019050919050565b6000612364602783612636565b91507f504f4f4c3a204d696e20696e76657374696e672065786365656473207468652060008301527f616d6f756e742e000000000000000000000000000000000000000000000000006020830152604082019050919050565b6123c6816127db565b82525050565b60006123d7826121a5565b91506123e38285612002565b91506123ee826122b1565b91506123fa8284612002565b91508190509392505050565b600060208201905061241b6000830184611f9c565b92915050565b60006060820190506124366000830186611f9c565b6124436020830185611f9c565b61245060408301846123bd565b949350505050565b600060408201905061246d6000830185611f9c565b61247a60208301846123bd565b9392505050565b60006020820190506124966000830184611fab565b92915050565b60006020820190506124b16000830184611fba565b92915050565b600060208201905081810360008301526124d18184611fc9565b905092915050565b600060208201905081810360008301526124f281612033565b9050919050565b6000602082019050818103600083015261251281612073565b9050919050565b60006020820190508181036000830152612532816120d9565b9050919050565b600060208201905081810360008301526125528161213f565b9050919050565b60006020820190508181036000830152612572816121e5565b9050919050565b600060208201905081810360008301526125928161224b565b9050919050565b600060208201905081810360008301526125b2816122f1565b9050919050565b600060208201905081810360008301526125d281612357565b9050919050565b60006020820190506125ee60008301846123bd565b92915050565b600060608201905061260960008301866123bd565b61261660208301856123bd565b61262360408301846123bd565b949350505050565b600081519050919050565b600082825260208201905092915050565b600081905092915050565b600061265d826127db565b9150612668836127db565b9250827fffffffffffffffffffffffffffffffffffffffffffffffffffffffffffffffff0382111561269d5761269c612842565b5b828201905092915050565b60006126b3826127db565b91506126be836127db565b9250826126ce576126cd612871565b5b828204905092915050565b60006126e4826127db565b91506126ef836127db565b9250817fffffffffffffffffffffffffffffffffffffffffffffffffffffffffffffffff048311821515161561272857612727612842565b5b828202905092915050565b600061273e826127db565b9150612749836127db565b92508282101561275c5761275b612842565b5b828203905092915050565b6000612772826127bb565b9050919050565b60008115159050919050565b6000819050919050565b60007fffffffff0000000000000000000000000000000000000000000000000000000082169050919050565b600073ffffffffffffffffffffffffffffffffffffffff82169050919050565b6000819050919050565b60005b838110156128035780820151818401526020810190506127e8565b83811115612812576000848401525b50505050565b6000612823826127db565b9150600082141561283757612836612842565b5b600182039050919050565b7f4e487b7100000000000000000000000000000000000000000000000000000000600052601160045260246000fd5b7f4e487b7100000000000000000000000000000000000000000000000000000000600052601260045260246000fd5b6000601f19601f8301169050919050565b6128ba81612767565b81146128c557600080fd5b50565b6128d181612779565b81146128dc57600080fd5b50565b6128e881612785565b81146128f357600080fd5b50565b6128ff8161278f565b811461290a57600080fd5b50565b612916816127db565b811461292157600080fd5b5056fea264697066735822122006e6b82ebce9c2d5818863d69aabf223d6be1afffded1506f95c61eedeb9e6e664736f6c63430008000033",
  "immutableReferences": {},
  "source": "// SPDX-License-Identifier: MIT\npragma solidity >=0.8.0 <0.9.0;\n\nimport \"@openzeppelin/contracts/token/ERC20/IERC20.sol\";\nimport \"@openzeppelin/contracts/token/ERC721/IERC721Receiver.sol\";\nimport \"@openzeppelin/contracts/utils/Counters.sol\";\nimport \"@openzeppelin/contracts/access/AccessControl.sol\";\nimport \"./INFT_Factory.sol\";\n\n\ncontract Pool is AccessControl {\n  using Counters for Counters.Counter;\n  bytes32 public constant FUNDER_ROLE = keccak256(\"FUNDER_ROLE\");\n\n  uint256 public minInvesting;\n  uint256 public interest;\n  uint256 public stakingDays;\n  uint256 public marginInvestment;\n  Counters.Counter public _numberOfInvestment;\n  Counters.Counter public _numberOfInvestors;\n  IERC20 currency;\n  INFT_Factory nft;\n\n  struct Investor {\n    uint256 amountFounding;\n    uint256 benefits;\n    uint256 dayDeposit;\n  }\n\n  mapping (address => Investor) public investors;\n  mapping (address => uint) public pendingReturns;\n  mapping (address => bool) public exist;\n  mapping (uint256 => bool) public financed;\n\n  event Deposit(address indexed investor, uint256 indexed amount);\n  event Withdraw(address indexed investor, uint256 indexed amount);\n  event Funding(uint256 indexed tokenId, address indexed ownerOfNFT, uint256 amountFounding);\n\n  constructor(\n    address addressCurrency,\n    address addressNFT, \n    address accountFunder, \n    uint256 MinInvesting, uint256 Rate, uint256 StakingDays, uint256 MarginInvestment) {\n      minInvesting = MinInvesting;\n      interest = Rate;\n      currency = IERC20(addressCurrency);\n      nft = INFT_Factory(addressNFT);\n      stakingDays = (StakingDays * 1 minutes) + block.timestamp;\n      marginInvestment = MarginInvestment;\n      _setupRole(DEFAULT_ADMIN_ROLE, msg.sender);\n      grantRole(FUNDER_ROLE, accountFunder);\n  }\n\n  function supportsInterface(bytes4 interfaceId) public view virtual override returns (bool) {\n    return interfaceId == type(INFT_Factory).interfaceId \n        || interfaceId == type(IERC20).interfaceId \n        || interfaceId == type(IERC721Receiver).interfaceId || super.supportsInterface(interfaceId); \n  }\n  \n  function investingOf(address _investor) public view returns(uint256 balance){\n    balance = investors[_investor].amountFounding;\n  }\n  \n  function profit(address _investor) public view returns(uint256) {\n    return _profit(interest, investors[_investor].amountFounding);\n  }\n\n  function _liquidity() public view returns(uint256 liquidity) {\n    liquidity = currency.balanceOf(address(this));\n  }\n\n  function showRemainingTimeToWithdraw(address investor) public view returns(uint256) {\n    return (investors[investor].dayDeposit - block.timestamp);\n  } \n\n  function _interest(uint256 newInterest) public onlyRole(DEFAULT_ADMIN_ROLE) returns(bool) {\n    interest = newInterest;\n    return true;\n  }\n\n  function _stakingDays(uint256 newStakingDays) public onlyRole(DEFAULT_ADMIN_ROLE) returns(bool) {\n    stakingDays = newStakingDays;\n    return true;\n  }\n\n  function _minInvesting(uint256 newMinInvesting) public onlyRole(DEFAULT_ADMIN_ROLE) returns(bool) {\n    minInvesting = newMinInvesting;\n    return true;\n  }\n\n  function _marginInvestment(uint256 newMarginInvestmment) public onlyRole(DEFAULT_ADMIN_ROLE) returns(bool) {\n    marginInvestment = newMarginInvestmment;\n    return true;\n  }\n\n  function deposit(uint256 _amount) external returns(bool) {\n    if ( exist[_msgSender()] == false) {_numberOfInvestors.increment();}\n    uint256 valueINV = pendingReturns[_msgSender()] += _amount;\n    require(valueINV >= minInvesting, \"POOL: Min investing exceeds the amount.\");\n    //use approve function from web3 to allow the transaction\n    currency.transferFrom(_msgSender(), address(this), _amount);\n    uint256 _benefits = valueINV + _profit(interest, valueINV);\n    investors[_msgSender()] = Investor(valueINV, _benefits, block.timestamp);\n    exist[_msgSender()] = true;\n    emit Deposit(_msgSender(), _amount);\n    return true; \n  }\n\n  function withdraw(uint256 _valueWithdrawal) external returns(bool) {\n    require(exist[_msgSender()], \"POOL: Your are not an investor registered.\");\n    require(_valueWithdrawal <= investors[_msgSender()].benefits, \"POOL: Value of the withdrawal exceeds your funds\");\n    uint256 daysPassed = (block.timestamp - investors[_msgSender()].dayDeposit) / 1 minutes;\n    require(daysPassed >=  stakingDays + 1 minutes, \"POOL: You have to wait after the withdraw day.\");\n    currency.transfer(_msgSender(), _valueWithdrawal);\n    investors[_msgSender()].benefits -= _valueWithdrawal;\n    emit Withdraw(_msgSender(), _valueWithdrawal);\n    return true;\n  }  \n\n  function funding(uint256 _tokenId, uint256 _amount) external onlyRole(FUNDER_ROLE) returns(uint256) {\n    require(_liquidity() - _amount > marginInvestment, \"POOL: The amount lees than the marging of investing.\");\n    (uint256 priceSell, ) = INFT_Factory(address(nft)).values(_tokenId);\n    require(_amount == priceSell, \"POOL: The amount not match with token's price of sell\");\n    address ownerOfNFT = nft.ownerOf(_tokenId);\n    currency.transfer(ownerOfNFT, _amount);\n    nft.safeTransferFrom(ownerOfNFT, address(this), _tokenId);\n    financed[_tokenId] = true;\n    _numberOfInvestment.increment();\n    emit Funding(_tokenId, ownerOfNFT, _amount);\n    return _numberOfInvestment.current();\n  }\n\n  function _profit(uint256 _interestInPorcentage, uint256 _amount) private pure returns(uint256) {\n     uint256 value = (_interestInPorcentage * _amount) / (100 * 10 **18);\n     return value;\n  }\n\n}\n\n",
  "sourcePath": "D:/Trabajo/0-Reservafs/Proyectos/DIF PROJECT/Code/DIF Alpha/contracts/Pool.sol",
  "compiler": {
    "name": "solc",
    "version": "0.8.0+commit.c7dfd78e.Emscripten.clang"
  },
  "schemaVersion": "3.3.4",
  "updatedAt": "2021-08-06T19:07:06.710Z",
  "devdoc": {
    "kind": "dev",
    "methods": {
      "getRoleAdmin(bytes32)": {
        "details": "Returns the admin role that controls `role`. See {grantRole} and {revokeRole}. To change a role's admin, use {_setRoleAdmin}."
      },
      "grantRole(bytes32,address)": {
        "details": "Grants `role` to `account`. If `account` had not been already granted `role`, emits a {RoleGranted} event. Requirements: - the caller must have ``role``'s admin role."
      },
      "hasRole(bytes32,address)": {
        "details": "Returns `true` if `account` has been granted `role`."
      },
      "renounceRole(bytes32,address)": {
        "details": "Revokes `role` from the calling account. Roles are often managed via {grantRole} and {revokeRole}: this function's purpose is to provide a mechanism for accounts to lose their privileges if they are compromised (such as when a trusted device is misplaced). If the calling account had been granted `role`, emits a {RoleRevoked} event. Requirements: - the caller must be `account`."
      },
      "revokeRole(bytes32,address)": {
        "details": "Revokes `role` from `account`. If `account` had been granted `role`, emits a {RoleRevoked} event. Requirements: - the caller must have ``role``'s admin role."
      },
      "supportsInterface(bytes4)": {
        "details": "See {IERC165-supportsInterface}."
      }
    },
    "version": 1
  },
  "userdoc": {
    "kind": "user",
    "methods": {},
    "version": 1
  }
}